{
  "_format": "hh-sol-artifact-1",
  "contractName": "MyGovernor",
  "sourceName": "contracts/lsp7/Mocks/MyGovernor.sol",
  "abi": [
    {
      "inputs": [
        {
          "internalType": "contract IVotes",
          "name": "_token",
          "type": "address"
        }
      ],
      "stateMutability": "nonpayable",
      "type": "constructor"
    },
    {
      "inputs": [],
      "name": "Empty",
      "type": "error"
    },
    {
      "inputs": [],
      "name": "InvalidShortString",
      "type": "error"
    },
    {
      "inputs": [
        {
          "internalType": "string",
          "name": "str",
          "type": "string"
        }
      ],
      "name": "StringTooLong",
      "type": "error"
    },
    {
      "anonymous": false,
      "inputs": [],
      "name": "EIP712DomainChanged",
      "type": "event"
    },
    {
      "anonymous": false,
      "inputs": [
        {
          "indexed": false,
          "internalType": "uint256",
          "name": "proposalId",
          "type": "uint256"
        }
      ],
      "name": "ProposalCanceled",
      "type": "event"
    },
    {
      "anonymous": false,
      "inputs": [
        {
          "indexed": false,
          "internalType": "uint256",
          "name": "proposalId",
          "type": "uint256"
        },
        {
          "indexed": false,
          "internalType": "address",
          "name": "proposer",
          "type": "address"
        },
        {
          "indexed": false,
          "internalType": "address[]",
          "name": "targets",
          "type": "address[]"
        },
        {
          "indexed": false,
          "internalType": "uint256[]",
          "name": "values",
          "type": "uint256[]"
        },
        {
          "indexed": false,
          "internalType": "string[]",
          "name": "signatures",
          "type": "string[]"
        },
        {
          "indexed": false,
          "internalType": "bytes[]",
          "name": "calldatas",
          "type": "bytes[]"
        },
        {
          "indexed": false,
          "internalType": "uint256",
          "name": "voteStart",
          "type": "uint256"
        },
        {
          "indexed": false,
          "internalType": "uint256",
          "name": "voteEnd",
          "type": "uint256"
        },
        {
          "indexed": false,
          "internalType": "string",
          "name": "description",
          "type": "string"
        }
      ],
      "name": "ProposalCreated",
      "type": "event"
    },
    {
      "anonymous": false,
      "inputs": [
        {
          "indexed": false,
          "internalType": "uint256",
          "name": "proposalId",
          "type": "uint256"
        }
      ],
      "name": "ProposalExecuted",
      "type": "event"
    },
    {
      "anonymous": false,
      "inputs": [
        {
          "indexed": false,
          "internalType": "uint256",
          "name": "oldProposalThreshold",
          "type": "uint256"
        },
        {
          "indexed": false,
          "internalType": "uint256",
          "name": "newProposalThreshold",
          "type": "uint256"
        }
      ],
      "name": "ProposalThresholdSet",
      "type": "event"
    },
    {
      "anonymous": false,
      "inputs": [
        {
          "indexed": false,
          "internalType": "uint256",
          "name": "oldQuorumNumerator",
          "type": "uint256"
        },
        {
          "indexed": false,
          "internalType": "uint256",
          "name": "newQuorumNumerator",
          "type": "uint256"
        }
      ],
      "name": "QuorumNumeratorUpdated",
      "type": "event"
    },
    {
      "anonymous": false,
      "inputs": [
        {
          "indexed": true,
          "internalType": "address",
          "name": "voter",
          "type": "address"
        },
        {
          "indexed": false,
          "internalType": "uint256",
          "name": "proposalId",
          "type": "uint256"
        },
        {
          "indexed": false,
          "internalType": "uint8",
          "name": "support",
          "type": "uint8"
        },
        {
          "indexed": false,
          "internalType": "uint256",
          "name": "weight",
          "type": "uint256"
        },
        {
          "indexed": false,
          "internalType": "string",
          "name": "reason",
          "type": "string"
        }
      ],
      "name": "VoteCast",
      "type": "event"
    },
    {
      "anonymous": false,
      "inputs": [
        {
          "indexed": true,
          "internalType": "address",
          "name": "voter",
          "type": "address"
        },
        {
          "indexed": false,
          "internalType": "uint256",
          "name": "proposalId",
          "type": "uint256"
        },
        {
          "indexed": false,
          "internalType": "uint8",
          "name": "support",
          "type": "uint8"
        },
        {
          "indexed": false,
          "internalType": "uint256",
          "name": "weight",
          "type": "uint256"
        },
        {
          "indexed": false,
          "internalType": "string",
          "name": "reason",
          "type": "string"
        },
        {
          "indexed": false,
          "internalType": "bytes",
          "name": "params",
          "type": "bytes"
        }
      ],
      "name": "VoteCastWithParams",
      "type": "event"
    },
    {
      "anonymous": false,
      "inputs": [
        {
          "indexed": false,
          "internalType": "uint256",
          "name": "oldVotingDelay",
          "type": "uint256"
        },
        {
          "indexed": false,
          "internalType": "uint256",
          "name": "newVotingDelay",
          "type": "uint256"
        }
      ],
      "name": "VotingDelaySet",
      "type": "event"
    },
    {
      "anonymous": false,
      "inputs": [
        {
          "indexed": false,
          "internalType": "uint256",
          "name": "oldVotingPeriod",
          "type": "uint256"
        },
        {
          "indexed": false,
          "internalType": "uint256",
          "name": "newVotingPeriod",
          "type": "uint256"
        }
      ],
      "name": "VotingPeriodSet",
      "type": "event"
    },
    {
      "inputs": [],
      "name": "BALLOT_TYPEHASH",
      "outputs": [
        {
          "internalType": "bytes32",
          "name": "",
          "type": "bytes32"
        }
      ],
      "stateMutability": "view",
      "type": "function"
    },
    {
      "inputs": [],
      "name": "CLOCK_MODE",
      "outputs": [
        {
          "internalType": "string",
          "name": "",
          "type": "string"
        }
      ],
      "stateMutability": "view",
      "type": "function"
    },
    {
      "inputs": [],
      "name": "COUNTING_MODE",
      "outputs": [
        {
          "internalType": "string",
          "name": "",
          "type": "string"
        }
      ],
      "stateMutability": "pure",
      "type": "function"
    },
    {
      "inputs": [],
      "name": "EXTENDED_BALLOT_TYPEHASH",
      "outputs": [
        {
          "internalType": "bytes32",
          "name": "",
          "type": "bytes32"
        }
      ],
      "stateMutability": "view",
      "type": "function"
    },
    {
      "inputs": [
        {
          "internalType": "address[]",
          "name": "targets",
          "type": "address[]"
        },
        {
          "internalType": "uint256[]",
          "name": "values",
          "type": "uint256[]"
        },
        {
          "internalType": "bytes[]",
          "name": "calldatas",
          "type": "bytes[]"
        },
        {
          "internalType": "bytes32",
          "name": "descriptionHash",
          "type": "bytes32"
        }
      ],
      "name": "cancel",
      "outputs": [
        {
          "internalType": "uint256",
          "name": "",
          "type": "uint256"
        }
      ],
      "stateMutability": "nonpayable",
      "type": "function"
    },
    {
      "inputs": [
        {
          "internalType": "uint256",
          "name": "proposalId",
          "type": "uint256"
        },
        {
          "internalType": "uint8",
          "name": "support",
          "type": "uint8"
        }
      ],
      "name": "castVote",
      "outputs": [
        {
          "internalType": "uint256",
          "name": "",
          "type": "uint256"
        }
      ],
      "stateMutability": "nonpayable",
      "type": "function"
    },
    {
      "inputs": [
        {
          "internalType": "uint256",
          "name": "proposalId",
          "type": "uint256"
        },
        {
          "internalType": "uint8",
          "name": "support",
          "type": "uint8"
        },
        {
          "internalType": "uint8",
          "name": "v",
          "type": "uint8"
        },
        {
          "internalType": "bytes32",
          "name": "r",
          "type": "bytes32"
        },
        {
          "internalType": "bytes32",
          "name": "s",
          "type": "bytes32"
        }
      ],
      "name": "castVoteBySig",
      "outputs": [
        {
          "internalType": "uint256",
          "name": "",
          "type": "uint256"
        }
      ],
      "stateMutability": "nonpayable",
      "type": "function"
    },
    {
      "inputs": [
        {
          "internalType": "uint256",
          "name": "proposalId",
          "type": "uint256"
        },
        {
          "internalType": "uint8",
          "name": "support",
          "type": "uint8"
        },
        {
          "internalType": "string",
          "name": "reason",
          "type": "string"
        }
      ],
      "name": "castVoteWithReason",
      "outputs": [
        {
          "internalType": "uint256",
          "name": "",
          "type": "uint256"
        }
      ],
      "stateMutability": "nonpayable",
      "type": "function"
    },
    {
      "inputs": [
        {
          "internalType": "uint256",
          "name": "proposalId",
          "type": "uint256"
        },
        {
          "internalType": "uint8",
          "name": "support",
          "type": "uint8"
        },
        {
          "internalType": "string",
          "name": "reason",
          "type": "string"
        },
        {
          "internalType": "bytes",
          "name": "params",
          "type": "bytes"
        }
      ],
      "name": "castVoteWithReasonAndParams",
      "outputs": [
        {
          "internalType": "uint256",
          "name": "",
          "type": "uint256"
        }
      ],
      "stateMutability": "nonpayable",
      "type": "function"
    },
    {
      "inputs": [
        {
          "internalType": "uint256",
          "name": "proposalId",
          "type": "uint256"
        },
        {
          "internalType": "uint8",
          "name": "support",
          "type": "uint8"
        },
        {
          "internalType": "string",
          "name": "reason",
          "type": "string"
        },
        {
          "internalType": "bytes",
          "name": "params",
          "type": "bytes"
        },
        {
          "internalType": "uint8",
          "name": "v",
          "type": "uint8"
        },
        {
          "internalType": "bytes32",
          "name": "r",
          "type": "bytes32"
        },
        {
          "internalType": "bytes32",
          "name": "s",
          "type": "bytes32"
        }
      ],
      "name": "castVoteWithReasonAndParamsBySig",
      "outputs": [
        {
          "internalType": "uint256",
          "name": "",
          "type": "uint256"
        }
      ],
      "stateMutability": "nonpayable",
      "type": "function"
    },
    {
      "inputs": [],
      "name": "clock",
      "outputs": [
        {
          "internalType": "uint48",
          "name": "",
          "type": "uint48"
        }
      ],
      "stateMutability": "view",
      "type": "function"
    },
    {
      "inputs": [],
      "name": "eip712Domain",
      "outputs": [
        {
          "internalType": "bytes1",
          "name": "fields",
          "type": "bytes1"
        },
        {
          "internalType": "string",
          "name": "name",
          "type": "string"
        },
        {
          "internalType": "string",
          "name": "version",
          "type": "string"
        },
        {
          "internalType": "uint256",
          "name": "chainId",
          "type": "uint256"
        },
        {
          "internalType": "address",
          "name": "verifyingContract",
          "type": "address"
        },
        {
          "internalType": "bytes32",
          "name": "salt",
          "type": "bytes32"
        },
        {
          "internalType": "uint256[]",
          "name": "extensions",
          "type": "uint256[]"
        }
      ],
      "stateMutability": "view",
      "type": "function"
    },
    {
      "inputs": [
        {
          "internalType": "address[]",
          "name": "targets",
          "type": "address[]"
        },
        {
          "internalType": "uint256[]",
          "name": "values",
          "type": "uint256[]"
        },
        {
          "internalType": "bytes[]",
          "name": "calldatas",
          "type": "bytes[]"
        },
        {
          "internalType": "bytes32",
          "name": "descriptionHash",
          "type": "bytes32"
        }
      ],
      "name": "execute",
      "outputs": [
        {
          "internalType": "uint256",
          "name": "",
          "type": "uint256"
        }
      ],
      "stateMutability": "payable",
      "type": "function"
    },
    {
      "inputs": [
        {
          "internalType": "address",
          "name": "account",
          "type": "address"
        },
        {
          "internalType": "uint256",
          "name": "timepoint",
          "type": "uint256"
        }
      ],
      "name": "getVotes",
      "outputs": [
        {
          "internalType": "uint256",
          "name": "",
          "type": "uint256"
        }
      ],
      "stateMutability": "view",
      "type": "function"
    },
    {
      "inputs": [
        {
          "internalType": "address",
          "name": "account",
          "type": "address"
        },
        {
          "internalType": "uint256",
          "name": "timepoint",
          "type": "uint256"
        },
        {
          "internalType": "bytes",
          "name": "params",
          "type": "bytes"
        }
      ],
      "name": "getVotesWithParams",
      "outputs": [
        {
          "internalType": "uint256",
          "name": "",
          "type": "uint256"
        }
      ],
      "stateMutability": "view",
      "type": "function"
    },
    {
      "inputs": [
        {
          "internalType": "uint256",
          "name": "proposalId",
          "type": "uint256"
        },
        {
          "internalType": "address",
          "name": "account",
          "type": "address"
        }
      ],
      "name": "hasVoted",
      "outputs": [
        {
          "internalType": "bool",
          "name": "",
          "type": "bool"
        }
      ],
      "stateMutability": "view",
      "type": "function"
    },
    {
      "inputs": [
        {
          "internalType": "address[]",
          "name": "targets",
          "type": "address[]"
        },
        {
          "internalType": "uint256[]",
          "name": "values",
          "type": "uint256[]"
        },
        {
          "internalType": "bytes[]",
          "name": "calldatas",
          "type": "bytes[]"
        },
        {
          "internalType": "bytes32",
          "name": "descriptionHash",
          "type": "bytes32"
        }
      ],
      "name": "hashProposal",
      "outputs": [
        {
          "internalType": "uint256",
          "name": "",
          "type": "uint256"
        }
      ],
      "stateMutability": "pure",
      "type": "function"
    },
    {
      "inputs": [],
      "name": "name",
      "outputs": [
        {
          "internalType": "string",
          "name": "",
          "type": "string"
        }
      ],
      "stateMutability": "view",
      "type": "function"
    },
    {
      "inputs": [
        {
          "internalType": "address",
          "name": "",
          "type": "address"
        },
        {
          "internalType": "address",
          "name": "",
          "type": "address"
        },
        {
          "internalType": "uint256[]",
          "name": "",
          "type": "uint256[]"
        },
        {
          "internalType": "uint256[]",
          "name": "",
          "type": "uint256[]"
        },
        {
          "internalType": "bytes",
          "name": "",
          "type": "bytes"
        }
      ],
      "name": "onERC1155BatchReceived",
      "outputs": [
        {
          "internalType": "bytes4",
          "name": "",
          "type": "bytes4"
        }
      ],
      "stateMutability": "nonpayable",
      "type": "function"
    },
    {
      "inputs": [
        {
          "internalType": "address",
          "name": "",
          "type": "address"
        },
        {
          "internalType": "address",
          "name": "",
          "type": "address"
        },
        {
          "internalType": "uint256",
          "name": "",
          "type": "uint256"
        },
        {
          "internalType": "uint256",
          "name": "",
          "type": "uint256"
        },
        {
          "internalType": "bytes",
          "name": "",
          "type": "bytes"
        }
      ],
      "name": "onERC1155Received",
      "outputs": [
        {
          "internalType": "bytes4",
          "name": "",
          "type": "bytes4"
        }
      ],
      "stateMutability": "nonpayable",
      "type": "function"
    },
    {
      "inputs": [
        {
          "internalType": "address",
          "name": "",
          "type": "address"
        },
        {
          "internalType": "address",
          "name": "",
          "type": "address"
        },
        {
          "internalType": "uint256",
          "name": "",
          "type": "uint256"
        },
        {
          "internalType": "bytes",
          "name": "",
          "type": "bytes"
        }
      ],
      "name": "onERC721Received",
      "outputs": [
        {
          "internalType": "bytes4",
          "name": "",
          "type": "bytes4"
        }
      ],
      "stateMutability": "nonpayable",
      "type": "function"
    },
    {
      "inputs": [
        {
          "internalType": "uint256",
          "name": "proposalId",
          "type": "uint256"
        }
      ],
      "name": "proposalDeadline",
      "outputs": [
        {
          "internalType": "uint256",
          "name": "",
          "type": "uint256"
        }
      ],
      "stateMutability": "view",
      "type": "function"
    },
    {
      "inputs": [
        {
          "internalType": "uint256",
          "name": "proposalId",
          "type": "uint256"
        }
      ],
      "name": "proposalProposer",
      "outputs": [
        {
          "internalType": "address",
          "name": "",
          "type": "address"
        }
      ],
      "stateMutability": "view",
      "type": "function"
    },
    {
      "inputs": [
        {
          "internalType": "uint256",
          "name": "proposalId",
          "type": "uint256"
        }
      ],
      "name": "proposalSnapshot",
      "outputs": [
        {
          "internalType": "uint256",
          "name": "",
          "type": "uint256"
        }
      ],
      "stateMutability": "view",
      "type": "function"
    },
    {
      "inputs": [],
      "name": "proposalThreshold",
      "outputs": [
        {
          "internalType": "uint256",
          "name": "",
          "type": "uint256"
        }
      ],
      "stateMutability": "view",
      "type": "function"
    },
    {
      "inputs": [
        {
          "internalType": "uint256",
          "name": "proposalId",
          "type": "uint256"
        }
      ],
      "name": "proposalVotes",
      "outputs": [
        {
          "internalType": "uint256",
          "name": "againstVotes",
          "type": "uint256"
        },
        {
          "internalType": "uint256",
          "name": "forVotes",
          "type": "uint256"
        },
        {
          "internalType": "uint256",
          "name": "abstainVotes",
          "type": "uint256"
        }
      ],
      "stateMutability": "view",
      "type": "function"
    },
    {
      "inputs": [
        {
          "internalType": "address[]",
          "name": "targets",
          "type": "address[]"
        },
        {
          "internalType": "uint256[]",
          "name": "values",
          "type": "uint256[]"
        },
        {
          "internalType": "bytes[]",
          "name": "calldatas",
          "type": "bytes[]"
        },
        {
          "internalType": "string",
          "name": "description",
          "type": "string"
        }
      ],
      "name": "propose",
      "outputs": [
        {
          "internalType": "uint256",
          "name": "",
          "type": "uint256"
        }
      ],
      "stateMutability": "nonpayable",
      "type": "function"
    },
    {
      "inputs": [
        {
          "internalType": "uint256",
          "name": "blockNumber",
          "type": "uint256"
        }
      ],
      "name": "quorum",
      "outputs": [
        {
          "internalType": "uint256",
          "name": "",
          "type": "uint256"
        }
      ],
      "stateMutability": "view",
      "type": "function"
    },
    {
      "inputs": [],
      "name": "quorumDenominator",
      "outputs": [
        {
          "internalType": "uint256",
          "name": "",
          "type": "uint256"
        }
      ],
      "stateMutability": "view",
      "type": "function"
    },
    {
      "inputs": [
        {
          "internalType": "uint256",
          "name": "timepoint",
          "type": "uint256"
        }
      ],
      "name": "quorumNumerator",
      "outputs": [
        {
          "internalType": "uint256",
          "name": "",
          "type": "uint256"
        }
      ],
      "stateMutability": "view",
      "type": "function"
    },
    {
      "inputs": [],
      "name": "quorumNumerator",
      "outputs": [
        {
          "internalType": "uint256",
          "name": "",
          "type": "uint256"
        }
      ],
      "stateMutability": "view",
      "type": "function"
    },
    {
      "inputs": [
        {
          "internalType": "address",
          "name": "target",
          "type": "address"
        },
        {
          "internalType": "uint256",
          "name": "value",
          "type": "uint256"
        },
        {
          "internalType": "bytes",
          "name": "data",
          "type": "bytes"
        }
      ],
      "name": "relay",
      "outputs": [],
      "stateMutability": "payable",
      "type": "function"
    },
    {
      "inputs": [
        {
          "internalType": "uint256",
          "name": "newProposalThreshold",
          "type": "uint256"
        }
      ],
      "name": "setProposalThreshold",
      "outputs": [],
      "stateMutability": "nonpayable",
      "type": "function"
    },
    {
      "inputs": [
        {
          "internalType": "uint256",
          "name": "newVotingDelay",
          "type": "uint256"
        }
      ],
      "name": "setVotingDelay",
      "outputs": [],
      "stateMutability": "nonpayable",
      "type": "function"
    },
    {
      "inputs": [
        {
          "internalType": "uint256",
          "name": "newVotingPeriod",
          "type": "uint256"
        }
      ],
      "name": "setVotingPeriod",
      "outputs": [],
      "stateMutability": "nonpayable",
      "type": "function"
    },
    {
      "inputs": [
        {
          "internalType": "uint256",
          "name": "proposalId",
          "type": "uint256"
        }
      ],
      "name": "state",
      "outputs": [
        {
          "internalType": "enum IGovernor.ProposalState",
          "name": "",
          "type": "uint8"
        }
      ],
      "stateMutability": "view",
      "type": "function"
    },
    {
      "inputs": [
        {
          "internalType": "bytes4",
          "name": "interfaceId",
          "type": "bytes4"
        }
      ],
      "name": "supportsInterface",
      "outputs": [
        {
          "internalType": "bool",
          "name": "",
          "type": "bool"
        }
      ],
      "stateMutability": "view",
      "type": "function"
    },
    {
      "inputs": [],
      "name": "token",
      "outputs": [
        {
          "internalType": "contract IERC5805",
          "name": "",
          "type": "address"
        }
      ],
      "stateMutability": "view",
      "type": "function"
    },
    {
      "inputs": [
        {
          "internalType": "uint256",
          "name": "newQuorumNumerator",
          "type": "uint256"
        }
      ],
      "name": "updateQuorumNumerator",
      "outputs": [],
      "stateMutability": "nonpayable",
      "type": "function"
    },
    {
      "inputs": [],
      "name": "version",
      "outputs": [
        {
          "internalType": "string",
          "name": "",
          "type": "string"
        }
      ],
      "stateMutability": "view",
      "type": "function"
    },
    {
      "inputs": [],
      "name": "votingDelay",
      "outputs": [
        {
          "internalType": "uint256",
          "name": "",
          "type": "uint256"
        }
      ],
      "stateMutability": "view",
      "type": "function"
    },
    {
      "inputs": [],
      "name": "votingPeriod",
      "outputs": [
        {
          "internalType": "uint256",
          "name": "",
          "type": "uint256"
        }
      ],
      "stateMutability": "view",
      "type": "function"
    },
    {
      "stateMutability": "payable",
      "type": "receive"
    }
  ],
  "bytecode": "0x6101806040523480156200001257600080fd5b5060405162005b7c38038062005b7c833981016040819052620000359162000942565b600181611c2080670de0b6b3a76400006040518060400160405280600a81526020016926bca3b7bb32b93737b960b11b81525080620000796200019d60201b60201c565b62000094600083620001b860201b620020501790919060201c565b61012052620000b1816001620001b8602090811b6200205017901c565b61014052815160208084019190912060e052815190820120610100524660a0526200013f60e05161010051604080517f8b73c3c69bb8fe3d512ecc4cf759cc79239f7b179b0ffacaa9a75d522b39400f60208201529081019290925260608201524660808201523060a082015260009060c00160405160208183030381529060405280519060200120905090565b60805250503060c052600262000156828262000a12565b506200016490508362000208565b6200016f8262000249565b6200017a81620002f0565b5050506001600160a01b031661016052620001958162000331565b505062000b9f565b6040805180820190915260018152603160f81b602082015290565b6000602083511015620001d857620001d083620004e6565b905062000202565b82620001ef836200052960201b620020811760201c565b90620001fc908262000a12565b5060ff90505b92915050565b60065460408051918252602082018390527fc565b045403dc03c2eea82b81a0465edad9e2e7fc4d97e11421c209da93d7a93910160405180910390a1600655565b60008111620002af5760405162461bcd60e51b815260206004820152602760248201527f476f7665726e6f7253657474696e67733a20766f74696e6720706572696f6420604482015266746f6f206c6f7760c81b60648201526084015b60405180910390fd5b60075460408051918252602082018390527f7e3f7f0708a84de9203036abaa450dccc85ad5ff52f78c170f3edb55cf5e8828910160405180910390a1600755565b60085460408051918252602082018390527fccb45da8d5717e6c4544694297c4ba5cf151d455c9bb0ed4fc7a38411bc05461910160405180910390a1600855565b6064811115620003b65760405162461bcd60e51b815260206004820152604360248201527f476f7665726e6f72566f74657351756f72756d4672616374696f6e3a2071756f60448201527f72756d4e756d657261746f72206f7665722071756f72756d44656e6f6d696e616064820152623a37b960e91b608482015260a401620002a6565b6000620003c26200052c565b90508015801590620003d45750600b54155b156200044f57600b6000016040518060400160405280600063ffffffff1681526020016200040d846200056660201b620020841760201c565b6001600160e01b0390811690915282546001810184556000938452602093849020835194909301519091166401000000000263ffffffff909316929092179101555b620004a76200047a62000461620005d5565b65ffffffffffff166200065760201b620021361760201c565b62000490846200056660201b620020841760201c565b600b620006be60201b620021cc179092919060201c565b505060408051828152602081018490527f0553476bf02ef2726e8ce5ced78d63e26e602e4a2257b1f559418e24b4633997910160405180910390a15050565b600080829050601f8151111562000514578260405163305a27a960e01b8152600401620002a6919062000ade565b8051620005218262000b2e565b179392505050565b90565b600b54600090156200055d576200054f600b620006db60201b620021e71760201c565b6001600160e01b0316905090565b600a545b905090565b60006001600160e01b03821115620005d15760405162461bcd60e51b815260206004820152602760248201527f53616665436173743a2076616c756520646f65736e27742066697420696e20326044820152663234206269747360c81b6064820152608401620002a6565b5090565b6000610160516001600160a01b03166391ddadf46040518163ffffffff1660e01b8152600401602060405180830381865afa92505050801562000637575060408051601f3d908101601f19168201909252620006349181019062000b53565b60015b620006525762000561436200072960201b620022441760201c565b919050565b600063ffffffff821115620005d15760405162461bcd60e51b815260206004820152602660248201527f53616665436173743a2076616c756520646f65736e27742066697420696e203360448201526532206269747360d01b6064820152608401620002a6565b600080620006ce85858562000792565b915091505b935093915050565b805460009080156200071f576200070783620006f960018462000b7d565b600091825260209091200190565b5464010000000090046001600160e01b031662000722565b60005b9392505050565b600065ffffffffffff821115620005d15760405162461bcd60e51b815260206004820152602660248201527f53616665436173743a2076616c756520646f65736e27742066697420696e203460448201526538206269747360d01b6064820152608401620002a6565b825460009081908015620008e7576000620007b487620006f960018562000b7d565b60408051808201909152905463ffffffff8082168084526401000000009092046001600160e01b031660208401529192509087161015620008385760405162461bcd60e51b815260206004820152601b60248201527f436865636b706f696e743a2064656372656173696e67206b65797300000000006044820152606401620002a6565b805163ffffffff8088169116036200088657846200085d88620006f960018662000b7d565b80546001600160e01b03929092166401000000000263ffffffff909216919091179055620008d6565b6040805180820190915263ffffffff80881682526001600160e01b0380881660208085019182528b54600181018d5560008d81529190912094519151909216640100000000029216919091179101555b602001519250839150620006d39050565b50506040805180820190915263ffffffff80851682526001600160e01b0380851660208085019182528854600181018a5560008a815291822095519251909316640100000000029190931617920191909155905081620006d3565b6000602082840312156200095557600080fd5b81516001600160a01b03811681146200072257600080fd5b634e487b7160e01b600052604160045260246000fd5b600181811c908216806200099857607f821691505b602082108103620009b957634e487b7160e01b600052602260045260246000fd5b50919050565b601f82111562000a0d57600081815260208120601f850160051c81016020861015620009e85750805b601f850160051c820191505b8181101562000a0957828155600101620009f4565b5050505b505050565b81516001600160401b0381111562000a2e5762000a2e6200096d565b62000a468162000a3f845462000983565b84620009bf565b602080601f83116001811462000a7e576000841562000a655750858301515b600019600386901b1c1916600185901b17855562000a09565b600085815260208120601f198616915b8281101562000aaf5788860151825594840194600190910190840162000a8e565b508582101562000ace5787850151600019600388901b60f8161c191681555b5050505050600190811b01905550565b600060208083528351808285015260005b8181101562000b0d5785810183015185820160400152820162000aef565b506000604082860101526040601f19601f8301168501019250505092915050565b80516020808301519190811015620009b95760001960209190910360031b1b16919050565b60006020828403121562000b6657600080fd5b815165ffffffffffff811681146200072257600080fd5b818103818111156200020257634e487b7160e01b600052601160045260246000fd5b60805160a05160c05160e05161010051610120516101405161016051614f5b62000c21600039600081816109d4015281816112da01528181611c8b01528181612ed301526130a701526000611c1b01526000611bf10152600061348a01526000613462015260006133bd015260006133e7015260006134110152614f5b6000f3fe6080604052600436106102d55760003560e01c806370b0f66011610179578063c01f9e37116100d6578063ea0217cf1161008a578063f23a6e6111610064578063f23a6e611461095d578063f8ce560a146109a2578063fc0c546a146109c257600080fd5b8063ea0217cf146108fd578063eb9019d41461091d578063ece40cc11461093d57600080fd5b8063c59057e4116100bb578063c59057e414610863578063dd4e2ba514610883578063deaaa7cc146108c957600080fd5b8063c01f9e3714610816578063c28bc2fa1461085057600080fd5b806397c3d3341161012d578063a7713a7011610112578063a7713a70146107a7578063b58131b0146107bc578063bc197c81146107d157600080fd5b806397c3d334146107735780639a802a6d1461078757600080fd5b80637d5e81e21161015e5780637d5e81e2146106ff57806384b0196e1461071f57806391ddadf41461074757600080fd5b806370b0f660146106bf5780637b3c71d3146106df57600080fd5b80633932abb1116102325780634bf5d7e9116101e657806356781388116101c0578063567813881461065f5780635f398a141461067f57806360c4247f1461069f57600080fd5b80634bf5d7e9146105af578063544ffc9c146105c457806354fd4d501461061957600080fd5b80633e4f49e6116102175780633e4f49e614610542578063438596321461056f578063452115d61461058f57600080fd5b80633932abb11461050d5780633bccf4fd1461052257600080fd5b8063143489d0116102895780632656227d1161026e5780632656227d1461048f5780632d63f693146104a25780632fe3e261146104d957600080fd5b8063143489d0146103a6578063150b7a021461041a57600080fd5b806303420181116102ba578063034201811461034457806306f3f9e61461036457806306fdde031461038457600080fd5b806301ffc9a7146102ec57806302a251a31461032157600080fd5b366102e757005b60405180910390fd5b005b600080fd5b3480156102f857600080fd5b5061030c610307366004613dca565b6109f6565b60405190151581526020015b60405180910390f35b34801561032d57600080fd5b50610336610ba1565b604051908152602001610318565b34801561035057600080fd5b5061033661035f366004613f88565b610bb1565b34801561037057600080fd5b506102e561037f36600461402f565b610ca9565b34801561039057600080fd5b50610399610d35565b60405161031891906140b6565b3480156103b257600080fd5b506103f56103c136600461402f565b60009081526003602052604090205468010000000000000000900473ffffffffffffffffffffffffffffffffffffffff1690565b60405173ffffffffffffffffffffffffffffffffffffffff9091168152602001610318565b34801561042657600080fd5b5061045e6104353660046140ed565b7f150b7a0200000000000000000000000000000000000000000000000000000000949350505050565b6040517fffffffff000000000000000000000000000000000000000000000000000000009091168152602001610318565b61033661049d3660046142c1565b610dc7565b3480156104ae57600080fd5b506103366104bd36600461402f565b60009081526003602052604090205467ffffffffffffffff1690565b3480156104e557600080fd5b506103367fb3b3f3b703cd84ce352197dcff232b1b5d3cfb2025ce47cf04742d0651f1af8881565b34801561051957600080fd5b50610336610f47565b34801561052e57600080fd5b5061033661053d366004614351565b610f52565b34801561054e57600080fd5b5061056261055d36600461402f565b610fc8565b60405161031891906143ce565b34801561057b57600080fd5b5061030c61058a36600461440f565b611124565b34801561059b57600080fd5b506103366105aa3660046142c1565b611161565b3480156105bb57600080fd5b506103996112d6565b3480156105d057600080fd5b506105fe6105df36600461402f565b6000908152600960205260409020805460018201546002909201549092565b60408051938452602084019290925290820152606001610318565b34801561062557600080fd5b5060408051808201909152600181527f31000000000000000000000000000000000000000000000000000000000000006020820152610399565b34801561066b57600080fd5b5061033661067a36600461443b565b6113c3565b34801561068b57600080fd5b5061033661069a36600461445e565b6113ec565b3480156106ab57600080fd5b506103366106ba36600461402f565b611436565b3480156106cb57600080fd5b506102e56106da36600461402f565b611527565b3480156106eb57600080fd5b506103366106fa3660046144e2565b6115b0565b34801561070b57600080fd5b5061033661071a36600461453c565b6115f8565b34801561072b57600080fd5b50610734611be3565b604051610318979695949392919061462c565b34801561075357600080fd5b5061075c611c87565b60405165ffffffffffff9091168152602001610318565b34801561077f57600080fd5b506064610336565b34801561079357600080fd5b506103366107a23660046146b5565b611d3b565b3480156107b357600080fd5b50610336611d52565b3480156107c857600080fd5b50610336611d91565b3480156107dd57600080fd5b5061045e6107ec36600461470c565b7fbc197c810000000000000000000000000000000000000000000000000000000095945050505050565b34801561082257600080fd5b5061033661083136600461402f565b60009081526003602052604090206001015467ffffffffffffffff1690565b6102e561085e36600461479c565b611d9c565b34801561086f57600080fd5b5061033661087e3660046142c1565b611eba565b34801561088f57600080fd5b506040805180820190915260208082527f737570706f72743d627261766f2671756f72756d3d666f722c6162737461696e90820152610399565b3480156108d557600080fd5b506103367f150214d74d59b7d1e90c73fc22ef3d991dd0a76b046543d4d80ab92d2a50328f81565b34801561090957600080fd5b506102e561091836600461402f565b611f12565b34801561092957600080fd5b506103366109383660046147de565b611f9b565b34801561094957600080fd5b506102e561095836600461402f565b611fbc565b34801561096957600080fd5b5061045e610978366004614808565b7ff23a6e610000000000000000000000000000000000000000000000000000000095945050505050565b3480156109ae57600080fd5b506103366109bd36600461402f565b612045565b3480156109ce57600080fd5b506103f57f000000000000000000000000000000000000000000000000000000000000000081565b60007f51159c06000000000000000000000000000000000000000000000000000000007fc6fba1f8000000000000000000000000000000000000000000000000000000007fbf26d897000000000000000000000000000000000000000000000000000000007f79dd796f000000000000000000000000000000000000000000000000000000007fffffffff000000000000000000000000000000000000000000000000000000008616821480610ad057507fffffffff00000000000000000000000000000000000000000000000000000000868116908216145b80610aff57507fffffffff00000000000000000000000000000000000000000000000000000000868116908516145b80610b4b57507fffffffff0000000000000000000000000000000000000000000000000000000086167f4e2312e000000000000000000000000000000000000000000000000000000000145b80610b9757507f01ffc9a7000000000000000000000000000000000000000000000000000000007fffffffff000000000000000000000000000000000000000000000000000000008716145b9695505050505050565b6000610bac60075490565b905090565b600080610c55610c4d7fb3b3f3b703cd84ce352197dcff232b1b5d3cfb2025ce47cf04742d0651f1af888c8c8c8c604051610bed92919061486d565b60405180910390208b80519060200120604051602001610c32959493929190948552602085019390935260ff9190911660408401526060830152608082015260a00190565b604051602081830303815290604052805190602001206122dc565b868686612324565b9050610c9b8a828b8b8b8080601f0160208091040260200160405190810160405280939291908181526020018383808284376000920191909152508d9250612342915050565b9a9950505050505050505050565b333014610d12576040517f08c379a000000000000000000000000000000000000000000000000000000000815260206004820152601860248201527f476f7665726e6f723a206f6e6c79476f7665726e616e6365000000000000000060448201526064016102dc565b610d29565b80610d2260046124e6565b03610d1757505b610d32816125a3565b50565b606060028054610d449061487d565b80601f0160208091040260200160405190810160405280929190818152602001828054610d709061487d565b8015610dbd5780601f10610d9257610100808354040283529160200191610dbd565b820191906000526020600020905b815481529060010190602001808311610da057829003601f168201915b5050505050905090565b600080610dd686868686611eba565b90506000610de382610fc8565b90506004816007811115610df957610df961439f565b1480610e1657506005816007811115610e1457610e1461439f565b145b610ea2576040517f08c379a000000000000000000000000000000000000000000000000000000000815260206004820152602160248201527f476f7665726e6f723a2070726f706f73616c206e6f742073756363657373667560448201527f6c0000000000000000000000000000000000000000000000000000000000000060648201526084016102dc565b6000828152600360205260409081902060020180547fffffffffffffffffffffffffffffffffffffffffffffffffffffffffffffff00166001179055517f712ae1383f79ac853f8d882153778e0260ef8f03b504e2866e0593e04d2b291f90610f0e9084815260200190565b60405180910390a1610f23828888888861275b565b610f308288888888612802565b610f3d828888888861275b565b5095945050505050565b6000610bac60065490565b604080517f150214d74d59b7d1e90c73fc22ef3d991dd0a76b046543d4d80ab92d2a50328f602082015290810186905260ff851660608201526000908190610fa090610c4d90608001610c32565b9050610fbd87828860405180602001604052806000815250612905565b979650505050505050565b6000818152600360205260408120600281015460ff1615610fec5750600792915050565b6002810154610100900460ff16156110075750600292915050565b60008381526003602052604081205467ffffffffffffffff169081900361108a576040517f08c379a000000000000000000000000000000000000000000000000000000000815260206004820152601d60248201527f476f7665726e6f723a20756e6b6e6f776e2070726f706f73616c20696400000060448201526064016102dc565b6000611094611c87565b65ffffffffffff1690508082106110b057506000949350505050565b60008581526003602052604090206001015467ffffffffffffffff168181106110df5750600195945050505050565b6110e886612931565b8015611107575060008681526009602052604090208054600190910154115b156111185750600495945050505050565b50600395945050505050565b600082815260096020908152604080832073ffffffffffffffffffffffffffffffffffffffff8516845260030190915290205460ff165b92915050565b60008061117086868686611eba565b9050600061117d82610fc8565b600781111561118e5761118e61439f565b146111f5576040517f08c379a000000000000000000000000000000000000000000000000000000000815260206004820152601c60248201527f476f7665726e6f723a20746f6f206c61746520746f2063616e63656c0000000060448201526064016102dc565b60008181526003602052604090205468010000000000000000900473ffffffffffffffffffffffffffffffffffffffff163373ffffffffffffffffffffffffffffffffffffffff16146112ca576040517f08c379a000000000000000000000000000000000000000000000000000000000815260206004820152602260248201527f476f7665726e6f723a206f6e6c792070726f706f7365722063616e2063616e6360448201527f656c00000000000000000000000000000000000000000000000000000000000060648201526084016102dc565b610b978686868661297e565b60607f000000000000000000000000000000000000000000000000000000000000000073ffffffffffffffffffffffffffffffffffffffff16634bf5d7e96040518163ffffffff1660e01b8152600401600060405180830381865afa92505050801561138257506040513d6000823e601f3d9081017fffffffffffffffffffffffffffffffffffffffffffffffffffffffffffffffe016820160405261137f91908101906148d0565b60015b6113be575060408051808201909152601d81527f6d6f64653d626c6f636b6e756d6265722666726f6d3d64656661756c74000000602082015290565b919050565b6000803390506113e484828560405180602001604052806000815250612905565b949350505050565b600080339050610fbd87828888888080601f0160208091040260200160405190810160405280939291908181526020018383808284376000920191909152508a9250612342915050565b600b5460009080820361144d575050600a54919050565b6000600b61145c60018461496d565b8154811061146c5761146c614980565b60009182526020918290206040805180820190915291015463ffffffff81168083526401000000009091047bffffffffffffffffffffffffffffffffffffffffffffffffffffffff1692820192909252915084106114ed57602001517bffffffffffffffffffffffffffffffffffffffffffffffffffffffff169392505050565b6115016114f985612136565b600b90612ad3565b7bffffffffffffffffffffffffffffffffffffffffffffffffffffffff16949350505050565b333014611590576040517f08c379a000000000000000000000000000000000000000000000000000000000815260206004820152601860248201527f476f7665726e6f723a206f6e6c79476f7665726e616e6365000000000000000060448201526064016102dc565b6115a7565b806115a060046124e6565b0361159557505b610d3281612b8e565b600080339050610b9786828787878080601f01602080910402602001604051908101604052809392919081815260200183838082843760009201919091525061290592505050565b6000336116058184612bcf565b61166b576040517f08c379a000000000000000000000000000000000000000000000000000000000815260206004820152601d60248201527f476f7665726e6f723a2070726f706f736572207265737472696374656400000060448201526064016102dc565b6000611675611c87565b65ffffffffffff169050611687611d91565b6116968361093860018561496d565b1015611724576040517f08c379a000000000000000000000000000000000000000000000000000000000815260206004820152603160248201527f476f7665726e6f723a2070726f706f73657220766f7465732062656c6f77207060448201527f726f706f73616c207468726573686f6c6400000000000000000000000000000060648201526084016102dc565b60006117398888888880519060200120611eba565b905086518851146117cc576040517f08c379a000000000000000000000000000000000000000000000000000000000815260206004820152602160248201527f476f7665726e6f723a20696e76616c69642070726f706f73616c206c656e677460448201527f680000000000000000000000000000000000000000000000000000000000000060648201526084016102dc565b855188511461185d576040517f08c379a000000000000000000000000000000000000000000000000000000000815260206004820152602160248201527f476f7665726e6f723a20696e76616c69642070726f706f73616c206c656e677460448201527f680000000000000000000000000000000000000000000000000000000000000060648201526084016102dc565b60008851116118c8576040517f08c379a000000000000000000000000000000000000000000000000000000000815260206004820152601860248201527f476f7665726e6f723a20656d7074792070726f706f73616c000000000000000060448201526064016102dc565b60008181526003602052604090205467ffffffffffffffff161561196e576040517f08c379a000000000000000000000000000000000000000000000000000000000815260206004820152602160248201527f476f7665726e6f723a2070726f706f73616c20616c726561647920657869737460448201527f730000000000000000000000000000000000000000000000000000000000000060648201526084016102dc565b6000611978610f47565b61198290846149af565b9050600061198e610ba1565b61199890836149af565b90506040518060e001604052806119ae84612d46565b67ffffffffffffffff16815273ffffffffffffffffffffffffffffffffffffffff87166020820152600060408201526060016119e983612d46565b67ffffffffffffffff9081168252600060208084018290526040808501839052606094850183905288835260038252918290208551815492870151878501519186167fffffffff00000000000000000000000000000000000000000000000000000000909416939093176801000000000000000073ffffffffffffffffffffffffffffffffffffffff9094168402177bffffffffffffffffffffffffffffffffffffffffffffffffffffffff167c010000000000000000000000000000000000000000000000000000000060e09290921c91909102178155938501516080860151908416921c0217600183015560a08301516002909201805460c0909401517fffffffffffffffffffffffffffffffffffffffffffffffffffffffffffff00009094169215157fffffffffffffffffffffffffffffffffffffffffffffffffffffffffffff00ff1692909217610100931515939093029290921790558a517f7d84a6263ae0d98d3329bd7b46bb4e8d6f98cd35a7adb45c274c8b7fd5ebd5e091859188918e918e91811115611b8057611b80613e66565b604051908082528060200260200182016040528015611bb357816020015b6060815260200190600190039081611b9e5790505b508d88888f604051611bcd99989796959493929190614a5d565b60405180910390a1509098975050505050505050565b600060608082808083611c167f000000000000000000000000000000000000000000000000000000000000000083612de0565b611c417f00000000000000000000000000000000000000000000000000000000000000006001612de0565b604080516000808252602082019092527f0f000000000000000000000000000000000000000000000000000000000000009b939a50919850469750309650945092509050565b60007f000000000000000000000000000000000000000000000000000000000000000073ffffffffffffffffffffffffffffffffffffffff166391ddadf46040518163ffffffff1660e01b8152600401602060405180830381865afa925050508015611d2e575060408051601f3d9081017fffffffffffffffffffffffffffffffffffffffffffffffffffffffffffffffe0168201909252611d2b91810190614b60565b60015b6113be57610bac43612244565b6000611d48848484612e84565b90505b9392505050565b600b5460009015611d8a57611d67600b6121e7565b7bffffffffffffffffffffffffffffffffffffffffffffffffffffffff16905090565b50600a5490565b6000610bac60085490565b333014611e05576040517f08c379a000000000000000000000000000000000000000000000000000000000815260206004820152601860248201527f476f7665726e6f723a206f6e6c79476f7665726e616e6365000000000000000060448201526064016102dc565b611e1c565b80611e1560046124e6565b03611e0a57505b6000808573ffffffffffffffffffffffffffffffffffffffff16858585604051611e4792919061486d565b60006040518083038185875af1925050503d8060008114611e84576040519150601f19603f3d011682016040523d82523d6000602084013e611e89565b606091505b5091509150611eb18282604051806060016040528060288152602001614ed760289139612f40565b50505050505050565b600084848484604051602001611ed39493929190614b88565b604080517fffffffffffffffffffffffffffffffffffffffffffffffffffffffffffffffe0818403018152919052805160209091012095945050505050565b333014611f7b576040517f08c379a000000000000000000000000000000000000000000000000000000000815260206004820152601860248201527f476f7665726e6f723a206f6e6c79476f7665726e616e6365000000000000000060448201526064016102dc565b611f92565b80611f8b60046124e6565b03611f8057505b610d3281612f59565b6000611d4b8383611fb760408051602081019091526000815290565b612e84565b333014612025576040517f08c379a000000000000000000000000000000000000000000000000000000000815260206004820152601860248201527f476f7665726e6f723a206f6e6c79476f7665726e616e6365000000000000000060448201526064016102dc565b61203c565b8061203560046124e6565b0361202a57505b610d328161302a565b600061115b8261306b565b600060208351101561206c576120658361313b565b905061115b565b816120778482614c1e565b5060ff905061115b565b90565b60007bffffffffffffffffffffffffffffffffffffffffffffffffffffffff821115612132576040517f08c379a000000000000000000000000000000000000000000000000000000000815260206004820152602760248201527f53616665436173743a2076616c756520646f65736e27742066697420696e203260448201527f323420626974730000000000000000000000000000000000000000000000000060648201526084016102dc565b5090565b600063ffffffff821115612132576040517f08c379a000000000000000000000000000000000000000000000000000000000815260206004820152602660248201527f53616665436173743a2076616c756520646f65736e27742066697420696e203360448201527f322062697473000000000000000000000000000000000000000000000000000060648201526084016102dc565b6000806121da858585613192565b915091505b935093915050565b8054600090801561223b5761220f8361220160018461496d565b600091825260209091200190565b5464010000000090047bffffffffffffffffffffffffffffffffffffffffffffffffffffffff16611d4b565b60009392505050565b600065ffffffffffff821115612132576040517f08c379a000000000000000000000000000000000000000000000000000000000815260206004820152602660248201527f53616665436173743a2076616c756520646f65736e27742066697420696e203460448201527f382062697473000000000000000000000000000000000000000000000000000060648201526084016102dc565b600061115b6122e96133a3565b836040517f19010000000000000000000000000000000000000000000000000000000000008152600281019290925260228201526042902090565b6000806000612335878787876134db565b91509150610f3d816135ca565b6000858152600360205260408120600161235b88610fc8565b600781111561236c5761236c61439f565b146123f9576040517f08c379a000000000000000000000000000000000000000000000000000000000815260206004820152602360248201527f476f7665726e6f723a20766f7465206e6f742063757272656e746c792061637460448201527f697665000000000000000000000000000000000000000000000000000000000060648201526084016102dc565b805460009061241490889067ffffffffffffffff1686612e84565b9050612423888888848861377d565b8351600003612485578673ffffffffffffffffffffffffffffffffffffffff167fb8e138887d0aa13bab447e82de9d5c1777041ecd21ca36ba824ff1e6c07ddda4898884896040516124789493929190614d38565b60405180910390a2610fbd565b8673ffffffffffffffffffffffffffffffffffffffff167fe2babfbac5889a709b63bb7f598b324e08bc5a4fb9ec647fb3cbc9ec07eb871289888489896040516124d3959493929190614d60565b60405180910390a2979650505050505050565b600061250e8254600f81810b700100000000000000000000000000000000909204900b131590565b15612545576040517f3db2a12a00000000000000000000000000000000000000000000000000000000815260040160405180910390fd5b508054600f0b6000818152600180840160205260408220805492905583547fffffffffffffffffffffffffffffffff000000000000000000000000000000001692016fffffffffffffffffffffffffffffffff169190911790915590565b606481111561265a576040517f08c379a000000000000000000000000000000000000000000000000000000000815260206004820152604360248201527f476f7665726e6f72566f74657351756f72756d4672616374696f6e3a2071756f60448201527f72756d4e756d657261746f72206f7665722071756f72756d44656e6f6d696e6160648201527f746f720000000000000000000000000000000000000000000000000000000000608482015260a4016102dc565b6000612664611d52565b905080158015906126755750600b54155b156126ef576040805180820190915260008152600b906020810161269884612084565b7bffffffffffffffffffffffffffffffffffffffffffffffffffffffff90811690915282546001810184556000938452602093849020835194909301519091166401000000000263ffffffff909316929092179101555b61271c61270a6126fd611c87565b65ffffffffffff16612136565b61271384612084565b600b91906121cc565b505060408051828152602081018490527f0553476bf02ef2726e8ce5ced78d63e26e602e4a2257b1f559418e24b4633997910160405180910390a15050565b6127fb565b84518110156127f9573073ffffffffffffffffffffffffffffffffffffffff1685828151811061279257612792614980565b602002602001015173ffffffffffffffffffffffffffffffffffffffff16036127e9576127e98382815181106127ca576127ca614980565b60200260200101518051906020012060046139bd90919063ffffffff16565b6127f281614da6565b9050612760565b505b5050505050565b6000604051806060016040528060278152602001614eff60279139905060005b8551811015611eb15760008087838151811061284057612840614980565b602002602001015173ffffffffffffffffffffffffffffffffffffffff1687848151811061287057612870614980565b602002602001015187858151811061288a5761288a614980565b602002602001015160405161289f9190614dde565b60006040518083038185875af1925050503d80600081146128dc576040519150601f19603f3d011682016040523d82523d6000602084013e6128e1565b606091505b50915091506128f1828286612f40565b505050806128fe90614da6565b9050612822565b60006129288585858561292360408051602081019091526000815290565b612342565b95945050505050565b60008181526009602052604081206002810154600182015461295391906149af565b6000848152600360205260409020546129759067ffffffffffffffff16612045565b11159392505050565b60008061298d86868686611eba565b9050600061299a82610fc8565b905060028160078111156129b0576129b061439f565b141580156129d0575060068160078111156129cd576129cd61439f565b14155b80156129ee575060078160078111156129eb576129eb61439f565b14155b612a54576040517f08c379a000000000000000000000000000000000000000000000000000000000815260206004820152601d60248201527f476f7665726e6f723a2070726f706f73616c206e6f742061637469766500000060448201526064016102dc565b6000828152600360205260409081902060020180547fffffffffffffffffffffffffffffffffffffffffffffffffffffffffffff00ff16610100179055517f789cf55be980739dad1d0699b93b58e806b51c9d96619bfa8fe0a28abaa7b30c90612ac19084815260200190565b60405180910390a15095945050505050565b815460009081816005811115612b30576000612aee84613a0f565b612af8908561496d565b60008881526020902090915081015463ffffffff9081169087161015612b2057809150612b2e565b612b2b8160016149af565b92505b505b6000612b3e87878585613af7565b90508015612b8157612b558761220160018461496d565b5464010000000090047bffffffffffffffffffffffffffffffffffffffffffffffffffffffff16610fbd565b6000979650505050505050565b60065460408051918252602082018390527fc565b045403dc03c2eea82b81a0465edad9e2e7fc4d97e11421c209da93d7a93910160405180910390a1600655565b80516000906034811015612be757600191505061115b565b8281017fffffffffffffffffffffffffffffffffffffffffffffffffffffffffffffffec01517fffffffffffffffffffffffff000000000000000000000000000000000000000081167f2370726f706f7365723d3078000000000000000000000000000000000000000014612c615760019250505061115b565b600080612c6f60288561496d565b90505b83811015612d0b57600080612cbe888481518110612c9257612c92614980565b01602001517fff0000000000000000000000000000000000000000000000000000000000000016613b55565b9150915081612cd6576001965050505050505061115b565b8060ff1660048573ffffffffffffffffffffffffffffffffffffffff16901b179350505080612d0490614da6565b9050612c72565b508573ffffffffffffffffffffffffffffffffffffffff168173ffffffffffffffffffffffffffffffffffffffff1614935050505092915050565b600067ffffffffffffffff821115612132576040517f08c379a000000000000000000000000000000000000000000000000000000000815260206004820152602660248201527f53616665436173743a2076616c756520646f65736e27742066697420696e203660448201527f342062697473000000000000000000000000000000000000000000000000000060648201526084016102dc565b606060ff8314612df35761206583613c41565b818054612dff9061487d565b80601f0160208091040260200160405190810160405280929190818152602001828054612e2b9061487d565b8015612e785780601f10612e4d57610100808354040283529160200191612e78565b820191906000526020600020905b815481529060010190602001808311612e5b57829003601f168201915b5050505050905061115b565b6040517f3a46b1a800000000000000000000000000000000000000000000000000000000815273ffffffffffffffffffffffffffffffffffffffff8481166004830152602482018490526000917f000000000000000000000000000000000000000000000000000000000000000090911690633a46b1a890604401602060405180830381865afa158015612f1c573d6000803e3d6000fd5b505050506040513d601f19601f82011682018060405250810190611d489190614dfa565b60608315612f4f575081611d4b565b611d4b8383613c80565b60008111612fe9576040517f08c379a000000000000000000000000000000000000000000000000000000000815260206004820152602760248201527f476f7665726e6f7253657474696e67733a20766f74696e6720706572696f642060448201527f746f6f206c6f770000000000000000000000000000000000000000000000000060648201526084016102dc565b60075460408051918252602082018390527f7e3f7f0708a84de9203036abaa450dccc85ad5ff52f78c170f3edb55cf5e8828910160405180910390a1600755565b60085460408051918252602082018390527fccb45da8d5717e6c4544694297c4ba5cf151d455c9bb0ed4fc7a38411bc05461910160405180910390a1600855565b6000606461307883611436565b6040517f8e539e8c000000000000000000000000000000000000000000000000000000008152600481018590527f000000000000000000000000000000000000000000000000000000000000000073ffffffffffffffffffffffffffffffffffffffff1690638e539e8c90602401602060405180830381865afa158015613103573d6000803e3d6000fd5b505050506040513d601f19601f820116820180604052508101906131279190614dfa565b6131319190614e13565b61115b9190614e59565b600080829050601f8151111561317f57826040517f305a27a90000000000000000000000000000000000000000000000000000000081526004016102dc91906140b6565b805161318a82614e94565b179392505050565b8254600090819080156133345760006131b08761220160018561496d565b60408051808201909152905463ffffffff8082168084526401000000009092047bffffffffffffffffffffffffffffffffffffffffffffffffffffffff1660208401529192509087161015613261576040517f08c379a000000000000000000000000000000000000000000000000000000000815260206004820152601b60248201527f436865636b706f696e743a2064656372656173696e67206b657973000000000060448201526064016102dc565b805163ffffffff8088169116036132bf57846132828861220160018661496d565b80547bffffffffffffffffffffffffffffffffffffffffffffffffffffffff929092166401000000000263ffffffff909216919091179055613324565b6040805180820190915263ffffffff80881682527bffffffffffffffffffffffffffffffffffffffffffffffffffffffff80881660208085019182528b54600181018d5560008d81529190912094519151909216640100000000029216919091179101555b6020015192508391506121df9050565b50506040805180820190915263ffffffff80851682527bffffffffffffffffffffffffffffffffffffffffffffffffffffffff80851660208085019182528854600181018a5560008a8152918220955192519093166401000000000291909316179201919091559050816121df565b60003073ffffffffffffffffffffffffffffffffffffffff7f00000000000000000000000000000000000000000000000000000000000000001614801561340957507f000000000000000000000000000000000000000000000000000000000000000046145b1561343357507f000000000000000000000000000000000000000000000000000000000000000090565b610bac604080517f8b73c3c69bb8fe3d512ecc4cf759cc79239f7b179b0ffacaa9a75d522b39400f60208201527f0000000000000000000000000000000000000000000000000000000000000000918101919091527f000000000000000000000000000000000000000000000000000000000000000060608201524660808201523060a082015260009060c00160405160208183030381529060405280519060200120905090565b6000807f7fffffffffffffffffffffffffffffff5d576e7357a4501ddfe92f46681b20a083111561351257506000905060036135c1565b6040805160008082526020820180845289905260ff881692820192909252606081018690526080810185905260019060a0016020604051602081039080840390855afa158015613566573d6000803e3d6000fd5b50506040517fffffffffffffffffffffffffffffffffffffffffffffffffffffffffffffffe0015191505073ffffffffffffffffffffffffffffffffffffffff81166135ba576000600192509250506135c1565b9150600090505b94509492505050565b60008160048111156135de576135de61439f565b036135e65750565b60018160048111156135fa576135fa61439f565b03613661576040517f08c379a000000000000000000000000000000000000000000000000000000000815260206004820152601860248201527f45434453413a20696e76616c6964207369676e6174757265000000000000000060448201526064016102dc565b60028160048111156136755761367561439f565b036136dc576040517f08c379a000000000000000000000000000000000000000000000000000000000815260206004820152601f60248201527f45434453413a20696e76616c6964207369676e6174757265206c656e6774680060448201526064016102dc565b60038160048111156136f0576136f061439f565b03610d32576040517f08c379a000000000000000000000000000000000000000000000000000000000815260206004820152602260248201527f45434453413a20696e76616c6964207369676e6174757265202773272076616c60448201527f756500000000000000000000000000000000000000000000000000000000000060648201526084016102dc565b600085815260096020908152604080832073ffffffffffffffffffffffffffffffffffffffff88168452600381019092529091205460ff1615613842576040517f08c379a000000000000000000000000000000000000000000000000000000000815260206004820152602760248201527f476f7665726e6f72566f74696e6753696d706c653a20766f746520616c72656160448201527f647920636173740000000000000000000000000000000000000000000000000060648201526084016102dc565b73ffffffffffffffffffffffffffffffffffffffff85166000908152600382016020526040902080547fffffffffffffffffffffffffffffffffffffffffffffffffffffffffffffff0016600117905560ff84166138b957828160000160008282546138ae91906149af565b909155506127f99050565b7fffffffffffffffffffffffffffffffffffffffffffffffffffffffffffffffff60ff8516016138f757828160010160008282546138ae91906149af565b7ffffffffffffffffffffffffffffffffffffffffffffffffffffffffffffffffe60ff85160161393557828160020160008282546138ae91906149af565b6040517f08c379a000000000000000000000000000000000000000000000000000000000815260206004820152603560248201527f476f7665726e6f72566f74696e6753696d706c653a20696e76616c696420766160448201527f6c756520666f7220656e756d20566f746554797065000000000000000000000060648201526084016102dc565b815470010000000000000000000000000000000090819004600f0b6000818152600180860160205260409091209390935583546fffffffffffffffffffffffffffffffff908116939091011602179055565b600081600003613a2157506000919050565b60006001613a2e84613cc4565b901c6001901b90506001818481613a4757613a47614e2a565b048201901c90506001818481613a5f57613a5f614e2a565b048201901c90506001818481613a7757613a77614e2a565b048201901c90506001818481613a8f57613a8f614e2a565b048201901c90506001818481613aa757613aa7614e2a565b048201901c90506001818481613abf57613abf614e2a565b048201901c90506001818481613ad757613ad7614e2a565b048201901c9050611d4b81828581613af157613af1614e2a565b04613d58565b60005b81831015613b4d576000613b0e8484613d6e565b60008781526020902090915063ffffffff86169082015463ffffffff161115613b3957809250613b47565b613b448160016149af565b93505b50613afa565b509392505050565b60008060f883901c602f81118015613b705750603a8160ff16105b15613ba3576001947fffffffffffffffffffffffffffffffffffffffffffffffffffffffffffffffd09091019350915050565b8060ff166040108015613bb9575060478160ff16105b15613bec576001947fffffffffffffffffffffffffffffffffffffffffffffffffffffffffffffffc99091019350915050565b8060ff166060108015613c02575060678160ff16105b15613c35576001947fffffffffffffffffffffffffffffffffffffffffffffffffffffffffffffffa99091019350915050565b50600093849350915050565b60606000613c4e83613d89565b604080516020808252818301909252919250600091906020820181803683375050509182525060208101929092525090565b815115613c905781518083602001fd5b806040517f08c379a00000000000000000000000000000000000000000000000000000000081526004016102dc91906140b6565b600080608083901c15613cd957608092831c92015b604083901c15613ceb57604092831c92015b602083901c15613cfd57602092831c92015b601083901c15613d0f57601092831c92015b600883901c15613d2157600892831c92015b600483901c15613d3357600492831c92015b600283901c15613d4557600292831c92015b600183901c1561115b5760010192915050565b6000818310613d675781611d4b565b5090919050565b6000613d7d6002848418614e59565b611d4b908484166149af565b600060ff8216601f81111561115b576040517fb3512b0c00000000000000000000000000000000000000000000000000000000815260040160405180910390fd5b600060208284031215613ddc57600080fd5b81357fffffffff0000000000000000000000000000000000000000000000000000000081168114611d4b57600080fd5b803560ff811681146113be57600080fd5b60008083601f840112613e2f57600080fd5b50813567ffffffffffffffff811115613e4757600080fd5b602083019150836020828501011115613e5f57600080fd5b9250929050565b7f4e487b7100000000000000000000000000000000000000000000000000000000600052604160045260246000fd5b604051601f82017fffffffffffffffffffffffffffffffffffffffffffffffffffffffffffffffe016810167ffffffffffffffff81118282101715613edc57613edc613e66565b604052919050565b600067ffffffffffffffff821115613efe57613efe613e66565b50601f017fffffffffffffffffffffffffffffffffffffffffffffffffffffffffffffffe01660200190565b6000613f3d613f3884613ee4565b613e95565b9050828152838383011115613f5157600080fd5b828260208301376000602084830101529392505050565b600082601f830112613f7957600080fd5b611d4b83833560208501613f2a565b60008060008060008060008060e0898b031215613fa457600080fd5b88359750613fb460208a01613e0c565b9650604089013567ffffffffffffffff80821115613fd157600080fd5b613fdd8c838d01613e1d565b909850965060608b0135915080821115613ff657600080fd5b506140038b828c01613f68565b94505061401260808a01613e0c565b925060a0890135915060c089013590509295985092959890939650565b60006020828403121561404157600080fd5b5035919050565b60005b8381101561406357818101518382015260200161404b565b50506000910152565b60008151808452614084816020860160208601614048565b601f017fffffffffffffffffffffffffffffffffffffffffffffffffffffffffffffffe0169290920160200192915050565b602081526000611d4b602083018461406c565b803573ffffffffffffffffffffffffffffffffffffffff811681146113be57600080fd5b6000806000806080858703121561410357600080fd5b61410c856140c9565b935061411a602086016140c9565b925060408501359150606085013567ffffffffffffffff81111561413d57600080fd5b61414987828801613f68565b91505092959194509250565b600067ffffffffffffffff82111561416f5761416f613e66565b5060051b60200190565b600082601f83011261418a57600080fd5b8135602061419a613f3883614155565b82815260059290921b840181019181810190868411156141b957600080fd5b8286015b848110156141db576141ce816140c9565b83529183019183016141bd565b509695505050505050565b600082601f8301126141f757600080fd5b81356020614207613f3883614155565b82815260059290921b8401810191818101908684111561422657600080fd5b8286015b848110156141db578035835291830191830161422a565b600082601f83011261425257600080fd5b81356020614262613f3883614155565b82815260059290921b8401810191818101908684111561428157600080fd5b8286015b848110156141db57803567ffffffffffffffff8111156142a55760008081fd5b6142b38986838b0101613f68565b845250918301918301614285565b600080600080608085870312156142d757600080fd5b843567ffffffffffffffff808211156142ef57600080fd5b6142fb88838901614179565b9550602087013591508082111561431157600080fd5b61431d888389016141e6565b9450604087013591508082111561433357600080fd5b5061434087828801614241565b949793965093946060013593505050565b600080600080600060a0868803121561436957600080fd5b8535945061437960208701613e0c565b935061438760408701613e0c565b94979396509394606081013594506080013592915050565b7f4e487b7100000000000000000000000000000000000000000000000000000000600052602160045260246000fd5b6020810160088310614409577f4e487b7100000000000000000000000000000000000000000000000000000000600052602160045260246000fd5b91905290565b6000806040838503121561442257600080fd5b82359150614432602084016140c9565b90509250929050565b6000806040838503121561444e57600080fd5b8235915061443260208401613e0c565b60008060008060006080868803121561447657600080fd5b8535945061448660208701613e0c565b9350604086013567ffffffffffffffff808211156144a357600080fd5b6144af89838a01613e1d565b909550935060608801359150808211156144c857600080fd5b506144d588828901613f68565b9150509295509295909350565b600080600080606085870312156144f857600080fd5b8435935061450860208601613e0c565b9250604085013567ffffffffffffffff81111561452457600080fd5b61453087828801613e1d565b95989497509550505050565b6000806000806080858703121561455257600080fd5b843567ffffffffffffffff8082111561456a57600080fd5b61457688838901614179565b9550602087013591508082111561458c57600080fd5b614598888389016141e6565b945060408701359150808211156145ae57600080fd5b6145ba88838901614241565b935060608701359150808211156145d057600080fd5b508501601f810187136145e257600080fd5b61414987823560208401613f2a565b600081518084526020808501945080840160005b8381101561462157815187529582019590820190600101614605565b509495945050505050565b7fff000000000000000000000000000000000000000000000000000000000000008816815260e06020820152600061466760e083018961406c565b8281036040840152614679818961406c565b905086606084015273ffffffffffffffffffffffffffffffffffffffff861660808401528460a084015282810360c0840152610c9b81856145f1565b6000806000606084860312156146ca57600080fd5b6146d3846140c9565b925060208401359150604084013567ffffffffffffffff8111156146f657600080fd5b61470286828701613f68565b9150509250925092565b600080600080600060a0868803121561472457600080fd5b61472d866140c9565b945061473b602087016140c9565b9350604086013567ffffffffffffffff8082111561475857600080fd5b61476489838a016141e6565b9450606088013591508082111561477a57600080fd5b61478689838a016141e6565b935060808801359150808211156144c857600080fd5b600080600080606085870312156147b257600080fd5b6147bb856140c9565b935060208501359250604085013567ffffffffffffffff81111561452457600080fd5b600080604083850312156147f157600080fd5b6147fa836140c9565b946020939093013593505050565b600080600080600060a0868803121561482057600080fd5b614829866140c9565b9450614837602087016140c9565b93506040860135925060608601359150608086013567ffffffffffffffff81111561486157600080fd5b6144d588828901613f68565b8183823760009101908152919050565b600181811c9082168061489157607f821691505b6020821081036148ca577f4e487b7100000000000000000000000000000000000000000000000000000000600052602260045260246000fd5b50919050565b6000602082840312156148e257600080fd5b815167ffffffffffffffff8111156148f957600080fd5b8201601f8101841361490a57600080fd5b8051614918613f3882613ee4565b81815285602083850101111561492d57600080fd5b612928826020830160208601614048565b7f4e487b7100000000000000000000000000000000000000000000000000000000600052601160045260246000fd5b8181038181111561115b5761115b61493e565b7f4e487b7100000000000000000000000000000000000000000000000000000000600052603260045260246000fd5b8082018082111561115b5761115b61493e565b600081518084526020808501945080840160005b8381101561462157815173ffffffffffffffffffffffffffffffffffffffff16875295820195908201906001016149d6565b600081518084526020808501808196508360051b8101915082860160005b85811015614a50578284038952614a3e84835161406c565b98850198935090840190600101614a26565b5091979650505050505050565b60006101208b8352602073ffffffffffffffffffffffffffffffffffffffff8c1681850152816040850152614a948285018c6149c2565b91508382036060850152614aa8828b6145f1565b915083820360808501528189518084528284019150828160051b850101838c0160005b83811015614b17577fffffffffffffffffffffffffffffffffffffffffffffffffffffffffffffffe0878403018552614b0583835161406c565b94860194925090850190600101614acb565b505086810360a0880152614b2b818c614a08565b9450505050508560c08401528460e0840152828103610100840152614b50818561406c565b9c9b505050505050505050505050565b600060208284031215614b7257600080fd5b815165ffffffffffff81168114611d4b57600080fd5b608081526000614b9b60808301876149c2565b8281036020840152614bad81876145f1565b90508281036040840152614bc18186614a08565b91505082606083015295945050505050565b601f821115614c1957600081815260208120601f850160051c81016020861015614bfa5750805b601f850160051c820191505b818110156127f957828155600101614c06565b505050565b815167ffffffffffffffff811115614c3857614c38613e66565b614c4c81614c46845461487d565b84614bd3565b602080601f831160018114614c9f5760008415614c695750858301515b7fffffffffffffffffffffffffffffffffffffffffffffffffffffffffffffffff600386901b1c1916600185901b1785556127f9565b6000858152602081207fffffffffffffffffffffffffffffffffffffffffffffffffffffffffffffffe08616915b82811015614cec57888601518255948401946001909101908401614ccd565b5085821015614d2857878501517fffffffffffffffffffffffffffffffffffffffffffffffffffffffffffffffff600388901b60f8161c191681555b5050505050600190811b01905550565b84815260ff84166020820152826040820152608060608201526000610b97608083018461406c565b85815260ff8516602082015283604082015260a060608201526000614d8860a083018561406c565b8281036080840152614d9a818561406c565b98975050505050505050565b60007fffffffffffffffffffffffffffffffffffffffffffffffffffffffffffffffff8203614dd757614dd761493e565b5060010190565b60008251614df0818460208701614048565b9190910192915050565b600060208284031215614e0c57600080fd5b5051919050565b808202811582820484141761115b5761115b61493e565b7f4e487b7100000000000000000000000000000000000000000000000000000000600052601260045260246000fd5b600082614e8f577f4e487b7100000000000000000000000000000000000000000000000000000000600052601260045260246000fd5b500490565b805160208083015191908110156148ca577fffffffffffffffffffffffffffffffffffffffffffffffffffffffffffffffff60209190910360031b1b1691905056fe476f7665726e6f723a2072656c617920726576657274656420776974686f7574206d657373616765476f7665726e6f723a2063616c6c20726576657274656420776974686f7574206d657373616765a26469706673582212208d9fe957e326cc2746c2724443e446d3e358389293851253bb9fe79a06637be164736f6c63430008110033",
  "linkReferences": {},
  "deployedLinkReferences": {}
}