{
  "_format": "hh-sol-artifact-1",
  "contractName": "LSP7MintableInit",
  "sourceName": "contracts/lsp7/presets/LSP7MintableInit.sol",
  "abi": [
    {
      "inputs": [],
      "stateMutability": "nonpayable",
      "type": "constructor"
    },
    {
      "inputs": [],
      "name": "ERC725Y_DataKeysValuesEmptyArray",
      "type": "error"
    },
    {
      "inputs": [],
      "name": "ERC725Y_DataKeysValuesLengthMismatch",
      "type": "error"
    },
    {
      "inputs": [],
      "name": "ERC725Y_MsgValueDisallowed",
      "type": "error"
    },
    {
      "inputs": [
        {
          "internalType": "bytes",
          "name": "storedData",
          "type": "bytes"
        }
      ],
      "name": "InvalidExtensionAddress",
      "type": "error"
    },
    {
      "inputs": [
        {
          "internalType": "bytes",
          "name": "data",
          "type": "bytes"
        }
      ],
      "name": "InvalidFunctionSelector",
      "type": "error"
    },
    {
      "inputs": [],
      "name": "LSP4TokenNameNotEditable",
      "type": "error"
    },
    {
      "inputs": [],
      "name": "LSP4TokenSymbolNotEditable",
      "type": "error"
    },
    {
      "inputs": [],
      "name": "LSP4TokenTypeNotEditable",
      "type": "error"
    },
    {
      "inputs": [
        {
          "internalType": "address",
          "name": "tokenOwner",
          "type": "address"
        },
        {
          "internalType": "uint256",
          "name": "authorizedAmount",
          "type": "uint256"
        },
        {
          "internalType": "address",
          "name": "operator",
          "type": "address"
        },
        {
          "internalType": "uint256",
          "name": "amount",
          "type": "uint256"
        }
      ],
      "name": "LSP7AmountExceedsAuthorizedAmount",
      "type": "error"
    },
    {
      "inputs": [
        {
          "internalType": "uint256",
          "name": "balance",
          "type": "uint256"
        },
        {
          "internalType": "address",
          "name": "tokenOwner",
          "type": "address"
        },
        {
          "internalType": "uint256",
          "name": "amount",
          "type": "uint256"
        }
      ],
      "name": "LSP7AmountExceedsBalance",
      "type": "error"
    },
    {
      "inputs": [
        {
          "internalType": "uint256",
          "name": "callIndex",
          "type": "uint256"
        }
      ],
      "name": "LSP7BatchCallFailed",
      "type": "error"
    },
    {
      "inputs": [],
      "name": "LSP7CannotSendWithAddressZero",
      "type": "error"
    },
    {
      "inputs": [],
      "name": "LSP7CannotUseAddressZeroAsOperator",
      "type": "error"
    },
    {
      "inputs": [
        {
          "internalType": "address",
          "name": "caller",
          "type": "address"
        },
        {
          "internalType": "address",
          "name": "tokenOwner",
          "type": "address"
        },
        {
          "internalType": "address",
          "name": "operator",
          "type": "address"
        }
      ],
      "name": "LSP7DecreaseAllowanceNotAuthorized",
      "type": "error"
    },
    {
      "inputs": [],
      "name": "LSP7DecreasedAllowanceBelowZero",
      "type": "error"
    },
    {
      "inputs": [],
      "name": "LSP7InvalidTransferBatch",
      "type": "error"
    },
    {
      "inputs": [
        {
          "internalType": "address",
          "name": "tokenReceiver",
          "type": "address"
        }
      ],
      "name": "LSP7NotifyTokenReceiverContractMissingLSP1Interface",
      "type": "error"
    },
    {
      "inputs": [
        {
          "internalType": "address",
          "name": "tokenReceiver",
          "type": "address"
        }
      ],
      "name": "LSP7NotifyTokenReceiverIsEOA",
      "type": "error"
    },
    {
      "inputs": [
        {
          "internalType": "address",
          "name": "caller",
          "type": "address"
        },
        {
          "internalType": "address",
          "name": "tokenOwner",
          "type": "address"
        },
        {
          "internalType": "address",
          "name": "operator",
          "type": "address"
        }
      ],
      "name": "LSP7RevokeOperatorNotAuthorized",
      "type": "error"
    },
    {
      "inputs": [],
      "name": "LSP7TokenContractCannotHoldValue",
      "type": "error"
    },
    {
      "inputs": [],
      "name": "LSP7TokenOwnerCannotBeOperator",
      "type": "error"
    },
    {
      "inputs": [
        {
          "internalType": "bytes4",
          "name": "functionSelector",
          "type": "bytes4"
        }
      ],
      "name": "NoExtensionFoundForFunctionSelector",
      "type": "error"
    },
    {
      "inputs": [
        {
          "internalType": "address",
          "name": "operator",
          "type": "address"
        }
      ],
      "name": "OperatorAllowanceCannotBeIncreasedFromZero",
      "type": "error"
    },
    {
      "inputs": [],
      "name": "OwnableCannotSetZeroAddressAsOwner",
      "type": "error"
    },
    {
      "anonymous": false,
      "inputs": [
        {
          "indexed": true,
          "internalType": "bytes32",
          "name": "dataKey",
          "type": "bytes32"
        },
        {
          "indexed": false,
          "internalType": "bytes",
          "name": "dataValue",
          "type": "bytes"
        }
      ],
      "name": "DataChanged",
      "type": "event"
    },
    {
      "anonymous": false,
      "inputs": [
        {
          "indexed": false,
          "internalType": "uint8",
          "name": "version",
          "type": "uint8"
        }
      ],
      "name": "Initialized",
      "type": "event"
    },
    {
      "anonymous": false,
      "inputs": [
        {
          "indexed": true,
          "internalType": "address",
          "name": "operator",
          "type": "address"
        },
        {
          "indexed": true,
          "internalType": "address",
          "name": "tokenOwner",
          "type": "address"
        },
        {
          "indexed": true,
          "internalType": "uint256",
          "name": "amount",
          "type": "uint256"
        },
        {
          "indexed": false,
          "internalType": "bytes",
          "name": "operatorNotificationData",
          "type": "bytes"
        }
      ],
      "name": "OperatorAuthorizationChanged",
      "type": "event"
    },
    {
      "anonymous": false,
      "inputs": [
        {
          "indexed": true,
          "internalType": "address",
          "name": "operator",
          "type": "address"
        },
        {
          "indexed": true,
          "internalType": "address",
          "name": "tokenOwner",
          "type": "address"
        },
        {
          "indexed": true,
          "internalType": "bool",
          "name": "notified",
          "type": "bool"
        },
        {
          "indexed": false,
          "internalType": "bytes",
          "name": "operatorNotificationData",
          "type": "bytes"
        }
      ],
      "name": "OperatorRevoked",
      "type": "event"
    },
    {
      "anonymous": false,
      "inputs": [
        {
          "indexed": true,
          "internalType": "address",
          "name": "previousOwner",
          "type": "address"
        },
        {
          "indexed": true,
          "internalType": "address",
          "name": "newOwner",
          "type": "address"
        }
      ],
      "name": "OwnershipTransferred",
      "type": "event"
    },
    {
      "anonymous": false,
      "inputs": [
        {
          "indexed": true,
          "internalType": "address",
          "name": "operator",
          "type": "address"
        },
        {
          "indexed": true,
          "internalType": "address",
          "name": "from",
          "type": "address"
        },
        {
          "indexed": true,
          "internalType": "address",
          "name": "to",
          "type": "address"
        },
        {
          "indexed": false,
          "internalType": "uint256",
          "name": "amount",
          "type": "uint256"
        },
        {
          "indexed": false,
          "internalType": "bool",
          "name": "force",
          "type": "bool"
        },
        {
          "indexed": false,
          "internalType": "bytes",
          "name": "data",
          "type": "bytes"
        }
      ],
      "name": "Transfer",
      "type": "event"
    },
    {
      "stateMutability": "payable",
      "type": "fallback"
    },
    {
      "inputs": [
        {
          "internalType": "address",
          "name": "operator",
          "type": "address"
        },
        {
          "internalType": "uint256",
          "name": "amount",
          "type": "uint256"
        },
        {
          "internalType": "bytes",
          "name": "operatorNotificationData",
          "type": "bytes"
        }
      ],
      "name": "authorizeOperator",
      "outputs": [],
      "stateMutability": "nonpayable",
      "type": "function"
    },
    {
      "inputs": [
        {
          "internalType": "address",
          "name": "operator",
          "type": "address"
        },
        {
          "internalType": "address",
          "name": "tokenOwner",
          "type": "address"
        }
      ],
      "name": "authorizedAmountFor",
      "outputs": [
        {
          "internalType": "uint256",
          "name": "",
          "type": "uint256"
        }
      ],
      "stateMutability": "view",
      "type": "function"
    },
    {
      "inputs": [
        {
          "internalType": "address",
          "name": "tokenOwner",
          "type": "address"
        }
      ],
      "name": "balanceOf",
      "outputs": [
        {
          "internalType": "uint256",
          "name": "",
          "type": "uint256"
        }
      ],
      "stateMutability": "view",
      "type": "function"
    },
    {
      "inputs": [
        {
          "internalType": "bytes[]",
          "name": "data",
          "type": "bytes[]"
        }
      ],
      "name": "batchCalls",
      "outputs": [
        {
          "internalType": "bytes[]",
          "name": "results",
          "type": "bytes[]"
        }
      ],
      "stateMutability": "nonpayable",
      "type": "function"
    },
    {
      "inputs": [],
      "name": "decimals",
      "outputs": [
        {
          "internalType": "uint8",
          "name": "",
          "type": "uint8"
        }
      ],
      "stateMutability": "view",
      "type": "function"
    },
    {
      "inputs": [
        {
          "internalType": "address",
          "name": "operator",
          "type": "address"
        },
        {
          "internalType": "address",
          "name": "tokenOwner",
          "type": "address"
        },
        {
          "internalType": "uint256",
          "name": "subtractedAmount",
          "type": "uint256"
        },
        {
          "internalType": "bytes",
          "name": "operatorNotificationData",
          "type": "bytes"
        }
      ],
      "name": "decreaseAllowance",
      "outputs": [],
      "stateMutability": "nonpayable",
      "type": "function"
    },
    {
      "inputs": [
        {
          "internalType": "bytes32",
          "name": "dataKey",
          "type": "bytes32"
        }
      ],
      "name": "getData",
      "outputs": [
        {
          "internalType": "bytes",
          "name": "dataValue",
          "type": "bytes"
        }
      ],
      "stateMutability": "view",
      "type": "function"
    },
    {
      "inputs": [
        {
          "internalType": "bytes32[]",
          "name": "dataKeys",
          "type": "bytes32[]"
        }
      ],
      "name": "getDataBatch",
      "outputs": [
        {
          "internalType": "bytes[]",
          "name": "dataValues",
          "type": "bytes[]"
        }
      ],
      "stateMutability": "view",
      "type": "function"
    },
    {
      "inputs": [
        {
          "internalType": "address",
          "name": "tokenOwner",
          "type": "address"
        }
      ],
      "name": "getOperatorsOf",
      "outputs": [
        {
          "internalType": "address[]",
          "name": "",
          "type": "address[]"
        }
      ],
      "stateMutability": "view",
      "type": "function"
    },
    {
      "inputs": [
        {
          "internalType": "address",
          "name": "operator",
          "type": "address"
        },
        {
          "internalType": "uint256",
          "name": "addedAmount",
          "type": "uint256"
        },
        {
          "internalType": "bytes",
          "name": "operatorNotificationData",
          "type": "bytes"
        }
      ],
      "name": "increaseAllowance",
      "outputs": [],
      "stateMutability": "nonpayable",
      "type": "function"
    },
    {
      "inputs": [
        {
          "internalType": "string",
          "name": "name_",
          "type": "string"
        },
        {
          "internalType": "string",
          "name": "symbol_",
          "type": "string"
        },
        {
          "internalType": "address",
          "name": "newOwner_",
          "type": "address"
        },
        {
          "internalType": "uint256",
          "name": "lsp4TokenType_",
          "type": "uint256"
        },
        {
          "internalType": "bool",
          "name": "isNonDivisible_",
          "type": "bool"
        }
      ],
      "name": "initialize",
      "outputs": [],
      "stateMutability": "nonpayable",
      "type": "function"
    },
    {
      "inputs": [
        {
          "internalType": "address",
          "name": "to",
          "type": "address"
        },
        {
          "internalType": "uint256",
          "name": "amount",
          "type": "uint256"
        },
        {
          "internalType": "bool",
          "name": "force",
          "type": "bool"
        },
        {
          "internalType": "bytes",
          "name": "data",
          "type": "bytes"
        }
      ],
      "name": "mint",
      "outputs": [],
      "stateMutability": "nonpayable",
      "type": "function"
    },
    {
      "inputs": [],
      "name": "owner",
      "outputs": [
        {
          "internalType": "address",
          "name": "",
          "type": "address"
        }
      ],
      "stateMutability": "view",
      "type": "function"
    },
    {
      "inputs": [],
      "name": "renounceOwnership",
      "outputs": [],
      "stateMutability": "nonpayable",
      "type": "function"
    },
    {
      "inputs": [
        {
          "internalType": "address",
          "name": "operator",
          "type": "address"
        },
        {
          "internalType": "address",
          "name": "tokenOwner",
          "type": "address"
        },
        {
          "internalType": "bool",
          "name": "notify",
          "type": "bool"
        },
        {
          "internalType": "bytes",
          "name": "operatorNotificationData",
          "type": "bytes"
        }
      ],
      "name": "revokeOperator",
      "outputs": [],
      "stateMutability": "nonpayable",
      "type": "function"
    },
    {
      "inputs": [
        {
          "internalType": "bytes32",
          "name": "dataKey",
          "type": "bytes32"
        },
        {
          "internalType": "bytes",
          "name": "dataValue",
          "type": "bytes"
        }
      ],
      "name": "setData",
      "outputs": [],
      "stateMutability": "payable",
      "type": "function"
    },
    {
      "inputs": [
        {
          "internalType": "bytes32[]",
          "name": "dataKeys",
          "type": "bytes32[]"
        },
        {
          "internalType": "bytes[]",
          "name": "dataValues",
          "type": "bytes[]"
        }
      ],
      "name": "setDataBatch",
      "outputs": [],
      "stateMutability": "payable",
      "type": "function"
    },
    {
      "inputs": [
        {
          "internalType": "bytes4",
          "name": "interfaceId",
          "type": "bytes4"
        }
      ],
      "name": "supportsInterface",
      "outputs": [
        {
          "internalType": "bool",
          "name": "",
          "type": "bool"
        }
      ],
      "stateMutability": "view",
      "type": "function"
    },
    {
      "inputs": [],
      "name": "totalSupply",
      "outputs": [
        {
          "internalType": "uint256",
          "name": "",
          "type": "uint256"
        }
      ],
      "stateMutability": "view",
      "type": "function"
    },
    {
      "inputs": [
        {
          "internalType": "address",
          "name": "from",
          "type": "address"
        },
        {
          "internalType": "address",
          "name": "to",
          "type": "address"
        },
        {
          "internalType": "uint256",
          "name": "amount",
          "type": "uint256"
        },
        {
          "internalType": "bool",
          "name": "force",
          "type": "bool"
        },
        {
          "internalType": "bytes",
          "name": "data",
          "type": "bytes"
        }
      ],
      "name": "transfer",
      "outputs": [],
      "stateMutability": "nonpayable",
      "type": "function"
    },
    {
      "inputs": [
        {
          "internalType": "address[]",
          "name": "from",
          "type": "address[]"
        },
        {
          "internalType": "address[]",
          "name": "to",
          "type": "address[]"
        },
        {
          "internalType": "uint256[]",
          "name": "amount",
          "type": "uint256[]"
        },
        {
          "internalType": "bool[]",
          "name": "force",
          "type": "bool[]"
        },
        {
          "internalType": "bytes[]",
          "name": "data",
          "type": "bytes[]"
        }
      ],
      "name": "transferBatch",
      "outputs": [],
      "stateMutability": "nonpayable",
      "type": "function"
    },
    {
      "inputs": [
        {
          "internalType": "address",
          "name": "newOwner",
          "type": "address"
        }
      ],
      "name": "transferOwnership",
      "outputs": [],
      "stateMutability": "nonpayable",
      "type": "function"
    },
    {
      "stateMutability": "payable",
      "type": "receive"
    }
  ],
  "bytecode": "0x60806040523480156200001157600080fd5b506200001c62000022565b620000e3565b600054610100900460ff16156200008f5760405162461bcd60e51b815260206004820152602760248201527f496e697469616c697a61626c653a20636f6e747261637420697320696e697469604482015266616c697a696e6760c81b606482015260840160405180910390fd5b60005460ff90811614620000e1576000805460ff191660ff9081179091556040519081527f7f26b83ff96e1f2b6a682f133852f6798a09c465da95921460cefb38474024989060200160405180910390a15b565b61365c80620000f36000396000f3fe6080604052600436106101795760003560e01c8063715018a6116100cb5780638da5cb5b1161007f578063d72fc29a11610059578063d72fc29a1461050a578063dedff9c614610537578063f2fde38b1461055757610206565b80638da5cb5b146104a257806397902421146104d7578063b49506fd146104ea57610206565b8063760d9bba116100b0578063760d9bba1461044f578063783816701461046f5780637f23690c1461048f57610206565b8063715018a61461041a5780637580d9201461042f57610206565b806330d0dc371161012d57806365aeaa951161010757806365aeaa951461038a5780636963d438146103aa57806370a08231146103d757610206565b806330d0dc3714610316578063313ce5671461033657806354f6127f1461035d57610206565b806318160ddd1161015e57806318160ddd146102b75780632bc1da82146102d65780632d7667c9146102f657610206565b806301ffc9a71461026057806304689a811461029557610206565b3661020657346000036101d4576040517fe5099ee30000000000000000000000000000000000000000000000000000000081526004016101cb9060208082526004908201526000604082015260600190565b60405180910390fd5b6040517f388f5adc00000000000000000000000000000000000000000000000000000000815260040160405180910390fd5b6000366060600482101561024a5782826040517fe5099ee30000000000000000000000000000000000000000000000000000000081526004016101cb929190612720565b6102548383610577565b80519350602001915050f35b34801561026c57600080fd5b5061028061027b36600461276d565b6106ee565b60405190151581526020015b60405180910390f35b3480156102a157600080fd5b506102b56102b0366004612902565b610753565b005b3480156102c357600080fd5b506099545b60405190815260200161028c565b3480156102e257600080fd5b506102b56102f1366004612991565b6108ef565b34801561030257600080fd5b506102b5610311366004612bb6565b61099d565b34801561032257600080fd5b506102b5610331366004612c88565b610aa5565b34801561034257600080fd5b5061034b610b8d565b60405160ff909116815260200161028c565b34801561036957600080fd5b5061037d610378366004612cf7565b610ba6565b60405161028c9190612d7e565b34801561039657600080fd5b506102c86103a5366004612d91565b610bb1565b3480156103b657600080fd5b506103ca6103c5366004612dc4565b610c4b565b60405161028c9190612e39565b3480156103e357600080fd5b506102c86103f2366004612eb9565b73ffffffffffffffffffffffffffffffffffffffff166000908152609a602052604090205490565b34801561042657600080fd5b506102b5610d9b565b34801561043b57600080fd5b506102b561044a366004612ed4565b610daf565b34801561045b57600080fd5b506102b561046a366004612f08565b610dc3565b34801561047b57600080fd5b506102b561048a366004612f74565b610df8565b6102b561049d366004612fc4565b610f1c565b3480156104ae57600080fd5b5060335460405173ffffffffffffffffffffffffffffffffffffffff909116815260200161028c565b6102b56104e536600461300b565b610f6a565b3480156104f657600080fd5b506102b5610505366004612991565b610fb4565b34801561051657600080fd5b5061052a610525366004612eb9565b610ff4565b60405161028c9190613065565b34801561054357600080fd5b506103ca6105523660046130bf565b611025565b34801561056357600080fd5b506102b5610572366004612eb9565b6110d0565b606060006105a86000357fffffffff0000000000000000000000000000000000000000000000000000000016611187565b50905073ffffffffffffffffffffffffffffffffffffffff811661061e576040517fbb370b2b0000000000000000000000000000000000000000000000000000000081527fffffffff000000000000000000000000000000000000000000000000000000006000351660048201526024016101cb565b6000808273ffffffffffffffffffffffffffffffffffffffff16348787333460405160200161065094939291906130f4565b604080517fffffffffffffffffffffffffffffffffffffffffffffffffffffffffffffffe08184030181529082905261068891613137565b60006040518083038185875af1925050503d80600081146106c5576040519150601f19603f3d011682016040523d82523d6000602084013e6106ca565b606091505b509150915081156106df5792506106e8915050565b80518060208301fd5b92915050565b60007fffffffff0000000000000000000000000000000000000000000000000000000082167fc52d6008000000000000000000000000000000000000000000000000000000001480610744575061074482611249565b806106e857506106e8826112e0565b600054610100900460ff16158080156107735750600054600160ff909116105b8061078d5750303b15801561078d575060005460ff166001145b610819576040517f08c379a000000000000000000000000000000000000000000000000000000000815260206004820152602e60248201527f496e697469616c697a61626c653a20636f6e747261637420697320616c72656160448201527f647920696e697469616c697a656400000000000000000000000000000000000060648201526084016101cb565b600080547fffffffffffffffffffffffffffffffffffffffffffffffffffffffffffffff00166001179055801561087757600080547fffffffffffffffffffffffffffffffffffffffffffffffffffffffffffff00ff166101001790555b6108848686868686611344565b80156108e757600080547fffffffffffffffffffffffffffffffffffffffffffffffffffffffffffff00ff169055604051600181527f7f26b83ff96e1f2b6a682f133852f6798a09c465da95921460cefb38474024989060200160405180910390a15b505050505050565b60006108fb8433610bb1565b90508060000361094f576040517fcba6e97700000000000000000000000000000000000000000000000000000000815273ffffffffffffffffffffffffffffffffffffffff851660048201526024016101cb565b600061095b8483613182565b905061096b3386836001876113e8565b600033828560405160200161098293929190613195565b60405160208183030381529060405290506108e7868261160f565b84518451811415806109b0575083518114155b806109bc575082518114155b806109c8575081518114155b156109ff576040517f263eee8d00000000000000000000000000000000000000000000000000000000815260040160405180910390fd5b60005b81811015610a9c57610a94878281518110610a1f57610a1f6131d3565b6020026020010151878381518110610a3957610a396131d3565b6020026020010151878481518110610a5357610a536131d3565b6020026020010151878581518110610a6d57610a6d6131d3565b6020026020010151878681518110610a8757610a876131d3565b6020026020010151610dc3565b600101610a02565b50505050505050565b3373ffffffffffffffffffffffffffffffffffffffff841614801590610ae157503373ffffffffffffffffffffffffffffffffffffffff851614155b15610b3e576040517f1a525b3200000000000000000000000000000000000000000000000000000000815233600482015273ffffffffffffffffffffffffffffffffffffffff8085166024830152851660448201526064016101cb565b610b4c8385600085856113e8565b8115610b8757600083600083604051602001610b6a93929190613202565b6040516020818303038152906040529050610b85858261160f565b505b50505050565b60985460009060ff16610ba05750601290565b50600090565b60606106e88261163a565b60008273ffffffffffffffffffffffffffffffffffffffff168273ffffffffffffffffffffffffffffffffffffffff1603610c12575073ffffffffffffffffffffffffffffffffffffffff81166000908152609a60205260409020546106e8565b5073ffffffffffffffffffffffffffffffffffffffff8082166000908152609c60209081526040808320938616835292905220546106e8565b60608167ffffffffffffffff811115610c6657610c666127af565b604051908082528060200260200182016040528015610c9957816020015b6060815260200190600190039081610c845790505b50905060005b82811015610d945760008030868685818110610cbd57610cbd6131d3565b9050602002810190610ccf919061323a565b604051610cdd9291906132a6565b600060405180830381855af49150503d8060008114610d18576040519150601f19603f3d011682016040523d82523d6000602084013e610d1d565b606091505b509150915081610d6c57805115610d375780518082602001fd5b6040517fb774c284000000000000000000000000000000000000000000000000000000008152600481018490526024016101cb565b80848481518110610d7f57610d7f6131d3565b60209081029190910101525050600101610c9f565b5092915050565b610da36116dc565b610dad600061175d565b565b610db76116dc565b610b87848484846117d4565b3373ffffffffffffffffffffffffffffffffffffffff861614610deb57610deb338685611883565b610b85858585858561194d565b3373ffffffffffffffffffffffffffffffffffffffff841614801590610e3457503373ffffffffffffffffffffffffffffffffffffffff851614155b15610e91576040517f98ce294500000000000000000000000000000000000000000000000000000000815233600482015273ffffffffffffffffffffffffffffffffffffffff8085166024830152851660448201526064016101cb565b6000610e9d8585610bb1565b905082811015610ed9576040517f0ef76c3500000000000000000000000000000000000000000000000000000000815260040160405180910390fd5b828103610eea8587836001876113e8565b6000858285604051602001610f0193929190613195565b6040516020818303038152906040529050610a9c878261160f565b610f246116dc565b3415610f5c576040517ff36ba73700000000000000000000000000000000000000000000000000000000815260040160405180910390fd5b610f668282611a23565b5050565b610f726116dc565b3415610faa576040517ff36ba73700000000000000000000000000000000000000000000000000000000815260040160405180910390fd5b610f668282611b83565b610fc23384846001856113e8565b6000338383604051602001610fd993929190613195565b6040516020818303038152906040529050610b87848261160f565b73ffffffffffffffffffffffffffffffffffffffff81166000908152609b602052604090206060906106e890611c4e565b6060815167ffffffffffffffff811115611041576110416127af565b60405190808252806020026020018201604052801561107457816020015b606081526020019060019003908161105f5790505b50905060005b82518110156110ca576110a5838281518110611098576110986131d3565b602002602001015161163a565b8282815181106110b7576110b76131d3565b602090810291909101015260010161107a565b50919050565b6110d86116dc565b73ffffffffffffffffffffffffffffffffffffffff811661117b576040517f08c379a000000000000000000000000000000000000000000000000000000000815260206004820152602660248201527f4f776e61626c653a206e6577206f776e657220697320746865207a65726f206160448201527f646472657373000000000000000000000000000000000000000000000000000060648201526084016101cb565b6111848161175d565b50565b600080806111d77fcee78b4094da86011096000000000000000000000000000000000000000000007fffffffff000000000000000000000000000000000000000000000000000000008616611c5b565b905060006111e48261163a565b905080516014141580156111f85750805115155b1561123157806040517f42bfe79f0000000000000000000000000000000000000000000000000000000081526004016101cb9190612d7e565b61123a816132b6565b60601c95600195509350505050565b60007fffffffff0000000000000000000000000000000000000000000000000000000082167fa918fa6b0000000000000000000000000000000000000000000000000000000014806106e857507f01ffc9a7000000000000000000000000000000000000000000000000000000007fffffffff000000000000000000000000000000000000000000000000000000008316146106e8565b60008061130c7f01ffc9a700000000000000000000000000000000000000000000000000000000611187565b50905073ffffffffffffffffffffffffffffffffffffffff81166113335750600092915050565b61133d8184611cdf565b9392505050565b600054610100900460ff166113db576040517f08c379a000000000000000000000000000000000000000000000000000000000815260206004820152602b60248201527f496e697469616c697a61626c653a20636f6e7472616374206973206e6f74206960448201527f6e697469616c697a696e6700000000000000000000000000000000000000000060648201526084016101cb565b610b858585858585611dae565b73ffffffffffffffffffffffffffffffffffffffff8416611435576040517f6355e76600000000000000000000000000000000000000000000000000000000815260040160405180910390fd5b8473ffffffffffffffffffffffffffffffffffffffff168473ffffffffffffffffffffffffffffffffffffffff160361149a576040517fdab7504700000000000000000000000000000000000000000000000000000000815260040160405180910390fd5b73ffffffffffffffffffffffffffffffffffffffff8086166000908152609c6020908152604080832093881683529290522083905582156115705773ffffffffffffffffffffffffffffffffffffffff85166000908152609b602052604090206115049085611e86565b50828573ffffffffffffffffffffffffffffffffffffffff168573ffffffffffffffffffffffffffffffffffffffff167ff772a43bfdf4729b196e3fb54a818b91a2ca6c49d10b2e16278752f9f515c25d846040516115639190612d7e565b60405180910390a4610b85565b73ffffffffffffffffffffffffffffffffffffffff85166000908152609b6020526040902061159f9085611ea8565b508115158573ffffffffffffffffffffffffffffffffffffffff168573ffffffffffffffffffffffffffffffffffffffff167f0ebf5762d8855cbe012d2ca42fb33a81175e17c8a8751f8859931ba453bd4167846040516116009190612d7e565b60405180910390a45050505050565b610f66827f386072cc5a58e61263b434c722725f21031cd06e7c552cfaa06db5de8a320dbc83611eca565b600081815260976020526040902080546060919061165790613306565b80601f016020809104026020016040519081016040528092919081815260200182805461168390613306565b80156116d05780601f106116a5576101008083540402835291602001916116d0565b820191906000526020600020905b8154815290600101906020018083116116b357829003601f168201915b50505050509050919050565b60335473ffffffffffffffffffffffffffffffffffffffff163314610dad576040517f08c379a000000000000000000000000000000000000000000000000000000000815260206004820181905260248201527f4f776e61626c653a2063616c6c6572206973206e6f7420746865206f776e657260448201526064016101cb565b6033805473ffffffffffffffffffffffffffffffffffffffff8381167fffffffffffffffffffffffff0000000000000000000000000000000000000000831681179093556040519116919082907f8be0079c531659141344cd1fd0a4f28419497f9722a3daafe3b4186f6b6457e090600090a35050565b73ffffffffffffffffffffffffffffffffffffffff8416611821576040517fd2d5ec3000000000000000000000000000000000000000000000000000000000815260040160405180910390fd5b61182f600085858585610b85565b61183d600085858585611fc8565b61184b600085858585610b85565b6000336000868685604051602001611867959493929190613353565b6040516020818303038152906040529050610b8585848361217f565b73ffffffffffffffffffffffffffffffffffffffff8083166000908152609c60209081526040808320938716835292905220548015806118c257508082115b15611927576040517ff3a6b69100000000000000000000000000000000000000000000000000000000815273ffffffffffffffffffffffffffffffffffffffff80851660048301526024820183905285166044820152606481018390526084016101cb565b610b878385611936858561339a565b6000604051806020016040528060008152506113e8565b73ffffffffffffffffffffffffffffffffffffffff85161580611984575073ffffffffffffffffffffffffffffffffffffffff8416155b156119bb576040517fd2d5ec3000000000000000000000000000000000000000000000000000000000815260040160405180910390fd5b6119c88585858585610b85565b6119d58585858585611fc8565b6119e28585858585610b85565b600033868686856040516020016119fd959493929190613353565b6040516020818303038152906040529050611a1886826122d8565b6108e785848361217f565b7f2145e1d6d074577dc71ef54c3807742b41b053a9352ae6b491331509acb9750f8201611a7c576040517f85c169bd00000000000000000000000000000000000000000000000000000000815260040160405180910390fd5b7fd0f59754f88971fe6bc5a6618cc9d5f1e859c58d16b22d1c7b2d3e2b246cd8aa8201611ad5576040517f76755b3800000000000000000000000000000000000000000000000000000000815260040160405180910390fd5b7f1fd9e056a24d14c4abc642fcc325992a946906d0dbc57dd70278aaf12842024d8201611b2e576040517f4ef6d7fb00000000000000000000000000000000000000000000000000000000815260040160405180910390fd5b6000828152609760205260409020611b4682826133f3565b50817fece574603820d07bc9b91f2a932baadf4628aabcb8afba49776529c14a6104b282604051611b779190612d7e565b60405180910390a25050565b8051825114611bbe576040517f3bcc897900000000000000000000000000000000000000000000000000000000815260040160405180910390fd5b8151600003611bf9576040517f97da5f9500000000000000000000000000000000000000000000000000000000815260040160405180910390fd5b60005b8251811015611c4957611c41838281518110611c1a57611c1a6131d3565b6020026020010151838381518110611c3457611c346131d3565b6020026020010151611a23565b600101611bfc565b505050565b6060600061133d83612303565b604080517fffffffffffffffffffff00000000000000000000000000000000000000000000841660208201526000602a82018190527fffffffffffffffffffffffffffffffffffffffff0000000000000000000000008416602c83015291829101604051602081830303815290604052905080611cd79061350d565b949350505050565b604080517fffffffff000000000000000000000000000000000000000000000000000000008316602480830191909152825180830390910181526044909101909152602080820180517bffffffffffffffffffffffffffffffffffffffffffffffffffffffff167f01ffc9a700000000000000000000000000000000000000000000000000000000178152825160009392849283928392918391908a617530fa92503d91506000519050828015611d97575060208210155b8015611da35750600081115b979650505050505050565b600054610100900460ff16611e45576040517f08c379a000000000000000000000000000000000000000000000000000000000815260206004820152602b60248201527f496e697469616c697a61626c653a20636f6e7472616374206973206e6f74206960448201527f6e697469616c697a696e6700000000000000000000000000000000000000000060648201526084016101cb565b611e518585858561235e565b609880547fffffffffffffffffffffffffffffffffffffffffffffffffffffffffffffff001691151591909117905550505050565b600061133d8373ffffffffffffffffffffffffffffffffffffffff84166124fa565b600061133d8373ffffffffffffffffffffffffffffffffffffffff8416612549565b611f0a73ffffffffffffffffffffffffffffffffffffffff84167f6bb56a1400000000000000000000000000000000000000000000000000000000611cdf565b15611c49576040517f6bb56a1400000000000000000000000000000000000000000000000000000000815273ffffffffffffffffffffffffffffffffffffffff841690636bb56a1490611f63908590859060040161354f565b6000604051808303816000875af1158015611f82573d6000803e3d6000fd5b505050506040513d6000823e601f3d9081017fffffffffffffffffffffffffffffffffffffffffffffffffffffffffffffffe0168201604052610b879190810190613568565b73ffffffffffffffffffffffffffffffffffffffff8516612000578260996000828254611ff59190613182565b909155506120b29050565b73ffffffffffffffffffffffffffffffffffffffff85166000908152609a602052604090205483811015612086576040517f08d479490000000000000000000000000000000000000000000000000000000081526004810182905273ffffffffffffffffffffffffffffffffffffffff87166024820152604481018590526064016101cb565b73ffffffffffffffffffffffffffffffffffffffff86166000908152609a602052604090209084900390555b73ffffffffffffffffffffffffffffffffffffffff84166120db57609980548490039055612107565b73ffffffffffffffffffffffffffffffffffffffff84166000908152609a602052604090208054840190555b8373ffffffffffffffffffffffffffffffffffffffff168573ffffffffffffffffffffffffffffffffffffffff163373ffffffffffffffffffffffffffffffffffffffff167f3997e418d2cef0b3b0e907b1e39605c3f7d32dbd061e82ea5b4a770d46a160a6868686604051611600939291906135d6565b6121a9837f6bb56a1400000000000000000000000000000000000000000000000000000000611cdf565b15612222576040517f6bb56a1400000000000000000000000000000000000000000000000000000000815273ffffffffffffffffffffffffffffffffffffffff841690636bb56a1490611f63907f20804611b3e2ea21c480dc465142210acf4a2485947541770ec1fb87dee4a55c90859060040161354f565b81611c495773ffffffffffffffffffffffffffffffffffffffff83163b1561228e576040517fa608fbb600000000000000000000000000000000000000000000000000000000815273ffffffffffffffffffffffffffffffffffffffff841660048201526024016101cb565b6040517f26c247f400000000000000000000000000000000000000000000000000000000815273ffffffffffffffffffffffffffffffffffffffff841660048201526024016101cb565b610f66827f429ac7a06903dbc9c13dfcb3c9d11df8194581fa047c96d7a4171fc7402958ea83611eca565b6060816000018054806020026020016040519081016040528092919081815260200182805480156116d057602002820191906000526020600020905b81548152602001906001019080831161233f5750505050509050919050565b600054610100900460ff166123f5576040517f08c379a000000000000000000000000000000000000000000000000000000000815260206004820152602b60248201527f496e697469616c697a61626c653a20636f6e7472616374206973206e6f74206960448201527f6e697469616c697a696e6700000000000000000000000000000000000000000060648201526084016101cb565b6123fe8261263c565b6124607feafec4d89fa9619884b60000a4d96624a38f7ac2d8d9a604ecf07c12c77e480c60001b6040518060400160405280600481526020017fa4d9662400000000000000000000000000000000000000000000000000000000815250611b2e565b61248a7fdeba1e292f8ba88238e10ab3c7f88bd4be4fac56cad5194b6ecceaf653468af185611b2e565b6124b47f2f0a68ab07768e01943a599e73362a0e17a63a72e94dd2e384d2c1d4db93275684611b2e565b6040805160208101839052610b87917fe0261fa95db2eb3b5439bd033cda66d56b96f92f243a8228fd87550ed7bdfdb39101604051602081830303815290604052611b2e565b6000818152600183016020526040812054612541575081546001818101845560008481526020808220909301849055845484825282860190935260409020919091556106e8565b5060006106e8565b6000818152600183016020526040812054801561263257600061256d60018361339a565b85549091506000906125819060019061339a565b90508181146125e65760008660000182815481106125a1576125a16131d3565b90600052602060002001549050808760000184815481106125c4576125c46131d3565b6000918252602080832090910192909255918252600188019052604090208390555b85548690806125f7576125f76135f7565b6001900381819060005260206000200160009055905585600101600086815260200190815260200160002060009055600193505050506106e8565b60009150506106e8565b600054610100900460ff166126d3576040517f08c379a000000000000000000000000000000000000000000000000000000000815260206004820152602b60248201527f496e697469616c697a61626c653a20636f6e7472616374206973206e6f74206960448201527f6e697469616c697a696e6700000000000000000000000000000000000000000060648201526084016101cb565b73ffffffffffffffffffffffffffffffffffffffff811661117b576040517f1ad8836c00000000000000000000000000000000000000000000000000000000815260040160405180910390fd5b60208152816020820152818360408301376000818301604090810191909152601f9092017fffffffffffffffffffffffffffffffffffffffffffffffffffffffffffffffe0160101919050565b60006020828403121561277f57600080fd5b81357fffffffff000000000000000000000000000000000000000000000000000000008116811461133d57600080fd5b7f4e487b7100000000000000000000000000000000000000000000000000000000600052604160045260246000fd5b604051601f82017fffffffffffffffffffffffffffffffffffffffffffffffffffffffffffffffe016810167ffffffffffffffff81118282101715612825576128256127af565b604052919050565b600067ffffffffffffffff821115612847576128476127af565b50601f017fffffffffffffffffffffffffffffffffffffffffffffffffffffffffffffffe01660200190565b600082601f83011261288457600080fd5b81356128976128928261282d565b6127de565b8181528460208386010111156128ac57600080fd5b816020850160208301376000918101602001919091529392505050565b803573ffffffffffffffffffffffffffffffffffffffff811681146128ed57600080fd5b919050565b803580151581146128ed57600080fd5b600080600080600060a0868803121561291a57600080fd5b853567ffffffffffffffff8082111561293257600080fd5b61293e89838a01612873565b9650602088013591508082111561295457600080fd5b5061296188828901612873565b945050612970604087016128c9565b925060608601359150612985608087016128f2565b90509295509295909350565b6000806000606084860312156129a657600080fd5b6129af846128c9565b925060208401359150604084013567ffffffffffffffff8111156129d257600080fd5b6129de86828701612873565b9150509250925092565b600067ffffffffffffffff821115612a0257612a026127af565b5060051b60200190565b600082601f830112612a1d57600080fd5b81356020612a2d612892836129e8565b82815260059290921b84018101918181019086841115612a4c57600080fd5b8286015b84811015612a6e57612a61816128c9565b8352918301918301612a50565b509695505050505050565b600082601f830112612a8a57600080fd5b81356020612a9a612892836129e8565b82815260059290921b84018101918181019086841115612ab957600080fd5b8286015b84811015612a6e5780358352918301918301612abd565b600082601f830112612ae557600080fd5b81356020612af5612892836129e8565b82815260059290921b84018101918181019086841115612b1457600080fd5b8286015b84811015612a6e57612b29816128f2565b8352918301918301612b18565b600082601f830112612b4757600080fd5b81356020612b57612892836129e8565b82815260059290921b84018101918181019086841115612b7657600080fd5b8286015b84811015612a6e57803567ffffffffffffffff811115612b9a5760008081fd5b612ba88986838b0101612873565b845250918301918301612b7a565b600080600080600060a08688031215612bce57600080fd5b853567ffffffffffffffff80821115612be657600080fd5b612bf289838a01612a0c565b96506020880135915080821115612c0857600080fd5b612c1489838a01612a0c565b95506040880135915080821115612c2a57600080fd5b612c3689838a01612a79565b94506060880135915080821115612c4c57600080fd5b612c5889838a01612ad4565b93506080880135915080821115612c6e57600080fd5b50612c7b88828901612b36565b9150509295509295909350565b60008060008060808587031215612c9e57600080fd5b612ca7856128c9565b9350612cb5602086016128c9565b9250612cc3604086016128f2565b9150606085013567ffffffffffffffff811115612cdf57600080fd5b612ceb87828801612873565b91505092959194509250565b600060208284031215612d0957600080fd5b5035919050565b60005b83811015612d2b578181015183820152602001612d13565b50506000910152565b60008151808452612d4c816020860160208601612d10565b601f017fffffffffffffffffffffffffffffffffffffffffffffffffffffffffffffffe0169290920160200192915050565b60208152600061133d6020830184612d34565b60008060408385031215612da457600080fd5b612dad836128c9565b9150612dbb602084016128c9565b90509250929050565b60008060208385031215612dd757600080fd5b823567ffffffffffffffff80821115612def57600080fd5b818501915085601f830112612e0357600080fd5b813581811115612e1257600080fd5b8660208260051b8501011115612e2757600080fd5b60209290920196919550909350505050565b6000602080830181845280855180835260408601915060408160051b870101925083870160005b82811015612eac577fffffffffffffffffffffffffffffffffffffffffffffffffffffffffffffffc0888603018452612e9a858351612d34565b94509285019290850190600101612e60565b5092979650505050505050565b600060208284031215612ecb57600080fd5b61133d826128c9565b60008060008060808587031215612eea57600080fd5b612ef3856128c9565b935060208501359250612cc3604086016128f2565b600080600080600060a08688031215612f2057600080fd5b612f29866128c9565b9450612f37602087016128c9565b935060408601359250612f4c606087016128f2565b9150608086013567ffffffffffffffff811115612f6857600080fd5b612c7b88828901612873565b60008060008060808587031215612f8a57600080fd5b612f93856128c9565b9350612fa1602086016128c9565b925060408501359150606085013567ffffffffffffffff811115612cdf57600080fd5b60008060408385031215612fd757600080fd5b82359150602083013567ffffffffffffffff811115612ff557600080fd5b61300185828601612873565b9150509250929050565b6000806040838503121561301e57600080fd5b823567ffffffffffffffff8082111561303657600080fd5b61304286838701612a79565b9350602085013591508082111561305857600080fd5b5061300185828601612b36565b6020808252825182820181905260009190848201906040850190845b818110156130b357835173ffffffffffffffffffffffffffffffffffffffff1683529284019291840191600101613081565b50909695505050505050565b6000602082840312156130d157600080fd5b813567ffffffffffffffff8111156130e857600080fd5b611cd784828501612a79565b8385823760609290921b7fffffffffffffffffffffffffffffffffffffffff00000000000000000000000016919092019081526014810191909152603401919050565b60008251613149818460208701612d10565b9190910192915050565b7f4e487b7100000000000000000000000000000000000000000000000000000000600052601160045260246000fd5b808201808211156106e8576106e8613153565b73ffffffffffffffffffffffffffffffffffffffff841681528260208201526060604082015260006131ca6060830184612d34565b95945050505050565b7f4e487b7100000000000000000000000000000000000000000000000000000000600052603260045260246000fd5b73ffffffffffffffffffffffffffffffffffffffff8416815260ff831660208201526060604082015260006131ca6060830184612d34565b60008083357fffffffffffffffffffffffffffffffffffffffffffffffffffffffffffffffe184360301811261326f57600080fd5b83018035915067ffffffffffffffff82111561328a57600080fd5b60200191503681900382131561329f57600080fd5b9250929050565b8183823760009101908152919050565b6000815160208301517fffffffffffffffffffffffffffffffffffffffff000000000000000000000000808216935060148310156132fe5780818460140360031b1b83161693505b505050919050565b600181811c9082168061331a57607f821691505b6020821081036110ca577f4e487b7100000000000000000000000000000000000000000000000000000000600052602260045260246000fd5b600073ffffffffffffffffffffffffffffffffffffffff8088168352808716602084015280861660408401525083606083015260a06080830152611da360a0830184612d34565b818103818111156106e8576106e8613153565b601f821115611c4957600081815260208120601f850160051c810160208610156133d45750805b601f850160051c820191505b818110156108e7578281556001016133e0565b815167ffffffffffffffff81111561340d5761340d6127af565b6134218161341b8454613306565b846133ad565b602080601f831160018114613474576000841561343e5750858301515b7fffffffffffffffffffffffffffffffffffffffffffffffffffffffffffffffff600386901b1c1916600185901b1785556108e7565b6000858152602081207fffffffffffffffffffffffffffffffffffffffffffffffffffffffffffffffe08616915b828110156134c1578886015182559484019460019091019084016134a2565b50858210156134fd57878501517fffffffffffffffffffffffffffffffffffffffffffffffffffffffffffffffff600388901b60f8161c191681555b5050505050600190811b01905550565b805160208083015191908110156110ca577fffffffffffffffffffffffffffffffffffffffffffffffffffffffffffffffff60209190910360031b1b16919050565b828152604060208201526000611cd76040830184612d34565b60006020828403121561357a57600080fd5b815167ffffffffffffffff81111561359157600080fd5b8201601f810184136135a257600080fd5b80516135b06128928261282d565b8181528560208385010111156135c557600080fd5b6131ca826020830160208601612d10565b83815282151560208201526060604082015260006131ca6060830184612d34565b7f4e487b7100000000000000000000000000000000000000000000000000000000600052603160045260246000fdfea26469706673582212205ed9428ef8b36472b1d33c14a5d78f51d3d50c73305cbb413c682ddb34384cdb64736f6c63430008110033",
  "linkReferences": {},
  "deployedLinkReferences": {}
}