{
  "_format": "hh-sol-artifact-1",
  "contractName": "LSP8MintableInit",
  "sourceName": "contracts/presets/LSP8MintableInit.sol",
  "abi": [
    {
      "inputs": [],
      "stateMutability": "nonpayable",
      "type": "constructor"
    },
    {
      "inputs": [],
      "name": "ERC725Y_DataKeysValuesEmptyArray",
      "type": "error"
    },
    {
      "inputs": [],
      "name": "ERC725Y_DataKeysValuesLengthMismatch",
      "type": "error"
    },
    {
      "inputs": [],
      "name": "ERC725Y_MsgValueDisallowed",
      "type": "error"
    },
    {
      "inputs": [
        {
          "internalType": "bytes",
          "name": "storedData",
          "type": "bytes"
        }
      ],
      "name": "InvalidExtensionAddress",
      "type": "error"
    },
    {
      "inputs": [
        {
          "internalType": "bytes",
          "name": "data",
          "type": "bytes"
        }
      ],
      "name": "InvalidFunctionSelector",
      "type": "error"
    },
    {
      "inputs": [],
      "name": "LSP4TokenNameNotEditable",
      "type": "error"
    },
    {
      "inputs": [],
      "name": "LSP4TokenSymbolNotEditable",
      "type": "error"
    },
    {
      "inputs": [],
      "name": "LSP4TokenTypeNotEditable",
      "type": "error"
    },
    {
      "inputs": [
        {
          "internalType": "uint256",
          "name": "callIndex",
          "type": "uint256"
        }
      ],
      "name": "LSP8BatchCallFailed",
      "type": "error"
    },
    {
      "inputs": [],
      "name": "LSP8CannotSendToAddressZero",
      "type": "error"
    },
    {
      "inputs": [],
      "name": "LSP8CannotUseAddressZeroAsOperator",
      "type": "error"
    },
    {
      "inputs": [],
      "name": "LSP8InvalidTransferBatch",
      "type": "error"
    },
    {
      "inputs": [
        {
          "internalType": "bytes32",
          "name": "tokenId",
          "type": "bytes32"
        }
      ],
      "name": "LSP8NonExistentTokenId",
      "type": "error"
    },
    {
      "inputs": [
        {
          "internalType": "address",
          "name": "operator",
          "type": "address"
        },
        {
          "internalType": "bytes32",
          "name": "tokenId",
          "type": "bytes32"
        }
      ],
      "name": "LSP8NonExistingOperator",
      "type": "error"
    },
    {
      "inputs": [
        {
          "internalType": "bytes32",
          "name": "tokenId",
          "type": "bytes32"
        },
        {
          "internalType": "address",
          "name": "caller",
          "type": "address"
        }
      ],
      "name": "LSP8NotTokenOperator",
      "type": "error"
    },
    {
      "inputs": [
        {
          "internalType": "address",
          "name": "tokenOwner",
          "type": "address"
        },
        {
          "internalType": "bytes32",
          "name": "tokenId",
          "type": "bytes32"
        },
        {
          "internalType": "address",
          "name": "caller",
          "type": "address"
        }
      ],
      "name": "LSP8NotTokenOwner",
      "type": "error"
    },
    {
      "inputs": [
        {
          "internalType": "address",
          "name": "tokenReceiver",
          "type": "address"
        }
      ],
      "name": "LSP8NotifyTokenReceiverContractMissingLSP1Interface",
      "type": "error"
    },
    {
      "inputs": [
        {
          "internalType": "address",
          "name": "tokenReceiver",
          "type": "address"
        }
      ],
      "name": "LSP8NotifyTokenReceiverIsEOA",
      "type": "error"
    },
    {
      "inputs": [
        {
          "internalType": "address",
          "name": "operator",
          "type": "address"
        },
        {
          "internalType": "bytes32",
          "name": "tokenId",
          "type": "bytes32"
        }
      ],
      "name": "LSP8OperatorAlreadyAuthorized",
      "type": "error"
    },
    {
      "inputs": [
        {
          "internalType": "address",
          "name": "caller",
          "type": "address"
        },
        {
          "internalType": "address",
          "name": "tokenOwner",
          "type": "address"
        },
        {
          "internalType": "bytes32",
          "name": "tokenId",
          "type": "bytes32"
        }
      ],
      "name": "LSP8RevokeOperatorNotAuthorized",
      "type": "error"
    },
    {
      "inputs": [],
      "name": "LSP8TokenContractCannotHoldValue",
      "type": "error"
    },
    {
      "inputs": [
        {
          "internalType": "bytes32",
          "name": "tokenId",
          "type": "bytes32"
        }
      ],
      "name": "LSP8TokenIdAlreadyMinted",
      "type": "error"
    },
    {
      "inputs": [],
      "name": "LSP8TokenIdFormatNotEditable",
      "type": "error"
    },
    {
      "inputs": [],
      "name": "LSP8TokenIdsDataEmptyArray",
      "type": "error"
    },
    {
      "inputs": [],
      "name": "LSP8TokenIdsDataLengthMismatch",
      "type": "error"
    },
    {
      "inputs": [],
      "name": "LSP8TokenOwnerCannotBeOperator",
      "type": "error"
    },
    {
      "inputs": [
        {
          "internalType": "bytes32",
          "name": "tokenId",
          "type": "bytes32"
        },
        {
          "internalType": "address",
          "name": "oldOwner",
          "type": "address"
        },
        {
          "internalType": "address",
          "name": "newOwner",
          "type": "address"
        }
      ],
      "name": "LSP8TokenOwnerChanged",
      "type": "error"
    },
    {
      "inputs": [
        {
          "internalType": "bytes4",
          "name": "functionSelector",
          "type": "bytes4"
        }
      ],
      "name": "NoExtensionFoundForFunctionSelector",
      "type": "error"
    },
    {
      "inputs": [],
      "name": "OwnableCannotSetZeroAddressAsOwner",
      "type": "error"
    },
    {
      "anonymous": false,
      "inputs": [
        {
          "indexed": true,
          "internalType": "bytes32",
          "name": "dataKey",
          "type": "bytes32"
        },
        {
          "indexed": false,
          "internalType": "bytes",
          "name": "dataValue",
          "type": "bytes"
        }
      ],
      "name": "DataChanged",
      "type": "event"
    },
    {
      "anonymous": false,
      "inputs": [
        {
          "indexed": false,
          "internalType": "uint8",
          "name": "version",
          "type": "uint8"
        }
      ],
      "name": "Initialized",
      "type": "event"
    },
    {
      "anonymous": false,
      "inputs": [
        {
          "indexed": true,
          "internalType": "address",
          "name": "operator",
          "type": "address"
        },
        {
          "indexed": true,
          "internalType": "address",
          "name": "tokenOwner",
          "type": "address"
        },
        {
          "indexed": true,
          "internalType": "bytes32",
          "name": "tokenId",
          "type": "bytes32"
        },
        {
          "indexed": false,
          "internalType": "bytes",
          "name": "operatorNotificationData",
          "type": "bytes"
        }
      ],
      "name": "OperatorAuthorizationChanged",
      "type": "event"
    },
    {
      "anonymous": false,
      "inputs": [
        {
          "indexed": true,
          "internalType": "address",
          "name": "operator",
          "type": "address"
        },
        {
          "indexed": true,
          "internalType": "address",
          "name": "tokenOwner",
          "type": "address"
        },
        {
          "indexed": true,
          "internalType": "bytes32",
          "name": "tokenId",
          "type": "bytes32"
        },
        {
          "indexed": false,
          "internalType": "bool",
          "name": "notified",
          "type": "bool"
        },
        {
          "indexed": false,
          "internalType": "bytes",
          "name": "operatorNotificationData",
          "type": "bytes"
        }
      ],
      "name": "OperatorRevoked",
      "type": "event"
    },
    {
      "anonymous": false,
      "inputs": [
        {
          "indexed": true,
          "internalType": "address",
          "name": "previousOwner",
          "type": "address"
        },
        {
          "indexed": true,
          "internalType": "address",
          "name": "newOwner",
          "type": "address"
        }
      ],
      "name": "OwnershipTransferred",
      "type": "event"
    },
    {
      "anonymous": false,
      "inputs": [
        {
          "indexed": true,
          "internalType": "bytes32",
          "name": "tokenId",
          "type": "bytes32"
        },
        {
          "indexed": true,
          "internalType": "bytes32",
          "name": "dataKey",
          "type": "bytes32"
        },
        {
          "indexed": false,
          "internalType": "bytes",
          "name": "dataValue",
          "type": "bytes"
        }
      ],
      "name": "TokenIdDataChanged",
      "type": "event"
    },
    {
      "anonymous": false,
      "inputs": [
        {
          "indexed": false,
          "internalType": "address",
          "name": "operator",
          "type": "address"
        },
        {
          "indexed": true,
          "internalType": "address",
          "name": "from",
          "type": "address"
        },
        {
          "indexed": true,
          "internalType": "address",
          "name": "to",
          "type": "address"
        },
        {
          "indexed": true,
          "internalType": "bytes32",
          "name": "tokenId",
          "type": "bytes32"
        },
        {
          "indexed": false,
          "internalType": "bool",
          "name": "force",
          "type": "bool"
        },
        {
          "indexed": false,
          "internalType": "bytes",
          "name": "data",
          "type": "bytes"
        }
      ],
      "name": "Transfer",
      "type": "event"
    },
    {
      "stateMutability": "payable",
      "type": "fallback"
    },
    {
      "inputs": [
        {
          "internalType": "address",
          "name": "operator",
          "type": "address"
        },
        {
          "internalType": "bytes32",
          "name": "tokenId",
          "type": "bytes32"
        },
        {
          "internalType": "bytes",
          "name": "operatorNotificationData",
          "type": "bytes"
        }
      ],
      "name": "authorizeOperator",
      "outputs": [],
      "stateMutability": "nonpayable",
      "type": "function"
    },
    {
      "inputs": [
        {
          "internalType": "address",
          "name": "tokenOwner",
          "type": "address"
        }
      ],
      "name": "balanceOf",
      "outputs": [
        {
          "internalType": "uint256",
          "name": "",
          "type": "uint256"
        }
      ],
      "stateMutability": "view",
      "type": "function"
    },
    {
      "inputs": [
        {
          "internalType": "bytes[]",
          "name": "data",
          "type": "bytes[]"
        }
      ],
      "name": "batchCalls",
      "outputs": [
        {
          "internalType": "bytes[]",
          "name": "results",
          "type": "bytes[]"
        }
      ],
      "stateMutability": "nonpayable",
      "type": "function"
    },
    {
      "inputs": [
        {
          "internalType": "bytes32",
          "name": "dataKey",
          "type": "bytes32"
        }
      ],
      "name": "getData",
      "outputs": [
        {
          "internalType": "bytes",
          "name": "dataValue",
          "type": "bytes"
        }
      ],
      "stateMutability": "view",
      "type": "function"
    },
    {
      "inputs": [
        {
          "internalType": "bytes32[]",
          "name": "dataKeys",
          "type": "bytes32[]"
        }
      ],
      "name": "getDataBatch",
      "outputs": [
        {
          "internalType": "bytes[]",
          "name": "dataValues",
          "type": "bytes[]"
        }
      ],
      "stateMutability": "view",
      "type": "function"
    },
    {
      "inputs": [
        {
          "internalType": "bytes32[]",
          "name": "tokenIds",
          "type": "bytes32[]"
        },
        {
          "internalType": "bytes32[]",
          "name": "dataKeys",
          "type": "bytes32[]"
        }
      ],
      "name": "getDataBatchForTokenIds",
      "outputs": [
        {
          "internalType": "bytes[]",
          "name": "dataValues",
          "type": "bytes[]"
        }
      ],
      "stateMutability": "view",
      "type": "function"
    },
    {
      "inputs": [
        {
          "internalType": "bytes32",
          "name": "tokenId",
          "type": "bytes32"
        },
        {
          "internalType": "bytes32",
          "name": "dataKey",
          "type": "bytes32"
        }
      ],
      "name": "getDataForTokenId",
      "outputs": [
        {
          "internalType": "bytes",
          "name": "dataValue",
          "type": "bytes"
        }
      ],
      "stateMutability": "view",
      "type": "function"
    },
    {
      "inputs": [
        {
          "internalType": "bytes32",
          "name": "tokenId",
          "type": "bytes32"
        }
      ],
      "name": "getOperatorsOf",
      "outputs": [
        {
          "internalType": "address[]",
          "name": "",
          "type": "address[]"
        }
      ],
      "stateMutability": "view",
      "type": "function"
    },
    {
      "inputs": [
        {
          "internalType": "string",
          "name": "name_",
          "type": "string"
        },
        {
          "internalType": "string",
          "name": "symbol_",
          "type": "string"
        },
        {
          "internalType": "address",
          "name": "newOwner_",
          "type": "address"
        },
        {
          "internalType": "uint256",
          "name": "lsp4TokenType_",
          "type": "uint256"
        },
        {
          "internalType": "uint256",
          "name": "lsp8TokenIdFormat_",
          "type": "uint256"
        }
      ],
      "name": "initialize",
      "outputs": [],
      "stateMutability": "nonpayable",
      "type": "function"
    },
    {
      "inputs": [
        {
          "internalType": "address",
          "name": "operator",
          "type": "address"
        },
        {
          "internalType": "bytes32",
          "name": "tokenId",
          "type": "bytes32"
        }
      ],
      "name": "isOperatorFor",
      "outputs": [
        {
          "internalType": "bool",
          "name": "",
          "type": "bool"
        }
      ],
      "stateMutability": "view",
      "type": "function"
    },
    {
      "inputs": [
        {
          "internalType": "address",
          "name": "to",
          "type": "address"
        },
        {
          "internalType": "bytes32",
          "name": "tokenId",
          "type": "bytes32"
        },
        {
          "internalType": "bool",
          "name": "force",
          "type": "bool"
        },
        {
          "internalType": "bytes",
          "name": "data",
          "type": "bytes"
        }
      ],
      "name": "mint",
      "outputs": [],
      "stateMutability": "nonpayable",
      "type": "function"
    },
    {
      "inputs": [],
      "name": "owner",
      "outputs": [
        {
          "internalType": "address",
          "name": "",
          "type": "address"
        }
      ],
      "stateMutability": "view",
      "type": "function"
    },
    {
      "inputs": [],
      "name": "renounceOwnership",
      "outputs": [],
      "stateMutability": "nonpayable",
      "type": "function"
    },
    {
      "inputs": [
        {
          "internalType": "address",
          "name": "operator",
          "type": "address"
        },
        {
          "internalType": "bytes32",
          "name": "tokenId",
          "type": "bytes32"
        },
        {
          "internalType": "bool",
          "name": "notify",
          "type": "bool"
        },
        {
          "internalType": "bytes",
          "name": "operatorNotificationData",
          "type": "bytes"
        }
      ],
      "name": "revokeOperator",
      "outputs": [],
      "stateMutability": "nonpayable",
      "type": "function"
    },
    {
      "inputs": [
        {
          "internalType": "bytes32",
          "name": "dataKey",
          "type": "bytes32"
        },
        {
          "internalType": "bytes",
          "name": "dataValue",
          "type": "bytes"
        }
      ],
      "name": "setData",
      "outputs": [],
      "stateMutability": "payable",
      "type": "function"
    },
    {
      "inputs": [
        {
          "internalType": "bytes32[]",
          "name": "dataKeys",
          "type": "bytes32[]"
        },
        {
          "internalType": "bytes[]",
          "name": "dataValues",
          "type": "bytes[]"
        }
      ],
      "name": "setDataBatch",
      "outputs": [],
      "stateMutability": "payable",
      "type": "function"
    },
    {
      "inputs": [
        {
          "internalType": "bytes32[]",
          "name": "tokenIds",
          "type": "bytes32[]"
        },
        {
          "internalType": "bytes32[]",
          "name": "dataKeys",
          "type": "bytes32[]"
        },
        {
          "internalType": "bytes[]",
          "name": "dataValues",
          "type": "bytes[]"
        }
      ],
      "name": "setDataBatchForTokenIds",
      "outputs": [],
      "stateMutability": "nonpayable",
      "type": "function"
    },
    {
      "inputs": [
        {
          "internalType": "bytes32",
          "name": "tokenId",
          "type": "bytes32"
        },
        {
          "internalType": "bytes32",
          "name": "dataKey",
          "type": "bytes32"
        },
        {
          "internalType": "bytes",
          "name": "dataValue",
          "type": "bytes"
        }
      ],
      "name": "setDataForTokenId",
      "outputs": [],
      "stateMutability": "nonpayable",
      "type": "function"
    },
    {
      "inputs": [
        {
          "internalType": "bytes4",
          "name": "interfaceId",
          "type": "bytes4"
        }
      ],
      "name": "supportsInterface",
      "outputs": [
        {
          "internalType": "bool",
          "name": "",
          "type": "bool"
        }
      ],
      "stateMutability": "view",
      "type": "function"
    },
    {
      "inputs": [
        {
          "internalType": "address",
          "name": "tokenOwner",
          "type": "address"
        }
      ],
      "name": "tokenIdsOf",
      "outputs": [
        {
          "internalType": "bytes32[]",
          "name": "",
          "type": "bytes32[]"
        }
      ],
      "stateMutability": "view",
      "type": "function"
    },
    {
      "inputs": [
        {
          "internalType": "bytes32",
          "name": "tokenId",
          "type": "bytes32"
        }
      ],
      "name": "tokenOwnerOf",
      "outputs": [
        {
          "internalType": "address",
          "name": "",
          "type": "address"
        }
      ],
      "stateMutability": "view",
      "type": "function"
    },
    {
      "inputs": [],
      "name": "totalSupply",
      "outputs": [
        {
          "internalType": "uint256",
          "name": "",
          "type": "uint256"
        }
      ],
      "stateMutability": "view",
      "type": "function"
    },
    {
      "inputs": [
        {
          "internalType": "address",
          "name": "from",
          "type": "address"
        },
        {
          "internalType": "address",
          "name": "to",
          "type": "address"
        },
        {
          "internalType": "bytes32",
          "name": "tokenId",
          "type": "bytes32"
        },
        {
          "internalType": "bool",
          "name": "force",
          "type": "bool"
        },
        {
          "internalType": "bytes",
          "name": "data",
          "type": "bytes"
        }
      ],
      "name": "transfer",
      "outputs": [],
      "stateMutability": "nonpayable",
      "type": "function"
    },
    {
      "inputs": [
        {
          "internalType": "address[]",
          "name": "from",
          "type": "address[]"
        },
        {
          "internalType": "address[]",
          "name": "to",
          "type": "address[]"
        },
        {
          "internalType": "bytes32[]",
          "name": "tokenId",
          "type": "bytes32[]"
        },
        {
          "internalType": "bool[]",
          "name": "force",
          "type": "bool[]"
        },
        {
          "internalType": "bytes[]",
          "name": "data",
          "type": "bytes[]"
        }
      ],
      "name": "transferBatch",
      "outputs": [],
      "stateMutability": "nonpayable",
      "type": "function"
    },
    {
      "inputs": [
        {
          "internalType": "address",
          "name": "newOwner",
          "type": "address"
        }
      ],
      "name": "transferOwnership",
      "outputs": [],
      "stateMutability": "nonpayable",
      "type": "function"
    },
    {
      "stateMutability": "payable",
      "type": "receive"
    }
  ],
  "bytecode": "0x60806040523480156200001157600080fd5b506200001c62000022565b620000e3565b600054610100900460ff16156200008f5760405162461bcd60e51b815260206004820152602760248201527f496e697469616c697a61626c653a20636f6e747261637420697320696e697469604482015266616c697a696e6760c81b606482015260840160405180910390fd5b60005460ff90811614620000e1576000805460ff191660ff9081179091556040519081527f7f26b83ff96e1f2b6a682f133852f6798a09c465da95921460cefb38474024989060200160405180910390a15b565b613e3080620000f36000396000f3fe60806040526004361061019a5760003560e01c806374823132116100e1578063a3b261f21161008a578063d6c1407c11610064578063d6c1407c14610576578063db8c966314610596578063dedff9c6146105b6578063f2fde38b146105d657610227565b8063a3b261f214610509578063af255b6114610536578063be9f0e6f1461055657610227565b806386a10ddd116100bb57806386a10ddd146104ab5780638da5cb5b146104cb57806397902421146104f657610227565b806374823132146104585780637e87632c146104785780637f23690c1461049857610227565b806349a6078d116101435780636963d4381161011d5780636963d4381461040357806370a0823114610423578063715018a61461044357610227565b806349a6078d14610394578063511b6952146103c157806354f6127f146103e357610227565b80631d26fce6116101745780631d26fce614610302578063217b22701461032f5780632a3654a41461037457610227565b806301ffc9a71461028157806316e023b3146102b657806318160ddd146102e357610227565b3661022757346000036101f5576040517fe5099ee30000000000000000000000000000000000000000000000000000000081526004016101ec9060208082526004908201526000604082015260600190565b60405180910390fd5b6040517f61f4944200000000000000000000000000000000000000000000000000000000815260040160405180910390fd5b6000366060600482101561026b5782826040517fe5099ee30000000000000000000000000000000000000000000000000000000081526004016101ec929190612df5565b61027583836105f6565b80519350602001915050f35b34801561028d57600080fd5b506102a161029c366004612e42565b61076d565b60405190151581526020015b60405180910390f35b3480156102c257600080fd5b506102d66102d1366004612e84565b6107d2565b6040516102ad9190612f14565b3480156102ef57600080fd5b506098545b6040519081526020016102ad565b34801561030e57600080fd5b5061032261031d366004613034565b6107e5565b6040516102ad9190613098565b34801561033b57600080fd5b5061034f61034a366004613118565b6108e6565b60405173ffffffffffffffffffffffffffffffffffffffff90911681526020016102ad565b34801561038057600080fd5b506102a161038f36600461315a565b610945565b3480156103a057600080fd5b506103b46103af366004613118565b610951565b6040516102ad9190613184565b3480156103cd57600080fd5b506103e16103dc366004613285565b610973565b005b3480156103ef57600080fd5b506102d66103fe366004613118565b6109d0565b34801561040f57600080fd5b5061032261041e3660046132fe565b6109db565b34801561042f57600080fd5b506102f461043e366004613373565b610b24565b34801561044f57600080fd5b506103e1610b52565b34801561046457600080fd5b506103e161047336600461338e565b610b66565b34801561048457600080fd5b506103e1610493366004613558565b610d02565b6103e16104a636600461361d565b610e0a565b3480156104b757600080fd5b506103e16104c636600461365a565b610e58565b3480156104d757600080fd5b5060335473ffffffffffffffffffffffffffffffffffffffff1661034f565b6103e16105043660046136b1565b611096565b34801561051557600080fd5b50610529610524366004613373565b6110e0565b6040516102ad919061370b565b34801561054257600080fd5b506103e1610551366004613743565b611111565b34801561056257600080fd5b506103e16105713660046137ab565b61112b565b34801561058257600080fd5b506103e1610591366004613829565b611222565b3480156105a257600080fd5b506103e16105b1366004613743565b61123a565b3480156105c257600080fd5b506103226105d1366004613863565b6113b7565b3480156105e257600080fd5b506103e16105f1366004613373565b611462565b606060006106276000357fffffffff0000000000000000000000000000000000000000000000000000000016611519565b50905073ffffffffffffffffffffffffffffffffffffffff811661069d576040517fbb370b2b0000000000000000000000000000000000000000000000000000000081527fffffffff000000000000000000000000000000000000000000000000000000006000351660048201526024016101ec565b6000808273ffffffffffffffffffffffffffffffffffffffff1634878733346040516020016106cf9493929190613898565b604080517fffffffffffffffffffffffffffffffffffffffffffffffffffffffffffffffe081840301815290829052610707916138db565b60006040518083038185875af1925050503d8060008114610744576040519150601f19603f3d011682016040523d82523d6000602084013e610749565b606091505b5091509150811561075e579250610767915050565b80518060208301fd5b92915050565b60007fffffffff0000000000000000000000000000000000000000000000000000000082167f3a2717060000000000000000000000000000000000000000000000000000000014806107c357506107c3826115db565b80610767575061076782611631565b60606107de838361168e565b9392505050565b60608151835114610822576040517f2fa71dfe00000000000000000000000000000000000000000000000000000000815260040160405180910390fd5b825167ffffffffffffffff81111561083c5761083c612f27565b60405190808252806020026020018201604052801561086f57816020015b606081526020019060019003908161085a5790505b50905060005b83518110156108df576108ba848281518110610893576108936138f7565b60200260200101518483815181106108ad576108ad6138f7565b602002602001015161168e565b8282815181106108cc576108cc6138f7565b6020908102919091010152600101610875565b5092915050565b60008181526099602052604081205473ffffffffffffffffffffffffffffffffffffffff1680610767576040517fae8f9a36000000000000000000000000000000000000000000000000000000008152600481018490526024016101ec565b60006107de8383611765565b606061095c826117bc565b6000828152609b602052604090206107679061181a565b61097d3384611765565b6109bc576040517f1294d2a9000000000000000000000000000000000000000000000000000000008152600481018490523360248201526044016101ec565b6109c98585858585611827565b5050505050565b606061076782611aee565b60608167ffffffffffffffff8111156109f6576109f6612f27565b604051908082528060200260200182016040528015610a2957816020015b6060815260200190600190039081610a145790505b50905060005b828110156108df5760008030868685818110610a4d57610a4d6138f7565b9050602002810190610a5f9190613926565b604051610a6d929190613992565b600060405180830381855af49150503d8060008114610aa8576040519150601f19603f3d011682016040523d82523d6000602084013e610aad565b606091505b509150915081610afc57805115610ac75780518082602001fd5b6040517f234eb819000000000000000000000000000000000000000000000000000000008152600481018490526024016101ec565b80848481518110610b0f57610b0f6138f7565b60209081029190910101525050600101610a2f565b73ffffffffffffffffffffffffffffffffffffffff81166000908152609a6020526040812061076790611b90565b610b5a611b9a565b610b646000611c1b565b565b600054610100900460ff1615808015610b865750600054600160ff909116105b80610ba05750303b158015610ba0575060005460ff166001145b610c2c576040517f08c379a000000000000000000000000000000000000000000000000000000000815260206004820152602e60248201527f496e697469616c697a61626c653a20636f6e747261637420697320616c72656160448201527f647920696e697469616c697a656400000000000000000000000000000000000060648201526084016101ec565b600080547fffffffffffffffffffffffffffffffffffffffffffffffffffffffffffffff001660011790558015610c8a57600080547fffffffffffffffffffffffffffffffffffffffffffffffffffffffffffff00ff166101001790555b610c978686868686611c92565b8015610cfa57600080547fffffffffffffffffffffffffffffffffffffffffffffffffffffffffffff00ff169055604051600181527f7f26b83ff96e1f2b6a682f133852f6798a09c465da95921460cefb38474024989060200160405180910390a15b505050505050565b8451845181141580610d15575083518114155b80610d21575082518114155b80610d2d575081518114155b15610d64576040517f93a8311900000000000000000000000000000000000000000000000000000000815260040160405180910390fd5b60005b81811015610e0157610df9878281518110610d8457610d846138f7565b6020026020010151878381518110610d9e57610d9e6138f7565b6020026020010151878481518110610db857610db86138f7565b6020026020010151878581518110610dd257610dd26138f7565b6020026020010151878681518110610dec57610dec6138f7565b6020026020010151610973565b600101610d67565b50505050505050565b610e12611b9a565b3415610e4a576040517ff36ba73700000000000000000000000000000000000000000000000000000000815260040160405180910390fd5b610e548282611d36565b5050565b6000610e63836108e6565b905073ffffffffffffffffffffffffffffffffffffffff81163314610ed9576040517f5b271ea200000000000000000000000000000000000000000000000000000000815273ffffffffffffffffffffffffffffffffffffffff82166004820152602481018490523360448201526064016101ec565b73ffffffffffffffffffffffffffffffffffffffff8416610f26576040517f9577b8b300000000000000000000000000000000000000000000000000000000815260040160405180910390fd5b8373ffffffffffffffffffffffffffffffffffffffff168173ffffffffffffffffffffffffffffffffffffffff1603610f8b576040517f89fdad6200000000000000000000000000000000000000000000000000000000815260040160405180910390fd5b6000838152609b60205260408120610fa39086611d99565b905080610ffb576040517fa7626b6800000000000000000000000000000000000000000000000000000000815273ffffffffffffffffffffffffffffffffffffffff86166004820152602481018590526044016101ec565b838273ffffffffffffffffffffffffffffffffffffffff168673ffffffffffffffffffffffffffffffffffffffff167f1b1b58aa2ec0cec2228b2d37124556d41f5a1f7b12f089171f896cc236671215866040516110599190612f14565b60405180910390a46000338560018660405160200161107b94939291906139a2565b6040516020818303038152906040529050610cfa8682611dbb565b61109e611b9a565b34156110d6576040517ff36ba73700000000000000000000000000000000000000000000000000000000815260040160405180910390fd5b610e548282611de6565b73ffffffffffffffffffffffffffffffffffffffff81166000908152609a602052604090206060906107679061181a565b611119611b9a565b61112584848484611eac565b50505050565b611133611b9a565b8151835114158061114657508051825114155b1561117d576040517f2fa71dfe00000000000000000000000000000000000000000000000000000000815260040160405180910390fd5b82516000036111b8576040517f80c9830500000000000000000000000000000000000000000000000000000000815260040160405180910390fd5b60005b83518110156111255761121a8482815181106111d9576111d96138f7565b60200260200101518483815181106111f3576111f36138f7565b602002602001015184848151811061120d5761120d6138f7565b60200260200101516120c0565b6001016111bb565b61122a611b9a565b6112358383836120c0565b505050565b6000611245846108e6565b90503373ffffffffffffffffffffffffffffffffffffffff8216146112d85773ffffffffffffffffffffffffffffffffffffffff851633146112d8576040517f760b5acd00000000000000000000000000000000000000000000000000000000815233600482015273ffffffffffffffffffffffffffffffffffffffff82166024820152604481018590526064016101ec565b73ffffffffffffffffffffffffffffffffffffffff8516611325576040517f9577b8b300000000000000000000000000000000000000000000000000000000815260040160405180910390fd5b8473ffffffffffffffffffffffffffffffffffffffff168173ffffffffffffffffffffffffffffffffffffffff160361138a576040517f89fdad6200000000000000000000000000000000000000000000000000000000815260040160405180910390fd5b6113978582868686612150565b82156109c9576000818560008560405160200161107b94939291906139a2565b6060815167ffffffffffffffff8111156113d3576113d3612f27565b60405190808252806020026020018201604052801561140657816020015b60608152602001906001900390816113f15790505b50905060005b825181101561145c5761143783828151811061142a5761142a6138f7565b6020026020010151611aee565b828281518110611449576114496138f7565b602090810291909101015260010161140c565b50919050565b61146a611b9a565b73ffffffffffffffffffffffffffffffffffffffff811661150d576040517f08c379a000000000000000000000000000000000000000000000000000000000815260206004820152602660248201527f4f776e61626c653a206e6577206f776e657220697320746865207a65726f206160448201527f646472657373000000000000000000000000000000000000000000000000000060648201526084016101ec565b61151681611c1b565b50565b600080806115697fcee78b4094da86011096000000000000000000000000000000000000000000007fffffffff000000000000000000000000000000000000000000000000000000008616612230565b9050600061157682611aee565b9050805160141415801561158a5750805115155b156115c357806040517f42bfe79f0000000000000000000000000000000000000000000000000000000081526004016101ec9190612f14565b6115cc816139e9565b60601c95600195509350505050565b60007fffffffff0000000000000000000000000000000000000000000000000000000082167fa918fa6b0000000000000000000000000000000000000000000000000000000014806107675750610767826122b4565b60008061165d7f01ffc9a700000000000000000000000000000000000000000000000000000000611519565b50905073ffffffffffffffffffffffffffffffffffffffff81166116845750600092915050565b6107de818461234b565b60606097600084846040516020016116b0929190918252602082015260400190565b60405160208183030381529060405280519060200120815260200190815260200160002080546116df90613a39565b80601f016020809104026020016040519081016040528092919081815260200182805461170b90613a39565b80156117585780601f1061172d57610100808354040283529160200191611758565b820191906000526020600020905b81548152906001019060200180831161173b57829003601f168201915b5050505050905092915050565b6000611770826108e6565b73ffffffffffffffffffffffffffffffffffffffff168373ffffffffffffffffffffffffffffffffffffffff1614806107de57506000828152609b602052604090206107de908461241a565b60008181526099602052604090205473ffffffffffffffffffffffffffffffffffffffff16611516576040517fae8f9a36000000000000000000000000000000000000000000000000000000008152600481018290526024016101ec565b606060006107de83612449565b6000611832846108e6565b90508573ffffffffffffffffffffffffffffffffffffffff168173ffffffffffffffffffffffffffffffffffffffff16146118c0576040517f5b271ea200000000000000000000000000000000000000000000000000000000815273ffffffffffffffffffffffffffffffffffffffff808316600483015260248201869052871660448201526064016101ec565b73ffffffffffffffffffffffffffffffffffffffff851661190d576040517f24ecef4d00000000000000000000000000000000000000000000000000000000815260040160405180910390fd5b6000611918856108e6565b90508073ffffffffffffffffffffffffffffffffffffffff168273ffffffffffffffffffffffffffffffffffffffff16146119a6576040517f5a9c31d30000000000000000000000000000000000000000000000000000000081526004810186905273ffffffffffffffffffffffffffffffffffffffff8084166024830152821660448201526064016101ec565b6119b087866124a4565b73ffffffffffffffffffffffffffffffffffffffff87166000908152609a602052604090206119df90866124fc565b5073ffffffffffffffffffffffffffffffffffffffff86166000908152609a60205260409020611a0f9086612508565b506000858152609960205260409081902080547fffffffffffffffffffffffff00000000000000000000000000000000000000001673ffffffffffffffffffffffffffffffffffffffff89811691821790925591518792918a16907fb333c813a7426a7a11e2b190cad52c44119421594b47f6f32ace6d8c7207b2bf90611a9b9033908a908a90613a86565b60405180910390a460003388888887604051602001611abe959493929190613ac6565b6040516020818303038152906040529050611ad98882612514565b611ae487868361253f565b5050505050505050565b6000818152609760205260409020805460609190611b0b90613a39565b80601f0160208091040260200160405190810160405280929190818152602001828054611b3790613a39565b8015611b845780601f10611b5957610100808354040283529160200191611b84565b820191906000526020600020905b815481529060010190602001808311611b6757829003601f168201915b50505050509050919050565b6000610767825490565b60335473ffffffffffffffffffffffffffffffffffffffff163314610b64576040517f08c379a000000000000000000000000000000000000000000000000000000000815260206004820181905260248201527f4f776e61626c653a2063616c6c6572206973206e6f7420746865206f776e657260448201526064016101ec565b6033805473ffffffffffffffffffffffffffffffffffffffff8381167fffffffffffffffffffffffff0000000000000000000000000000000000000000831681179093556040519116919082907f8be0079c531659141344cd1fd0a4f28419497f9722a3daafe3b4186f6b6457e090600090a35050565b600054610100900460ff16611d29576040517f08c379a000000000000000000000000000000000000000000000000000000000815260206004820152602b60248201527f496e697469616c697a61626c653a20636f6e7472616374206973206e6f74206960448201527f6e697469616c697a696e6700000000000000000000000000000000000000000060648201526084016101ec565b6109c985858585856126fd565b7f098a16c9e50e3e99b3e797305c146898d294e5aec55a47e213cb3611ccf17e738201611d8f576040517f3664800a00000000000000000000000000000000000000000000000000000000815260040160405180910390fd5b610e5482826127e2565b60006107de8373ffffffffffffffffffffffffffffffffffffffff8416612942565b610e54827f8a1c15a8799f71b547e08e2bcb2e85257e81b0a07eee2ce6712549eef1f0097083612991565b8051825114611e21576040517f3bcc897900000000000000000000000000000000000000000000000000000000815260040160405180910390fd5b8151600003611e5c576040517f97da5f9500000000000000000000000000000000000000000000000000000000815260040160405180910390fd5b60005b825181101561123557611ea4838281518110611e7d57611e7d6138f7565b6020026020010151838381518110611e9757611e976138f7565b6020026020010151611d36565b600101611e5f565b73ffffffffffffffffffffffffffffffffffffffff8416611ef9576040517f24ecef4d00000000000000000000000000000000000000000000000000000000815260040160405180910390fd5b60008381526099602052604090205473ffffffffffffffffffffffffffffffffffffffff1615611f58576040517f34c7b511000000000000000000000000000000000000000000000000000000008152600481018490526024016101ec565b60008381526099602052604090205473ffffffffffffffffffffffffffffffffffffffff1615611fb7576040517f34c7b511000000000000000000000000000000000000000000000000000000008152600481018490526024016101ec565b609860008154611fc690613b3c565b9091555073ffffffffffffffffffffffffffffffffffffffff84166000908152609a60205260409020611ff99084612508565b5060008381526099602052604080822080547fffffffffffffffffffffffff00000000000000000000000000000000000000001673ffffffffffffffffffffffffffffffffffffffff881690811790915590518592907fb333c813a7426a7a11e2b190cad52c44119421594b47f6f32ace6d8c7207b2bf9061208090339088908890613a86565b60405180910390a460003360008686856040516020016120a4959493929190613ac6565b60405160208183030381529060405290506109c985848361253f565b806097600085856040516020016120e1929190918252602082015260400190565b60405160208183030381529060405280519060200120815260200190815260200160002090816121119190613bba565b5081837fa6e4251f855f750545fe414f120db91c76b88def14d120969e5bb2d3f05debbb836040516121439190612f14565b60405180910390a3505050565b6000838152609b602052604081206121689087612a2a565b9050806121c0576040517f4aa31a8c00000000000000000000000000000000000000000000000000000000815273ffffffffffffffffffffffffffffffffffffffff87166004820152602481018590526044016101ec565b838573ffffffffffffffffffffffffffffffffffffffff168773ffffffffffffffffffffffffffffffffffffffff167fc78cd419d6136f9f1c1c6aec1d3fae098cffaf8bc86314a8f2685e32fe574e3c8686604051612220929190613cd4565b60405180910390a4505050505050565b604080517fffffffffffffffffffff00000000000000000000000000000000000000000000841660208201526000602a82018190527fffffffffffffffffffffffffffffffffffffffff0000000000000000000000008416602c830152918291016040516020818303038152906040529050806122ac90613cef565b949350505050565b60007fffffffff0000000000000000000000000000000000000000000000000000000082167f629aa69400000000000000000000000000000000000000000000000000000000148061076757507f01ffc9a7000000000000000000000000000000000000000000000000000000007fffffffff00000000000000000000000000000000000000000000000000000000831614610767565b604080517fffffffff000000000000000000000000000000000000000000000000000000008316602480830191909152825180830390910181526044909101909152602080820180517bffffffffffffffffffffffffffffffffffffffffffffffffffffffff167f01ffc9a700000000000000000000000000000000000000000000000000000000178152825160009392849283928392918391908a617530fa92503d91506000519050828015612403575060208210155b801561240f5750600081115b979650505050505050565b73ffffffffffffffffffffffffffffffffffffffff8116600090815260018301602052604081205415156107de565b606081600001805480602002602001604051908101604052809291908181526020018280548015611b8457602002820191906000526020600020905b8154815260200190600101908083116124855750505050509050919050565b6000818152609b60205260408120906124bc82611b90565b90506000805b82811015610cfa576124d5846000612a4c565b91506124f4828787600060405180602001604052806000815250612150565b6001016124c2565b60006107de8383612a58565b60006107de8383612942565b610e54827fb23eae7e6d1564b295b4c3e3be402d9a2f0776c57bdf365903496f6fa481ab0083612991565b612569837f6bb56a140000000000000000000000000000000000000000000000000000000061234b565b15612647576040517f6bb56a1400000000000000000000000000000000000000000000000000000000815273ffffffffffffffffffffffffffffffffffffffff841690636bb56a14906125e2907f0b084a55ebf70fd3c06fd755269dac2212c4d3f0f4d09079780bfa50c1b2984d908590600401613d31565b6000604051808303816000875af1158015612601573d6000803e3d6000fd5b505050506040513d6000823e601f3d9081017fffffffffffffffffffffffffffffffffffffffffffffffffffffffffffffffe01682016040526111259190810190613d4a565b816112355773ffffffffffffffffffffffffffffffffffffffff83163b156126b3576040517f4349776d00000000000000000000000000000000000000000000000000000000815273ffffffffffffffffffffffffffffffffffffffff841660048201526024016101ec565b6040517f0317313700000000000000000000000000000000000000000000000000000000815273ffffffffffffffffffffffffffffffffffffffff841660048201526024016101ec565b600054610100900460ff16612794576040517f08c379a000000000000000000000000000000000000000000000000000000000815260206004820152602b60248201527f496e697469616c697a61626c653a20636f6e7472616374206973206e6f74206960448201527f6e697469616c697a696e6700000000000000000000000000000000000000000060648201526084016101ec565b6127a085858585612b4b565b60408051602081018390526109c9917ff675e9361af1c1664c1868cfa3eb97672d6b1a513aa5b81dec34c9ee330e818d91016040516020818303038152906040525b7f2145e1d6d074577dc71ef54c3807742b41b053a9352ae6b491331509acb9750f820161283b576040517f85c169bd00000000000000000000000000000000000000000000000000000000815260040160405180910390fd5b7fd0f59754f88971fe6bc5a6618cc9d5f1e859c58d16b22d1c7b2d3e2b246cd8aa8201612894576040517f76755b3800000000000000000000000000000000000000000000000000000000815260040160405180910390fd5b7f1fd9e056a24d14c4abc642fcc325992a946906d0dbc57dd70278aaf12842024d82016128ed576040517f4ef6d7fb00000000000000000000000000000000000000000000000000000000815260040160405180910390fd5b60008281526097602052604090206129058282613bba565b50817fece574603820d07bc9b91f2a932baadf4628aabcb8afba49776529c14a6104b2826040516129369190612f14565b60405180910390a25050565b600081815260018301602052604081205461298957508154600181810184556000848152602080822090930184905584548482528286019093526040902091909155610767565b506000610767565b6129d173ffffffffffffffffffffffffffffffffffffffff84167f6bb56a140000000000000000000000000000000000000000000000000000000061234b565b15611235576040517f6bb56a1400000000000000000000000000000000000000000000000000000000815273ffffffffffffffffffffffffffffffffffffffff841690636bb56a14906125e29085908590600401613d31565b60006107de8373ffffffffffffffffffffffffffffffffffffffff8416612a58565b60006107de8383612ce7565b60008181526001830160205260408120548015612b41576000612a7c600183613db8565b8554909150600090612a9090600190613db8565b9050818114612af5576000866000018281548110612ab057612ab06138f7565b9060005260206000200154905080876000018481548110612ad357612ad36138f7565b6000918252602080832090910192909255918252600188019052604090208390555b8554869080612b0657612b06613dcb565b600190038181906000526020600020016000905590558560010160008681526020019081526020016000206000905560019350505050610767565b6000915050610767565b600054610100900460ff16612be2576040517f08c379a000000000000000000000000000000000000000000000000000000000815260206004820152602b60248201527f496e697469616c697a61626c653a20636f6e7472616374206973206e6f74206960448201527f6e697469616c697a696e6700000000000000000000000000000000000000000060648201526084016101ec565b612beb82612d11565b612c4d7feafec4d89fa9619884b60000a4d96624a38f7ac2d8d9a604ecf07c12c77e480c60001b6040518060400160405280600481526020017fa4d96624000000000000000000000000000000000000000000000000000000008152506128ed565b612c777fdeba1e292f8ba88238e10ab3c7f88bd4be4fac56cad5194b6ecceaf653468af1856128ed565b612ca17f2f0a68ab07768e01943a599e73362a0e17a63a72e94dd2e384d2c1d4db932756846128ed565b6040805160208101839052611125917fe0261fa95db2eb3b5439bd033cda66d56b96f92f243a8228fd87550ed7bdfdb391016040516020818303038152906040526128ed565b6000826000018281548110612cfe57612cfe6138f7565b9060005260206000200154905092915050565b600054610100900460ff16612da8576040517f08c379a000000000000000000000000000000000000000000000000000000000815260206004820152602b60248201527f496e697469616c697a61626c653a20636f6e7472616374206973206e6f74206960448201527f6e697469616c697a696e6700000000000000000000000000000000000000000060648201526084016101ec565b73ffffffffffffffffffffffffffffffffffffffff811661150d576040517f1ad8836c00000000000000000000000000000000000000000000000000000000815260040160405180910390fd5b60208152816020820152818360408301376000818301604090810191909152601f9092017fffffffffffffffffffffffffffffffffffffffffffffffffffffffffffffffe0160101919050565b600060208284031215612e5457600080fd5b81357fffffffff00000000000000000000000000000000000000000000000000000000811681146107de57600080fd5b60008060408385031215612e9757600080fd5b50508035926020909101359150565b60005b83811015612ec1578181015183820152602001612ea9565b50506000910152565b60008151808452612ee2816020860160208601612ea6565b601f017fffffffffffffffffffffffffffffffffffffffffffffffffffffffffffffffe0169290920160200192915050565b6020815260006107de6020830184612eca565b7f4e487b7100000000000000000000000000000000000000000000000000000000600052604160045260246000fd5b604051601f82017fffffffffffffffffffffffffffffffffffffffffffffffffffffffffffffffe016810167ffffffffffffffff81118282101715612f9d57612f9d612f27565b604052919050565b600067ffffffffffffffff821115612fbf57612fbf612f27565b5060051b60200190565b600082601f830112612fda57600080fd5b81356020612fef612fea83612fa5565b612f56565b82815260059290921b8401810191818101908684111561300e57600080fd5b8286015b848110156130295780358352918301918301613012565b509695505050505050565b6000806040838503121561304757600080fd5b823567ffffffffffffffff8082111561305f57600080fd5b61306b86838701612fc9565b9350602085013591508082111561308157600080fd5b5061308e85828601612fc9565b9150509250929050565b6000602080830181845280855180835260408601915060408160051b870101925083870160005b8281101561310b577fffffffffffffffffffffffffffffffffffffffffffffffffffffffffffffffc08886030184526130f9858351612eca565b945092850192908501906001016130bf565b5092979650505050505050565b60006020828403121561312a57600080fd5b5035919050565b803573ffffffffffffffffffffffffffffffffffffffff8116811461315557600080fd5b919050565b6000806040838503121561316d57600080fd5b61317683613131565b946020939093013593505050565b6020808252825182820181905260009190848201906040850190845b818110156131d257835173ffffffffffffffffffffffffffffffffffffffff16835292840192918401916001016131a0565b50909695505050505050565b8035801515811461315557600080fd5b600067ffffffffffffffff82111561320857613208612f27565b50601f017fffffffffffffffffffffffffffffffffffffffffffffffffffffffffffffffe01660200190565b600082601f83011261324557600080fd5b8135613253612fea826131ee565b81815284602083860101111561326857600080fd5b816020850160208301376000918101602001919091529392505050565b600080600080600060a0868803121561329d57600080fd5b6132a686613131565b94506132b460208701613131565b9350604086013592506132c9606087016131de565b9150608086013567ffffffffffffffff8111156132e557600080fd5b6132f188828901613234565b9150509295509295909350565b6000806020838503121561331157600080fd5b823567ffffffffffffffff8082111561332957600080fd5b818501915085601f83011261333d57600080fd5b81358181111561334c57600080fd5b8660208260051b850101111561336157600080fd5b60209290920196919550909350505050565b60006020828403121561338557600080fd5b6107de82613131565b600080600080600060a086880312156133a657600080fd5b853567ffffffffffffffff808211156133be57600080fd5b6133ca89838a01613234565b965060208801359150808211156133e057600080fd5b506133ed88828901613234565b9450506133fc60408701613131565b94979396509394606081013594506080013592915050565b600082601f83011261342557600080fd5b81356020613435612fea83612fa5565b82815260059290921b8401810191818101908684111561345457600080fd5b8286015b848110156130295761346981613131565b8352918301918301613458565b600082601f83011261348757600080fd5b81356020613497612fea83612fa5565b82815260059290921b840181019181810190868411156134b657600080fd5b8286015b84811015613029576134cb816131de565b83529183019183016134ba565b600082601f8301126134e957600080fd5b813560206134f9612fea83612fa5565b82815260059290921b8401810191818101908684111561351857600080fd5b8286015b8481101561302957803567ffffffffffffffff81111561353c5760008081fd5b61354a8986838b0101613234565b84525091830191830161351c565b600080600080600060a0868803121561357057600080fd5b853567ffffffffffffffff8082111561358857600080fd5b61359489838a01613414565b965060208801359150808211156135aa57600080fd5b6135b689838a01613414565b955060408801359150808211156135cc57600080fd5b6135d889838a01612fc9565b945060608801359150808211156135ee57600080fd5b6135fa89838a01613476565b9350608088013591508082111561361057600080fd5b506132f1888289016134d8565b6000806040838503121561363057600080fd5b82359150602083013567ffffffffffffffff81111561364e57600080fd5b61308e85828601613234565b60008060006060848603121561366f57600080fd5b61367884613131565b925060208401359150604084013567ffffffffffffffff81111561369b57600080fd5b6136a786828701613234565b9150509250925092565b600080604083850312156136c457600080fd5b823567ffffffffffffffff808211156136dc57600080fd5b6136e886838701612fc9565b935060208501359150808211156136fe57600080fd5b5061308e858286016134d8565b6020808252825182820181905260009190848201906040850190845b818110156131d257835183529284019291840191600101613727565b6000806000806080858703121561375957600080fd5b61376285613131565b935060208501359250613777604086016131de565b9150606085013567ffffffffffffffff81111561379357600080fd5b61379f87828801613234565b91505092959194509250565b6000806000606084860312156137c057600080fd5b833567ffffffffffffffff808211156137d857600080fd5b6137e487838801612fc9565b945060208601359150808211156137fa57600080fd5b61380687838801612fc9565b9350604086013591508082111561381c57600080fd5b506136a7868287016134d8565b60008060006060848603121561383e57600080fd5b8335925060208401359150604084013567ffffffffffffffff81111561369b57600080fd5b60006020828403121561387557600080fd5b813567ffffffffffffffff81111561388c57600080fd5b6122ac84828501612fc9565b8385823760609290921b7fffffffffffffffffffffffffffffffffffffffff00000000000000000000000016919092019081526014810191909152603401919050565b600082516138ed818460208701612ea6565b9190910192915050565b7f4e487b7100000000000000000000000000000000000000000000000000000000600052603260045260246000fd5b60008083357fffffffffffffffffffffffffffffffffffffffffffffffffffffffffffffffe184360301811261395b57600080fd5b83018035915067ffffffffffffffff82111561397657600080fd5b60200191503681900382131561398b57600080fd5b9250929050565b8183823760009101908152919050565b73ffffffffffffffffffffffffffffffffffffffff8516815283602082015282151560408201526080606082015260006139df6080830184612eca565b9695505050505050565b6000815160208301517fffffffffffffffffffffffffffffffffffffffff00000000000000000000000080821693506014831015613a315780818460140360031b1b83161693505b505050919050565b600181811c90821680613a4d57607f821691505b60208210810361145c577f4e487b7100000000000000000000000000000000000000000000000000000000600052602260045260246000fd5b73ffffffffffffffffffffffffffffffffffffffff841681528215156020820152606060408201526000613abd6060830184612eca565b95945050505050565b600073ffffffffffffffffffffffffffffffffffffffff8088168352808716602084015280861660408401525083606083015260a0608083015261240f60a0830184612eca565b7f4e487b7100000000000000000000000000000000000000000000000000000000600052601160045260246000fd5b60007fffffffffffffffffffffffffffffffffffffffffffffffffffffffffffffffff8203613b6d57613b6d613b0d565b5060010190565b601f82111561123557600081815260208120601f850160051c81016020861015613b9b5750805b601f850160051c820191505b81811015610cfa57828155600101613ba7565b815167ffffffffffffffff811115613bd457613bd4612f27565b613be881613be28454613a39565b84613b74565b602080601f831160018114613c3b5760008415613c055750858301515b7fffffffffffffffffffffffffffffffffffffffffffffffffffffffffffffffff600386901b1c1916600185901b178555610cfa565b6000858152602081207fffffffffffffffffffffffffffffffffffffffffffffffffffffffffffffffe08616915b82811015613c8857888601518255948401946001909101908401613c69565b5085821015613cc457878501517fffffffffffffffffffffffffffffffffffffffffffffffffffffffffffffffff600388901b60f8161c191681555b5050505050600190811b01905550565b82151581526040602082015260006122ac6040830184612eca565b8051602080830151919081101561145c577fffffffffffffffffffffffffffffffffffffffffffffffffffffffffffffffff60209190910360031b1b16919050565b8281526040602082015260006122ac6040830184612eca565b600060208284031215613d5c57600080fd5b815167ffffffffffffffff811115613d7357600080fd5b8201601f81018413613d8457600080fd5b8051613d92612fea826131ee565b818152856020838501011115613da757600080fd5b613abd826020830160208601612ea6565b8181038181111561076757610767613b0d565b7f4e487b7100000000000000000000000000000000000000000000000000000000600052603160045260246000fdfea264697066735822122098555e435255b1963dc3ecda698d9b404be3788ae616649ff44effb3e0cc2f6f64736f6c63430008110033",
  "linkReferences": {},
  "deployedLinkReferences": {}
}