{
  "_format": "hh-sol-artifact-1",
  "contractName": "LSP8Mintable",
  "sourceName": "contracts/presets/LSP8Mintable copy.sol",
  "abi": [
    {
      "inputs": [
        {
          "internalType": "string",
          "name": "name_",
          "type": "string"
        },
        {
          "internalType": "string",
          "name": "symbol_",
          "type": "string"
        },
        {
          "internalType": "address",
          "name": "newOwner_",
          "type": "address"
        },
        {
          "internalType": "uint256",
          "name": "lsp4TokenType_",
          "type": "uint256"
        },
        {
          "internalType": "uint256",
          "name": "lsp8TokenIdFormat_",
          "type": "uint256"
        }
      ],
      "stateMutability": "nonpayable",
      "type": "constructor"
    },
    {
      "inputs": [],
      "name": "ERC725Y_DataKeysValuesEmptyArray",
      "type": "error"
    },
    {
      "inputs": [],
      "name": "ERC725Y_DataKeysValuesLengthMismatch",
      "type": "error"
    },
    {
      "inputs": [],
      "name": "ERC725Y_MsgValueDisallowed",
      "type": "error"
    },
    {
      "inputs": [
        {
          "internalType": "bytes",
          "name": "storedData",
          "type": "bytes"
        }
      ],
      "name": "InvalidExtensionAddress",
      "type": "error"
    },
    {
      "inputs": [
        {
          "internalType": "bytes",
          "name": "data",
          "type": "bytes"
        }
      ],
      "name": "InvalidFunctionSelector",
      "type": "error"
    },
    {
      "inputs": [],
      "name": "LSP4TokenNameNotEditable",
      "type": "error"
    },
    {
      "inputs": [],
      "name": "LSP4TokenSymbolNotEditable",
      "type": "error"
    },
    {
      "inputs": [],
      "name": "LSP4TokenTypeNotEditable",
      "type": "error"
    },
    {
      "inputs": [
        {
          "internalType": "uint256",
          "name": "callIndex",
          "type": "uint256"
        }
      ],
      "name": "LSP8BatchCallFailed",
      "type": "error"
    },
    {
      "inputs": [],
      "name": "LSP8CannotSendToAddressZero",
      "type": "error"
    },
    {
      "inputs": [],
      "name": "LSP8CannotUseAddressZeroAsOperator",
      "type": "error"
    },
    {
      "inputs": [],
      "name": "LSP8InvalidTransferBatch",
      "type": "error"
    },
    {
      "inputs": [
        {
          "internalType": "bytes32",
          "name": "tokenId",
          "type": "bytes32"
        }
      ],
      "name": "LSP8NonExistentTokenId",
      "type": "error"
    },
    {
      "inputs": [
        {
          "internalType": "address",
          "name": "operator",
          "type": "address"
        },
        {
          "internalType": "bytes32",
          "name": "tokenId",
          "type": "bytes32"
        }
      ],
      "name": "LSP8NonExistingOperator",
      "type": "error"
    },
    {
      "inputs": [
        {
          "internalType": "bytes32",
          "name": "tokenId",
          "type": "bytes32"
        },
        {
          "internalType": "address",
          "name": "caller",
          "type": "address"
        }
      ],
      "name": "LSP8NotTokenOperator",
      "type": "error"
    },
    {
      "inputs": [
        {
          "internalType": "address",
          "name": "tokenOwner",
          "type": "address"
        },
        {
          "internalType": "bytes32",
          "name": "tokenId",
          "type": "bytes32"
        },
        {
          "internalType": "address",
          "name": "caller",
          "type": "address"
        }
      ],
      "name": "LSP8NotTokenOwner",
      "type": "error"
    },
    {
      "inputs": [
        {
          "internalType": "address",
          "name": "tokenReceiver",
          "type": "address"
        }
      ],
      "name": "LSP8NotifyTokenReceiverContractMissingLSP1Interface",
      "type": "error"
    },
    {
      "inputs": [
        {
          "internalType": "address",
          "name": "tokenReceiver",
          "type": "address"
        }
      ],
      "name": "LSP8NotifyTokenReceiverIsEOA",
      "type": "error"
    },
    {
      "inputs": [
        {
          "internalType": "address",
          "name": "operator",
          "type": "address"
        },
        {
          "internalType": "bytes32",
          "name": "tokenId",
          "type": "bytes32"
        }
      ],
      "name": "LSP8OperatorAlreadyAuthorized",
      "type": "error"
    },
    {
      "inputs": [
        {
          "internalType": "address",
          "name": "caller",
          "type": "address"
        },
        {
          "internalType": "address",
          "name": "tokenOwner",
          "type": "address"
        },
        {
          "internalType": "bytes32",
          "name": "tokenId",
          "type": "bytes32"
        }
      ],
      "name": "LSP8RevokeOperatorNotAuthorized",
      "type": "error"
    },
    {
      "inputs": [],
      "name": "LSP8TokenContractCannotHoldValue",
      "type": "error"
    },
    {
      "inputs": [
        {
          "internalType": "bytes32",
          "name": "tokenId",
          "type": "bytes32"
        }
      ],
      "name": "LSP8TokenIdAlreadyMinted",
      "type": "error"
    },
    {
      "inputs": [],
      "name": "LSP8TokenIdFormatNotEditable",
      "type": "error"
    },
    {
      "inputs": [],
      "name": "LSP8TokenIdsDataEmptyArray",
      "type": "error"
    },
    {
      "inputs": [],
      "name": "LSP8TokenIdsDataLengthMismatch",
      "type": "error"
    },
    {
      "inputs": [],
      "name": "LSP8TokenOwnerCannotBeOperator",
      "type": "error"
    },
    {
      "inputs": [
        {
          "internalType": "bytes32",
          "name": "tokenId",
          "type": "bytes32"
        },
        {
          "internalType": "address",
          "name": "oldOwner",
          "type": "address"
        },
        {
          "internalType": "address",
          "name": "newOwner",
          "type": "address"
        }
      ],
      "name": "LSP8TokenOwnerChanged",
      "type": "error"
    },
    {
      "inputs": [
        {
          "internalType": "bytes4",
          "name": "functionSelector",
          "type": "bytes4"
        }
      ],
      "name": "NoExtensionFoundForFunctionSelector",
      "type": "error"
    },
    {
      "inputs": [],
      "name": "OwnableCannotSetZeroAddressAsOwner",
      "type": "error"
    },
    {
      "anonymous": false,
      "inputs": [
        {
          "indexed": true,
          "internalType": "bytes32",
          "name": "dataKey",
          "type": "bytes32"
        },
        {
          "indexed": false,
          "internalType": "bytes",
          "name": "dataValue",
          "type": "bytes"
        }
      ],
      "name": "DataChanged",
      "type": "event"
    },
    {
      "anonymous": false,
      "inputs": [
        {
          "indexed": true,
          "internalType": "address",
          "name": "operator",
          "type": "address"
        },
        {
          "indexed": true,
          "internalType": "address",
          "name": "tokenOwner",
          "type": "address"
        },
        {
          "indexed": true,
          "internalType": "bytes32",
          "name": "tokenId",
          "type": "bytes32"
        },
        {
          "indexed": false,
          "internalType": "bytes",
          "name": "operatorNotificationData",
          "type": "bytes"
        }
      ],
      "name": "OperatorAuthorizationChanged",
      "type": "event"
    },
    {
      "anonymous": false,
      "inputs": [
        {
          "indexed": true,
          "internalType": "address",
          "name": "operator",
          "type": "address"
        },
        {
          "indexed": true,
          "internalType": "address",
          "name": "tokenOwner",
          "type": "address"
        },
        {
          "indexed": true,
          "internalType": "bytes32",
          "name": "tokenId",
          "type": "bytes32"
        },
        {
          "indexed": false,
          "internalType": "bool",
          "name": "notified",
          "type": "bool"
        },
        {
          "indexed": false,
          "internalType": "bytes",
          "name": "operatorNotificationData",
          "type": "bytes"
        }
      ],
      "name": "OperatorRevoked",
      "type": "event"
    },
    {
      "anonymous": false,
      "inputs": [
        {
          "indexed": true,
          "internalType": "address",
          "name": "previousOwner",
          "type": "address"
        },
        {
          "indexed": true,
          "internalType": "address",
          "name": "newOwner",
          "type": "address"
        }
      ],
      "name": "OwnershipTransferred",
      "type": "event"
    },
    {
      "anonymous": false,
      "inputs": [
        {
          "indexed": true,
          "internalType": "address",
          "name": "contractAddress",
          "type": "address"
        },
        {
          "indexed": false,
          "internalType": "bytes32",
          "name": "tokenId",
          "type": "bytes32"
        }
      ],
      "name": "SubscriptionCreated",
      "type": "event"
    },
    {
      "anonymous": false,
      "inputs": [
        {
          "indexed": true,
          "internalType": "bytes32",
          "name": "tokenId",
          "type": "bytes32"
        },
        {
          "indexed": true,
          "internalType": "bytes32",
          "name": "dataKey",
          "type": "bytes32"
        },
        {
          "indexed": false,
          "internalType": "bytes",
          "name": "dataValue",
          "type": "bytes"
        }
      ],
      "name": "TokenIdDataChanged",
      "type": "event"
    },
    {
      "anonymous": false,
      "inputs": [
        {
          "indexed": false,
          "internalType": "address",
          "name": "operator",
          "type": "address"
        },
        {
          "indexed": true,
          "internalType": "address",
          "name": "from",
          "type": "address"
        },
        {
          "indexed": true,
          "internalType": "address",
          "name": "to",
          "type": "address"
        },
        {
          "indexed": true,
          "internalType": "bytes32",
          "name": "tokenId",
          "type": "bytes32"
        },
        {
          "indexed": false,
          "internalType": "bool",
          "name": "force",
          "type": "bool"
        },
        {
          "indexed": false,
          "internalType": "bytes",
          "name": "data",
          "type": "bytes"
        }
      ],
      "name": "Transfer",
      "type": "event"
    },
    {
      "stateMutability": "payable",
      "type": "fallback"
    },
    {
      "inputs": [
        {
          "internalType": "address",
          "name": "operator",
          "type": "address"
        },
        {
          "internalType": "bytes32",
          "name": "tokenId",
          "type": "bytes32"
        },
        {
          "internalType": "bytes",
          "name": "operatorNotificationData",
          "type": "bytes"
        }
      ],
      "name": "authorizeOperator",
      "outputs": [],
      "stateMutability": "nonpayable",
      "type": "function"
    },
    {
      "inputs": [
        {
          "internalType": "address",
          "name": "tokenOwner",
          "type": "address"
        }
      ],
      "name": "balanceOf",
      "outputs": [
        {
          "internalType": "uint256",
          "name": "",
          "type": "uint256"
        }
      ],
      "stateMutability": "view",
      "type": "function"
    },
    {
      "inputs": [
        {
          "internalType": "bytes[]",
          "name": "data",
          "type": "bytes[]"
        }
      ],
      "name": "batchCalls",
      "outputs": [
        {
          "internalType": "bytes[]",
          "name": "results",
          "type": "bytes[]"
        }
      ],
      "stateMutability": "nonpayable",
      "type": "function"
    },
    {
      "inputs": [
        {
          "internalType": "bytes32",
          "name": "",
          "type": "bytes32"
        }
      ],
      "name": "deployedContracts",
      "outputs": [
        {
          "internalType": "address",
          "name": "",
          "type": "address"
        }
      ],
      "stateMutability": "view",
      "type": "function"
    },
    {
      "inputs": [
        {
          "internalType": "bytes32",
          "name": "dataKey",
          "type": "bytes32"
        }
      ],
      "name": "getData",
      "outputs": [
        {
          "internalType": "bytes",
          "name": "dataValue",
          "type": "bytes"
        }
      ],
      "stateMutability": "view",
      "type": "function"
    },
    {
      "inputs": [
        {
          "internalType": "bytes32[]",
          "name": "dataKeys",
          "type": "bytes32[]"
        }
      ],
      "name": "getDataBatch",
      "outputs": [
        {
          "internalType": "bytes[]",
          "name": "dataValues",
          "type": "bytes[]"
        }
      ],
      "stateMutability": "view",
      "type": "function"
    },
    {
      "inputs": [
        {
          "internalType": "bytes32[]",
          "name": "tokenIds",
          "type": "bytes32[]"
        },
        {
          "internalType": "bytes32[]",
          "name": "dataKeys",
          "type": "bytes32[]"
        }
      ],
      "name": "getDataBatchForTokenIds",
      "outputs": [
        {
          "internalType": "bytes[]",
          "name": "dataValues",
          "type": "bytes[]"
        }
      ],
      "stateMutability": "view",
      "type": "function"
    },
    {
      "inputs": [
        {
          "internalType": "bytes32",
          "name": "tokenId",
          "type": "bytes32"
        },
        {
          "internalType": "bytes32",
          "name": "dataKey",
          "type": "bytes32"
        }
      ],
      "name": "getDataForTokenId",
      "outputs": [
        {
          "internalType": "bytes",
          "name": "dataValue",
          "type": "bytes"
        }
      ],
      "stateMutability": "view",
      "type": "function"
    },
    {
      "inputs": [
        {
          "internalType": "bytes32",
          "name": "tokenId",
          "type": "bytes32"
        }
      ],
      "name": "getOperatorsOf",
      "outputs": [
        {
          "internalType": "address[]",
          "name": "",
          "type": "address[]"
        }
      ],
      "stateMutability": "view",
      "type": "function"
    },
    {
      "inputs": [
        {
          "internalType": "address",
          "name": "operator",
          "type": "address"
        },
        {
          "internalType": "bytes32",
          "name": "tokenId",
          "type": "bytes32"
        }
      ],
      "name": "isOperatorFor",
      "outputs": [
        {
          "internalType": "bool",
          "name": "",
          "type": "bool"
        }
      ],
      "stateMutability": "view",
      "type": "function"
    },
    {
      "inputs": [
        {
          "internalType": "address",
          "name": "",
          "type": "address"
        },
        {
          "internalType": "bytes32",
          "name": "",
          "type": "bytes32"
        },
        {
          "internalType": "bool",
          "name": "",
          "type": "bool"
        },
        {
          "internalType": "bytes",
          "name": "",
          "type": "bytes"
        }
      ],
      "name": "mint",
      "outputs": [],
      "stateMutability": "pure",
      "type": "function"
    },
    {
      "inputs": [
        {
          "internalType": "address",
          "name": "to",
          "type": "address"
        },
        {
          "internalType": "string",
          "name": "name",
          "type": "string"
        },
        {
          "internalType": "address",
          "name": "recipient",
          "type": "address"
        },
        {
          "internalType": "address",
          "name": "stablecoin",
          "type": "address"
        }
      ],
      "name": "mintSubscription",
      "outputs": [],
      "stateMutability": "nonpayable",
      "type": "function"
    },
    {
      "inputs": [],
      "name": "owner",
      "outputs": [
        {
          "internalType": "address",
          "name": "",
          "type": "address"
        }
      ],
      "stateMutability": "view",
      "type": "function"
    },
    {
      "inputs": [],
      "name": "renounceOwnership",
      "outputs": [],
      "stateMutability": "nonpayable",
      "type": "function"
    },
    {
      "inputs": [
        {
          "internalType": "address",
          "name": "operator",
          "type": "address"
        },
        {
          "internalType": "bytes32",
          "name": "tokenId",
          "type": "bytes32"
        },
        {
          "internalType": "bool",
          "name": "notify",
          "type": "bool"
        },
        {
          "internalType": "bytes",
          "name": "operatorNotificationData",
          "type": "bytes"
        }
      ],
      "name": "revokeOperator",
      "outputs": [],
      "stateMutability": "nonpayable",
      "type": "function"
    },
    {
      "inputs": [
        {
          "internalType": "bytes32",
          "name": "dataKey",
          "type": "bytes32"
        },
        {
          "internalType": "bytes",
          "name": "dataValue",
          "type": "bytes"
        }
      ],
      "name": "setData",
      "outputs": [],
      "stateMutability": "payable",
      "type": "function"
    },
    {
      "inputs": [
        {
          "internalType": "bytes32[]",
          "name": "dataKeys",
          "type": "bytes32[]"
        },
        {
          "internalType": "bytes[]",
          "name": "dataValues",
          "type": "bytes[]"
        }
      ],
      "name": "setDataBatch",
      "outputs": [],
      "stateMutability": "payable",
      "type": "function"
    },
    {
      "inputs": [
        {
          "internalType": "bytes32[]",
          "name": "tokenIds",
          "type": "bytes32[]"
        },
        {
          "internalType": "bytes32[]",
          "name": "dataKeys",
          "type": "bytes32[]"
        },
        {
          "internalType": "bytes[]",
          "name": "dataValues",
          "type": "bytes[]"
        }
      ],
      "name": "setDataBatchForTokenIds",
      "outputs": [],
      "stateMutability": "nonpayable",
      "type": "function"
    },
    {
      "inputs": [
        {
          "internalType": "bytes32",
          "name": "tokenId",
          "type": "bytes32"
        },
        {
          "internalType": "bytes32",
          "name": "dataKey",
          "type": "bytes32"
        },
        {
          "internalType": "bytes",
          "name": "dataValue",
          "type": "bytes"
        }
      ],
      "name": "setDataForTokenId",
      "outputs": [],
      "stateMutability": "nonpayable",
      "type": "function"
    },
    {
      "inputs": [
        {
          "internalType": "bytes4",
          "name": "interfaceId",
          "type": "bytes4"
        }
      ],
      "name": "supportsInterface",
      "outputs": [
        {
          "internalType": "bool",
          "name": "",
          "type": "bool"
        }
      ],
      "stateMutability": "view",
      "type": "function"
    },
    {
      "inputs": [
        {
          "internalType": "address",
          "name": "tokenOwner",
          "type": "address"
        }
      ],
      "name": "tokenIdsOf",
      "outputs": [
        {
          "internalType": "bytes32[]",
          "name": "",
          "type": "bytes32[]"
        }
      ],
      "stateMutability": "view",
      "type": "function"
    },
    {
      "inputs": [
        {
          "internalType": "bytes32",
          "name": "tokenId",
          "type": "bytes32"
        }
      ],
      "name": "tokenOwnerOf",
      "outputs": [
        {
          "internalType": "address",
          "name": "",
          "type": "address"
        }
      ],
      "stateMutability": "view",
      "type": "function"
    },
    {
      "inputs": [],
      "name": "totalSupply",
      "outputs": [
        {
          "internalType": "uint256",
          "name": "",
          "type": "uint256"
        }
      ],
      "stateMutability": "view",
      "type": "function"
    },
    {
      "inputs": [
        {
          "internalType": "address",
          "name": "from",
          "type": "address"
        },
        {
          "internalType": "address",
          "name": "to",
          "type": "address"
        },
        {
          "internalType": "bytes32",
          "name": "tokenId",
          "type": "bytes32"
        },
        {
          "internalType": "bool",
          "name": "force",
          "type": "bool"
        },
        {
          "internalType": "bytes",
          "name": "data",
          "type": "bytes"
        }
      ],
      "name": "transfer",
      "outputs": [],
      "stateMutability": "nonpayable",
      "type": "function"
    },
    {
      "inputs": [
        {
          "internalType": "address[]",
          "name": "from",
          "type": "address[]"
        },
        {
          "internalType": "address[]",
          "name": "to",
          "type": "address[]"
        },
        {
          "internalType": "bytes32[]",
          "name": "tokenId",
          "type": "bytes32[]"
        },
        {
          "internalType": "bool[]",
          "name": "force",
          "type": "bool[]"
        },
        {
          "internalType": "bytes[]",
          "name": "data",
          "type": "bytes[]"
        }
      ],
      "name": "transferBatch",
      "outputs": [],
      "stateMutability": "nonpayable",
      "type": "function"
    },
    {
      "inputs": [
        {
          "internalType": "address",
          "name": "newOwner",
          "type": "address"
        }
      ],
      "name": "transferOwnership",
      "outputs": [],
      "stateMutability": "nonpayable",
      "type": "function"
    },
    {
      "inputs": [],
      "name": "withdraw",
      "outputs": [],
      "stateMutability": "nonpayable",
      "type": "function"
    },
    {
      "stateMutability": "payable",
      "type": "receive"
    }
  ],
  "bytecode": "0x60806040523480156200001157600080fd5b5060405162008ecc38038062008ecc833981016040819052620000349162000445565b8484848484848484848162000049336200020c565b6001600160a01b03811662000071576040516306b620db60e21b815260040160405180910390fd5b62000087816200020c60201b620018291760201c565b50620000de7feafec4d89fa9619884b60000a4d96624a38f7ac2d8d9a604ecf07c12c77e480c60001b604051806040016040528060048152602001632936598960e21b8152506200025c60201b6200189e1760201c565b620001187fdeba1e292f8ba88238e10ab3c7f88bd4be4fac56cad5194b6ecceaf653468af160001b856200025c60201b6200189e1760201c565b620001527f2f0a68ab07768e01943a599e73362a0e17a63a72e94dd2e384d2c1d4db93275660001b846200025c60201b6200189e1760201c565b6040805160208101839052620001a5917fe0261fa95db2eb3b5439bd033cda66d56b96f92f243a8228fd87550ed7bdfdb391016040516020818303038152906040526200025c60201b6200189e1760201c565b50506040805160208101859052620001fc93507ff675e9361af1c1664c1868cfa3eb97672d6b1a513aa5b81dec34c9ee330e818d925001604051602081830303815290604052620002b560201b620018f71760201c565b5050505050505050505062000673565b600080546001600160a01b038381166001600160a01b0319831681178455604051919092169283917f8be0079c531659141344cd1fd0a4f28419497f9722a3daafe3b4186f6b6457e09190a35050565b600082815260016020526040902062000276828262000572565b50817fece574603820d07bc9b91f2a932baadf4628aabcb8afba49776529c14a6104b282604051620002a991906200063e565b60405180910390a25050565b7f2145e1d6d074577dc71ef54c3807742b41b053a9352ae6b491331509acb9750f8201620002f6576040516385c169bd60e01b815260040160405180910390fd5b7fd0f59754f88971fe6bc5a6618cc9d5f1e859c58d16b22d1c7b2d3e2b246cd8aa82016200033757604051630eceab6760e31b815260040160405180910390fd5b7f1fd9e056a24d14c4abc642fcc325992a946906d0dbc57dd70278aaf12842024d82016200025c57604051634ef6d7fb60e01b815260040160405180910390fd5b634e487b7160e01b600052604160045260246000fd5b60005b83811015620003ab57818101518382015260200162000391565b50506000910152565b600082601f830112620003c657600080fd5b81516001600160401b0380821115620003e357620003e362000378565b604051601f8301601f19908116603f011681019082821181831017156200040e576200040e62000378565b816040528381528660208588010111156200042857600080fd5b6200043b8460208301602089016200038e565b9695505050505050565b600080600080600060a086880312156200045e57600080fd5b85516001600160401b03808211156200047657600080fd5b6200048489838a01620003b4565b965060208801519150808211156200049b57600080fd5b50620004aa88828901620003b4565b604088015190955090506001600160a01b0381168114620004ca57600080fd5b6060870151608090970151959894975095949392505050565b600181811c90821680620004f857607f821691505b6020821081036200051957634e487b7160e01b600052602260045260246000fd5b50919050565b601f8211156200056d57600081815260208120601f850160051c81016020861015620005485750805b601f850160051c820191505b81811015620005695782815560010162000554565b5050505b505050565b81516001600160401b038111156200058e576200058e62000378565b620005a6816200059f8454620004e3565b846200051f565b602080601f831160018114620005de5760008415620005c55750858301515b600019600386901b1c1916600185901b17855562000569565b600085815260208120601f198616915b828110156200060f57888601518255948401946001909101908401620005ee565b50858210156200062e5787850151600019600388901b60f8161c191681555b5050505050600190811b01905550565b60208152600082518060208401526200065f8160408501602087016200038e565b601f01601f19169190910160400192915050565b61884980620006836000396000f3fe608060405260043610620001db5760003560e01c806370a082311162000103578063a3b261f21162000097578063d6c1407c116200006d578063d6c1407c1462000686578063db8c966314620006ab578063dedff9c614620006d0578063f2fde38b14620006f5576200026b565b8063a3b261f21462000608578063af255b61146200063c578063be9f0e6f1462000661576200026b565b80637f23690c11620000d95780637f23690c146200058857806386a10ddd146200059f5780638da5cb5b14620005c45780639790242114620005f1576200026b565b806370a082311462000526578063715018a6146200054b5780637e87632c1462000563576200026b565b806323b94b54116200017b57806349a6078d116200015157806349a6078d1462000483578063511b695214620004b757806354f6127f14620004dc5780636963d4381462000501576200026b565b806323b94b5414620003ff5780632a3654a414620004465780633ccfd60b146200046b576200026b565b806318160ddd11620001b157806318160ddd146200035f5780631d26fce61462000380578063217b227014620003b4576200026b565b806301ffc9a714620002ca5780630f74c181146200030457806316e023b3146200032b576200026b565b366200026b573460000362000239576040517fe5099ee3000000000000000000000000000000000000000000000000000000008152600401620002309060208082526004908201526000604082015260600190565b60405180910390fd5b6040517f61f4944200000000000000000000000000000000000000000000000000000000815260040160405180910390fd5b60003660606004821015620002b25782826040517fe5099ee30000000000000000000000000000000000000000000000000000000081526004016200023092919062002e92565b620002be83836200071a565b80519350602001915050f35b348015620002d757600080fd5b50620002ef620002e936600462002edf565b6200089d565b60405190151581526020015b60405180910390f35b3480156200031157600080fd5b5062000329620003233660046200305a565b62000908565b005b3480156200033857600080fd5b50620003506200034a366004620030e8565b62000a14565b604051620002fb91906200317d565b3480156200036c57600080fd5b506002545b604051908152602001620002fb565b3480156200038d57600080fd5b50620003a56200039f36600462003226565b62000a29565b604051620002fb919062003291565b348015620003c157600080fd5b50620003d9620003d336600462003315565b62000b3d565b60405173ffffffffffffffffffffffffffffffffffffffff9091168152602001620002fb565b3480156200040c57600080fd5b50620003d96200041e36600462003315565b60066020526000908152604090205473ffffffffffffffffffffffffffffffffffffffff1681565b3480156200045357600080fd5b50620002ef620004653660046200332f565b62000b9e565b3480156200047857600080fd5b506200032962000bac565b3480156200049057600080fd5b50620004a8620004a236600462003315565b62000cf2565b604051620002fb91906200335c565b348015620004c457600080fd5b5062000329620004d6366004620033ec565b62000d18565b348015620004e957600080fd5b5062000350620004fb36600462003315565b62000d7b565b3480156200050e57600080fd5b50620003a5620005203660046200346f565b62000d88565b3480156200053357600080fd5b506200037162000545366004620034e9565b62000ee7565b3480156200055857600080fd5b506200032962000f17565b3480156200057057600080fd5b50620003296200058236600462003667565b62000f2f565b62000329620005993660046200373c565b6200104e565b348015620005ac57600080fd5b5062000329620005be3660046200377d565b6200109d565b348015620005d157600080fd5b5060005473ffffffffffffffffffffffffffffffffffffffff16620003d9565b6200032962000602366004620037da565b620012f3565b3480156200061557600080fd5b506200062d62000627366004620034e9565b62001342565b604051620002fb91906200383b565b3480156200064957600080fd5b50620003296200065b36600462003875565b62001375565b3480156200066e57600080fd5b506200032962000680366004620038e5565b620013fe565b3480156200069357600080fd5b5062000329620006a53660046200396d565b6200150d565b348015620006b857600080fd5b5062000329620006ca36600462003875565b62001529565b348015620006dd57600080fd5b50620003a5620006ef366004620039a9565b620016b2565b3480156200070257600080fd5b506200032962000714366004620034e9565b6200176c565b606060006200074d6000357fffffffff000000000000000000000000000000000000000000000000000000001662001a05565b50905073ffffffffffffffffffffffffffffffffffffffff8116620007c5576040517fbb370b2b0000000000000000000000000000000000000000000000000000000081527fffffffff0000000000000000000000000000000000000000000000000000000060003516600482015260240162000230565b6000808273ffffffffffffffffffffffffffffffffffffffff163487873334604051602001620007f99493929190620039e2565b604080517fffffffffffffffffffffffffffffffffffffffffffffffffffffffffffffffe081840301815290829052620008339162003a25565b60006040518083038185875af1925050503d806000811462000872576040519150601f19603f3d011682016040523d82523d6000602084013e62000877565b606091505b509150915081156200088e57925062000897915050565b80518060208301fd5b92915050565b60007fffffffff0000000000000000000000000000000000000000000000000000000082167f3a271706000000000000000000000000000000000000000000000000000000001480620008f65750620008f68262001ad1565b80620008975750620008978262001b2a565b600084848430856040516200091d9062002e84565b6200092d95949392919062003a43565b604051809103906000f0801580156200094a573d6000803e3d6000fd5b5073ffffffffffffffffffffffffffffffffffffffff8116600081815260066020908152604080832080547fffffffffffffffffffffffff000000000000000000000000000000000000000016851790558051918201905290815291925090620009bb908790839060019062001b8c565b8173ffffffffffffffffffffffffffffffffffffffff167f6a3a48b5925595b0ce0e996429280ed5bbb7492932b261842949ace66c606b1a8260405162000a0491815260200190565b60405180910390a2505050505050565b606062000a22838362001b9a565b9392505050565b6060815183511462000a67576040517f2fa71dfe00000000000000000000000000000000000000000000000000000000815260040160405180910390fd5b825167ffffffffffffffff81111562000a845762000a8462002f4d565b60405190808252806020026020018201604052801562000ab957816020015b606081526020019060019003908162000aa35790505b50905060005b835181101562000b365762000b0d84828151811062000ae25762000ae262003a94565b602002602001015184838151811062000aff5762000aff62003a94565b602002602001015162001b9a565b82828151811062000b225762000b2262003a94565b602090810291909101015260010162000abf565b5092915050565b60008181526003602052604081205473ffffffffffffffffffffffffffffffffffffffff168062000897576040517fae8f9a360000000000000000000000000000000000000000000000000000000081526004810184905260240162000230565b600062000a22838362001c7a565b62000bb662001cd6565b478062000c20576040517f08c379a000000000000000000000000000000000000000000000000000000000815260206004820152601460248201527f4e6f2066756e647320746f207769746864726177000000000000000000000000604482015260640162000230565b6000805460405173ffffffffffffffffffffffffffffffffffffffff9091169083908381818185875af1925050503d806000811462000c7c576040519150601f19603f3d011682016040523d82523d6000602084013e62000c81565b606091505b505090508062000cee576040517f08c379a000000000000000000000000000000000000000000000000000000000815260206004820152600f60248201527f5769746864726177206661696c65640000000000000000000000000000000000604482015260640162000230565b5050565b606062000cff8262001d59565b6000828152600560205260409020620008979062001db9565b62000d24338462001c7a565b62000d65576040517f1294d2a90000000000000000000000000000000000000000000000000000000081526004810184905233602482015260440162000230565b62000d74858585858562001dc8565b5050505050565b60606200089782620020b5565b60608167ffffffffffffffff81111562000da65762000da662002f4d565b60405190808252806020026020018201604052801562000ddb57816020015b606081526020019060019003908162000dc55790505b50905060005b8281101562000b36576000803086868581811062000e035762000e0362003a94565b905060200281019062000e17919062003ac3565b60405162000e2792919062003b32565b600060405180830381855af49150503d806000811462000e64576040519150601f19603f3d011682016040523d82523d6000602084013e62000e69565b606091505b50915091508162000ebb5780511562000e855780518082602001fd5b6040517f234eb8190000000000000000000000000000000000000000000000000000000081526004810184905260240162000230565b8084848151811062000ed15762000ed162003a94565b6020908102919091010152505060010162000de1565b73ffffffffffffffffffffffffffffffffffffffff8116600090815260046020526040812062000897906200215f565b62000f2162001cd6565b62000f2d600062001829565b565b845184518114158062000f43575083518114155b8062000f50575082518114155b8062000f5d575081518114155b1562000f95576040517f93a8311900000000000000000000000000000000000000000000000000000000815260040160405180910390fd5b60005b8181101562001045576200103c87828151811062000fba5762000fba62003a94565b602002602001015187838151811062000fd75762000fd762003a94565b602002602001015187848151811062000ff45762000ff462003a94565b602002602001015187858151811062001011576200101162003a94565b60200260200101518786815181106200102e576200102e62003a94565b602002602001015162000d18565b60010162000f98565b50505050505050565b6200105862001cd6565b341562001091576040517ff36ba73700000000000000000000000000000000000000000000000000000000815260040160405180910390fd5b62000cee82826200216a565b6000620010aa8362000b3d565b905073ffffffffffffffffffffffffffffffffffffffff8116331462001122576040517f5b271ea200000000000000000000000000000000000000000000000000000000815273ffffffffffffffffffffffffffffffffffffffff821660048201526024810184905233604482015260640162000230565b73ffffffffffffffffffffffffffffffffffffffff841662001170576040517f9577b8b300000000000000000000000000000000000000000000000000000000815260040160405180910390fd5b8373ffffffffffffffffffffffffffffffffffffffff168173ffffffffffffffffffffffffffffffffffffffff1603620011d6576040517f89fdad6200000000000000000000000000000000000000000000000000000000815260040160405180910390fd5b6000838152600560205260408120620011f09086620021d0565b9050806200124a576040517fa7626b6800000000000000000000000000000000000000000000000000000000815273ffffffffffffffffffffffffffffffffffffffff861660048201526024810185905260440162000230565b838273ffffffffffffffffffffffffffffffffffffffff168673ffffffffffffffffffffffffffffffffffffffff167f1b1b58aa2ec0cec2228b2d37124556d41f5a1f7b12f089171f896cc23667121586604051620012aa91906200317d565b60405180910390a460003385600186604051602001620012ce949392919062003b42565b6040516020818303038152906040529050620012eb8682620021f4565b505050505050565b620012fd62001cd6565b341562001336576040517ff36ba73700000000000000000000000000000000000000000000000000000000815260040160405180910390fd5b62000cee828262002221565b73ffffffffffffffffffffffffffffffffffffffff81166000908152600460205260409020606090620008979062001db9565b6040517f08c379a000000000000000000000000000000000000000000000000000000000815260206004820152603560248201527f446972656374206d696e74696e67206973206e6f7420616c6c6f7765642e205560448201527f7365206d696e74537562736372697074696f6e28290000000000000000000000606482015260840162000230565b6200140862001cd6565b815183511415806200141c57508051825114155b1562001454576040517f2fa71dfe00000000000000000000000000000000000000000000000000000000815260040160405180910390fd5b825160000362001490576040517f80c9830500000000000000000000000000000000000000000000000000000000815260040160405180910390fd5b60005b83518110156200150757620014fe848281518110620014b657620014b662003a94565b6020026020010151848381518110620014d357620014d362003a94565b6020026020010151848481518110620014f057620014f062003a94565b6020026020010151620022f3565b60010162001493565b50505050565b6200151762001cd6565b62001524838383620022f3565b505050565b6000620015368462000b3d565b90503373ffffffffffffffffffffffffffffffffffffffff821614620015cc5773ffffffffffffffffffffffffffffffffffffffff85163314620015cc576040517f760b5acd00000000000000000000000000000000000000000000000000000000815233600482015273ffffffffffffffffffffffffffffffffffffffff821660248201526044810185905260640162000230565b73ffffffffffffffffffffffffffffffffffffffff85166200161a576040517f9577b8b300000000000000000000000000000000000000000000000000000000815260040160405180910390fd5b8473ffffffffffffffffffffffffffffffffffffffff168173ffffffffffffffffffffffffffffffffffffffff160362001680576040517f89fdad6200000000000000000000000000000000000000000000000000000000815260040160405180910390fd5b6200168f858286868662002388565b821562000d745760008185600085604051602001620012ce949392919062003b42565b6060815167ffffffffffffffff811115620016d157620016d162002f4d565b6040519080825280602002602001820160405280156200170657816020015b6060815260200190600190039081620016f05790505b50905060005b825181101562001766576200173d8382815181106200172f576200172f62003a94565b6020026020010151620020b5565b82828151811062001752576200175262003a94565b60209081029190910101526001016200170c565b50919050565b6200177662001cd6565b73ffffffffffffffffffffffffffffffffffffffff81166200181b576040517f08c379a000000000000000000000000000000000000000000000000000000000815260206004820152602660248201527f4f776e61626c653a206e6577206f776e657220697320746865207a65726f206160448201527f6464726573730000000000000000000000000000000000000000000000000000606482015260840162000230565b620018268162001829565b50565b6000805473ffffffffffffffffffffffffffffffffffffffff8381167fffffffffffffffffffffffff0000000000000000000000000000000000000000831681178455604051919092169283917f8be0079c531659141344cd1fd0a4f28419497f9722a3daafe3b4186f6b6457e09190a35050565b6000828152600160205260409020620018b8828262003c24565b50817fece574603820d07bc9b91f2a932baadf4628aabcb8afba49776529c14a6104b282604051620018eb91906200317d565b60405180910390a25050565b7f2145e1d6d074577dc71ef54c3807742b41b053a9352ae6b491331509acb9750f820162001951576040517f85c169bd00000000000000000000000000000000000000000000000000000000815260040160405180910390fd5b7fd0f59754f88971fe6bc5a6618cc9d5f1e859c58d16b22d1c7b2d3e2b246cd8aa8201620019ab576040517f76755b3800000000000000000000000000000000000000000000000000000000815260040160405180910390fd5b7f1fd9e056a24d14c4abc642fcc325992a946906d0dbc57dd70278aaf12842024d82016200189e576040517f4ef6d7fb00000000000000000000000000000000000000000000000000000000815260040160405180910390fd5b6000808062001a577fcee78b4094da86011096000000000000000000000000000000000000000000007fffffffff0000000000000000000000000000000000000000000000000000000086166200246e565b9050600062001a6682620020b5565b9050805160141415801562001a7b5750805115155b1562001ab757806040517f42bfe79f0000000000000000000000000000000000000000000000000000000081526004016200023091906200317d565b62001ac28162003d4b565b60601c95600195509350505050565b60007fffffffff0000000000000000000000000000000000000000000000000000000082167fa918fa6b0000000000000000000000000000000000000000000000000000000014806200089757506200089782620024f4565b60008062001b587f01ffc9a70000000000000000000000000000000000000000000000000000000062001a05565b50905073ffffffffffffffffffffffffffffffffffffffff811662001b805750600092915050565b62000a2281846200258d565b62001507848484846200265e565b606060016000848460405160200162001bbd929190918252602082015260400190565b604051602081830303815290604052805190602001208152602001908152602001600020805462001bee9062003b8b565b80601f016020809104026020016040519081016040528092919081815260200182805462001c1c9062003b8b565b801562001c6d5780601f1062001c415761010080835404028352916020019162001c6d565b820191906000526020600020905b81548152906001019060200180831162001c4f57829003601f168201915b5050505050905092915050565b600062001c878262000b3d565b73ffffffffffffffffffffffffffffffffffffffff168373ffffffffffffffffffffffffffffffffffffffff16148062000a225750600082815260056020526040902062000a22908462002891565b60005473ffffffffffffffffffffffffffffffffffffffff16331462000f2d576040517f08c379a000000000000000000000000000000000000000000000000000000000815260206004820181905260248201527f4f776e61626c653a2063616c6c6572206973206e6f7420746865206f776e6572604482015260640162000230565b60008181526003602052604090205473ffffffffffffffffffffffffffffffffffffffff1662001826576040517fae8f9a360000000000000000000000000000000000000000000000000000000081526004810182905260240162000230565b6060600062000a2283620028c1565b600062001dd58462000b3d565b90508573ffffffffffffffffffffffffffffffffffffffff168173ffffffffffffffffffffffffffffffffffffffff161462001e65576040517f5b271ea200000000000000000000000000000000000000000000000000000000815273ffffffffffffffffffffffffffffffffffffffff8083166004830152602482018690528716604482015260640162000230565b73ffffffffffffffffffffffffffffffffffffffff851662001eb3576040517f24ecef4d00000000000000000000000000000000000000000000000000000000815260040160405180910390fd5b62001ec286868686866200291e565b600062001ecf8562000b3d565b90508073ffffffffffffffffffffffffffffffffffffffff168273ffffffffffffffffffffffffffffffffffffffff161462001f5f576040517f5a9c31d30000000000000000000000000000000000000000000000000000000081526004810186905273ffffffffffffffffffffffffffffffffffffffff80841660248301528216604482015260640162000230565b62001f6b8786620029be565b73ffffffffffffffffffffffffffffffffffffffff8716600090815260046020526040902062001f9c908662002a1e565b5073ffffffffffffffffffffffffffffffffffffffff8616600090815260046020526040902062001fce908662002a2c565b506000858152600360205260409081902080547fffffffffffffffffffffffff00000000000000000000000000000000000000001673ffffffffffffffffffffffffffffffffffffffff89811691821790925591518792918a16907fb333c813a7426a7a11e2b190cad52c44119421594b47f6f32ace6d8c7207b2bf906200205c9033908a908a9062003d9c565b60405180910390a4600033888888876040516020016200208195949392919062003dde565b60405160208183030381529060405290506200209e888262002a3a565b620020ab87868362002a67565b5050505050505050565b6000818152600160205260409020805460609190620020d49062003b8b565b80601f0160208091040260200160405190810160405280929190818152602001828054620021029062003b8b565b8015620021535780601f10620021275761010080835404028352916020019162002153565b820191906000526020600020905b8154815290600101906020018083116200213557829003601f168201915b50505050509050919050565b600062000897825490565b7f098a16c9e50e3e99b3e797305c146898d294e5aec55a47e213cb3611ccf17e738201620021c4576040517f3664800a00000000000000000000000000000000000000000000000000000000815260040160405180910390fd5b62000cee8282620018f7565b600062000a228373ffffffffffffffffffffffffffffffffffffffff841662002c31565b62000cee827f8a1c15a8799f71b547e08e2bcb2e85257e81b0a07eee2ce6712549eef1f009708362002c83565b80518251146200225d576040517f3bcc897900000000000000000000000000000000000000000000000000000000815260040160405180910390fd5b815160000362002299576040517f97da5f9500000000000000000000000000000000000000000000000000000000815260040160405180910390fd5b60005b82518110156200152457620022ea838281518110620022bf57620022bf62003a94565b6020026020010151838381518110620022dc57620022dc62003a94565b60200260200101516200216a565b6001016200229c565b8060016000858560405160200162002315929190918252602082015260400190565b604051602081830303815290604052805190602001208152602001908152602001600020908162002347919062003c24565b5081837fa6e4251f855f750545fe414f120db91c76b88def14d120969e5bb2d3f05debbb836040516200237b91906200317d565b60405180910390a3505050565b6000838152600560205260408120620023a2908762002d21565b905080620023fc576040517f4aa31a8c00000000000000000000000000000000000000000000000000000000815273ffffffffffffffffffffffffffffffffffffffff871660048201526024810185905260440162000230565b838573ffffffffffffffffffffffffffffffffffffffff168773ffffffffffffffffffffffffffffffffffffffff167fc78cd419d6136f9f1c1c6aec1d3fae098cffaf8bc86314a8f2685e32fe574e3c86866040516200245e92919062003e27565b60405180910390a4505050505050565b604080517fffffffffffffffffffff00000000000000000000000000000000000000000000841660208201526000602a82018190527fffffffffffffffffffffffffffffffffffffffff0000000000000000000000008416602c83015291829101604051602081830303815290604052905080620024ec9062003e44565b949350505050565b60007fffffffff0000000000000000000000000000000000000000000000000000000082167f629aa6940000000000000000000000000000000000000000000000000000000014806200089757507f01ffc9a7000000000000000000000000000000000000000000000000000000007fffffffff0000000000000000000000000000000000000000000000000000000083161462000897565b604080517fffffffff000000000000000000000000000000000000000000000000000000008316602480830191909152825180830390910181526044909101909152602080820180517bffffffffffffffffffffffffffffffffffffffffffffffffffffffff167f01ffc9a700000000000000000000000000000000000000000000000000000000178152825160009392849283928392918391908a617530fa92503d9150600051905082801562002646575060208210155b8015620026535750600081115b979650505050505050565b73ffffffffffffffffffffffffffffffffffffffff8416620026ac576040517f24ecef4d00000000000000000000000000000000000000000000000000000000815260040160405180910390fd5b60008381526003602052604090205473ffffffffffffffffffffffffffffffffffffffff16156200270d576040517f34c7b5110000000000000000000000000000000000000000000000000000000081526004810184905260240162000230565b6200271d6000858585856200291e565b60008381526003602052604090205473ffffffffffffffffffffffffffffffffffffffff16156200277e576040517f34c7b5110000000000000000000000000000000000000000000000000000000081526004810184905260240162000230565b6002600081546200278f9062003eb6565b9091555073ffffffffffffffffffffffffffffffffffffffff84166000908152600460205260409020620027c4908462002a2c565b5060008381526003602052604080822080547fffffffffffffffffffffffff00000000000000000000000000000000000000001673ffffffffffffffffffffffffffffffffffffffff881690811790915590518592907fb333c813a7426a7a11e2b190cad52c44119421594b47f6f32ace6d8c7207b2bf906200284d9033908890889062003d9c565b60405180910390a460003360008686856040516020016200287395949392919062003dde565b604051602081830303815290604052905062000d7485848362002a67565b73ffffffffffffffffffffffffffffffffffffffff81166000908152600183016020526040812054151562000a22565b6060816000018054806020026020016040519081016040528092919081815260200182805480156200215357602002820191906000526020600020905b815481526020019060010190808311620028fe5750505050509050919050565b73ffffffffffffffffffffffffffffffffffffffff8516158062002956575073ffffffffffffffffffffffffffffffffffffffff8416155b62000d74576040517f08c379a000000000000000000000000000000000000000000000000000000000815260206004820152601960248201527f5472616e736665727320617265206e6f7420616c6c6f77656400000000000000604482015260640162000230565b600081815260056020526040812090620029d8826200215f565b90506000805b82811015620012eb57620029f484600062002d45565b915062002a1582878760006040518060200160405280600081525062002388565b600101620029de565b600062000a22838362002d53565b600062000a22838362002c31565b62000cee827fb23eae7e6d1564b295b4c3e3be402d9a2f0776c57bdf365903496f6fa481ab008362002c83565b62002a93837f6bb56a14000000000000000000000000000000000000000000000000000000006200258d565b1562002b77576040517f6bb56a1400000000000000000000000000000000000000000000000000000000815273ffffffffffffffffffffffffffffffffffffffff841690636bb56a149062002b0f907f0b084a55ebf70fd3c06fd755269dac2212c4d3f0f4d09079780bfa50c1b2984d90859060040162003ef1565b6000604051808303816000875af115801562002b2f573d6000803e3d6000fd5b505050506040513d6000823e601f3d9081017fffffffffffffffffffffffffffffffffffffffffffffffffffffffffffffffe016820160405262001507919081019062003f0c565b81620015245773ffffffffffffffffffffffffffffffffffffffff83163b1562002be6576040517f4349776d00000000000000000000000000000000000000000000000000000000815273ffffffffffffffffffffffffffffffffffffffff8416600482015260240162000230565b6040517f0317313700000000000000000000000000000000000000000000000000000000815273ffffffffffffffffffffffffffffffffffffffff8416600482015260240162000230565b600081815260018301602052604081205462002c7a5750815460018181018455600084815260208082209093018490558454848252828601909352604090209190915562000897565b50600062000897565b62002cc573ffffffffffffffffffffffffffffffffffffffff84167f6bb56a14000000000000000000000000000000000000000000000000000000006200258d565b1562001524576040517f6bb56a1400000000000000000000000000000000000000000000000000000000815273ffffffffffffffffffffffffffffffffffffffff841690636bb56a149062002b0f908590859060040162003ef1565b600062000a228373ffffffffffffffffffffffffffffffffffffffff841662002d53565b600062000a22838362002e57565b6000818152600183016020526040812054801562002e4c57600062002d7a60018362003f83565b855490915060009062002d909060019062003f83565b905081811462002dfc57600086600001828154811062002db45762002db462003a94565b906000526020600020015490508087600001848154811062002dda5762002dda62003a94565b6000918252602080832090910192909255918252600188019052604090208390555b855486908062002e105762002e1062003f99565b60019003818190600052602060002001600090559055856001016000868152602001908152602001600020600090556001935050505062000897565b600091505062000897565b600082600001828154811062002e715762002e7162003a94565b9060005260206000200154905092915050565b61484b8062003fc983390190565b60208152816020820152818360408301376000818301604090810191909152601f9092017fffffffffffffffffffffffffffffffffffffffffffffffffffffffffffffffe0160101919050565b60006020828403121562002ef257600080fd5b81357fffffffff000000000000000000000000000000000000000000000000000000008116811462000a2257600080fd5b803573ffffffffffffffffffffffffffffffffffffffff8116811462002f4857600080fd5b919050565b7f4e487b7100000000000000000000000000000000000000000000000000000000600052604160045260246000fd5b604051601f82017fffffffffffffffffffffffffffffffffffffffffffffffffffffffffffffffe016810167ffffffffffffffff8111828210171562002fc65762002fc662002f4d565b604052919050565b600067ffffffffffffffff82111562002feb5762002feb62002f4d565b50601f017fffffffffffffffffffffffffffffffffffffffffffffffffffffffffffffffe01660200190565b60006200302e620030288462002fce565b62002f7c565b90508281528383830111156200304357600080fd5b828260208301376000602084830101529392505050565b600080600080608085870312156200307157600080fd5b6200307c8562002f23565b9350602085013567ffffffffffffffff8111156200309957600080fd5b8501601f81018713620030ab57600080fd5b620030bc8782356020840162003017565b935050620030cd6040860162002f23565b9150620030dd6060860162002f23565b905092959194509250565b60008060408385031215620030fc57600080fd5b50508035926020909101359150565b60005b83811015620031285781810151838201526020016200310e565b50506000910152565b600081518084526200314b8160208601602086016200310b565b601f017fffffffffffffffffffffffffffffffffffffffffffffffffffffffffffffffe0169290920160200192915050565b60208152600062000a22602083018462003131565b600067ffffffffffffffff821115620031af57620031af62002f4d565b5060051b60200190565b600082601f830112620031cb57600080fd5b81356020620031de620030288362003192565b82815260059290921b84018101918181019086841115620031fe57600080fd5b8286015b848110156200321b578035835291830191830162003202565b509695505050505050565b600080604083850312156200323a57600080fd5b823567ffffffffffffffff808211156200325357600080fd5b6200326186838701620031b9565b935060208501359150808211156200327857600080fd5b506200328785828601620031b9565b9150509250929050565b6000602080830181845280855180835260408601915060408160051b870101925083870160005b8281101562003308577fffffffffffffffffffffffffffffffffffffffffffffffffffffffffffffffc0888603018452620032f585835162003131565b94509285019290850190600101620032b8565b5092979650505050505050565b6000602082840312156200332857600080fd5b5035919050565b600080604083850312156200334357600080fd5b6200334e8362002f23565b946020939093013593505050565b6020808252825182820181905260009190848201906040850190845b81811015620033ac57835173ffffffffffffffffffffffffffffffffffffffff168352928401929184019160010162003378565b50909695505050505050565b8035801515811462002f4857600080fd5b600082601f830112620033db57600080fd5b62000a228383356020850162003017565b600080600080600060a086880312156200340557600080fd5b620034108662002f23565b9450620034206020870162002f23565b9350604086013592506200343760608701620033b8565b9150608086013567ffffffffffffffff8111156200345457600080fd5b6200346288828901620033c9565b9150509295509295909350565b600080602083850312156200348357600080fd5b823567ffffffffffffffff808211156200349c57600080fd5b818501915085601f830112620034b157600080fd5b813581811115620034c157600080fd5b8660208260051b8501011115620034d757600080fd5b60209290920196919550909350505050565b600060208284031215620034fc57600080fd5b62000a228262002f23565b600082601f8301126200351957600080fd5b813560206200352c620030288362003192565b82815260059290921b840181019181810190868411156200354c57600080fd5b8286015b848110156200321b57620035648162002f23565b835291830191830162003550565b600082601f8301126200358457600080fd5b8135602062003597620030288362003192565b82815260059290921b84018101918181019086841115620035b757600080fd5b8286015b848110156200321b57620035cf81620033b8565b8352918301918301620035bb565b600082601f830112620035ef57600080fd5b8135602062003602620030288362003192565b82815260059290921b840181019181810190868411156200362257600080fd5b8286015b848110156200321b57803567ffffffffffffffff811115620036485760008081fd5b620036588986838b0101620033c9565b84525091830191830162003626565b600080600080600060a086880312156200368057600080fd5b853567ffffffffffffffff808211156200369957600080fd5b620036a789838a0162003507565b96506020880135915080821115620036be57600080fd5b620036cc89838a0162003507565b95506040880135915080821115620036e357600080fd5b620036f189838a01620031b9565b945060608801359150808211156200370857600080fd5b6200371689838a0162003572565b935060808801359150808211156200372d57600080fd5b506200346288828901620035dd565b600080604083850312156200375057600080fd5b82359150602083013567ffffffffffffffff8111156200376f57600080fd5b6200328785828601620033c9565b6000806000606084860312156200379357600080fd5b6200379e8462002f23565b925060208401359150604084013567ffffffffffffffff811115620037c257600080fd5b620037d086828701620033c9565b9150509250925092565b60008060408385031215620037ee57600080fd5b823567ffffffffffffffff808211156200380757600080fd5b6200381586838701620031b9565b935060208501359150808211156200382c57600080fd5b506200328785828601620035dd565b6020808252825182820181905260009190848201906040850190845b81811015620033ac5783518352928401929184019160010162003857565b600080600080608085870312156200388c57600080fd5b620038978562002f23565b935060208501359250620038ae60408601620033b8565b9150606085013567ffffffffffffffff811115620038cb57600080fd5b620038d987828801620033c9565b91505092959194509250565b600080600060608486031215620038fb57600080fd5b833567ffffffffffffffff808211156200391457600080fd5b6200392287838801620031b9565b945060208601359150808211156200393957600080fd5b6200394787838801620031b9565b935060408601359150808211156200395e57600080fd5b50620037d086828701620035dd565b6000806000606084860312156200398357600080fd5b8335925060208401359150604084013567ffffffffffffffff811115620037c257600080fd5b600060208284031215620039bc57600080fd5b813567ffffffffffffffff811115620039d457600080fd5b620024ec84828501620031b9565b8385823760609290921b7fffffffffffffffffffffffffffffffffffffffff00000000000000000000000016919092019081526014810191909152603401919050565b6000825162003a398184602087016200310b565b9190910192915050565b600073ffffffffffffffffffffffffffffffffffffffff808816835260a0602084015262003a7560a084018862003131565b9581166040840152938416606083015250911660809091015292915050565b7f4e487b7100000000000000000000000000000000000000000000000000000000600052603260045260246000fd5b60008083357fffffffffffffffffffffffffffffffffffffffffffffffffffffffffffffffe184360301811262003af957600080fd5b83018035915067ffffffffffffffff82111562003b1557600080fd5b60200191503681900382131562003b2b57600080fd5b9250929050565b8183823760009101908152919050565b73ffffffffffffffffffffffffffffffffffffffff85168152836020820152821515604082015260806060820152600062003b81608083018462003131565b9695505050505050565b600181811c9082168062003ba057607f821691505b60208210810362001766577f4e487b7100000000000000000000000000000000000000000000000000000000600052602260045260246000fd5b601f8211156200152457600081815260208120601f850160051c8101602086101562003c035750805b601f850160051c820191505b81811015620012eb5782815560010162003c0f565b815167ffffffffffffffff81111562003c415762003c4162002f4d565b62003c598162003c52845462003b8b565b8462003bda565b602080601f83116001811462003caf576000841562003c785750858301515b7fffffffffffffffffffffffffffffffffffffffffffffffffffffffffffffffff600386901b1c1916600185901b178555620012eb565b6000858152602081207fffffffffffffffffffffffffffffffffffffffffffffffffffffffffffffffe08616915b8281101562003cfe5788860151825594840194600190910190840162003cdd565b508582101562003d3b57878501517fffffffffffffffffffffffffffffffffffffffffffffffffffffffffffffffff600388901b60f8161c191681555b5050505050600190811b01905550565b6000815160208301517fffffffffffffffffffffffffffffffffffffffff0000000000000000000000008082169350601483101562003d945780818460140360031b1b83161693505b505050919050565b73ffffffffffffffffffffffffffffffffffffffff84168152821515602082015260606040820152600062003dd5606083018462003131565b95945050505050565b600073ffffffffffffffffffffffffffffffffffffffff8088168352808716602084015280861660408401525083606083015260a060808301526200265360a083018462003131565b8215158152604060208201526000620024ec604083018462003131565b8051602080830151919081101562001766577fffffffffffffffffffffffffffffffffffffffffffffffffffffffffffffffff60209190910360031b1b16919050565b7f4e487b7100000000000000000000000000000000000000000000000000000000600052601160045260246000fd5b60007fffffffffffffffffffffffffffffffffffffffffffffffffffffffffffffffff820362003eea5762003eea62003e87565b5060010190565b828152604060208201526000620024ec604083018462003131565b60006020828403121562003f1f57600080fd5b815167ffffffffffffffff81111562003f3757600080fd5b8201601f8101841362003f4957600080fd5b805162003f5a620030288262002fce565b81815285602083850101111562003f7057600080fd5b62003dd58260208301602086016200310b565b8181038181111562000897576200089762003e87565b7f4e487b7100000000000000000000000000000000000000000000000000000000600052603160045260246000fdfe60806040523480156200001157600080fd5b506040516200484b3803806200484b8339810160408190526200003491620003a2565b60408051808201909152600481526329aaa13d60e11b60208201528490866000600184848484816200006633620002a0565b6001600160a01b0381166200008e576040516306b620db60e21b815260040160405180910390fd5b620000a481620002a060201b62001a0b1760201c565b50620000fb7feafec4d89fa9619884b60000a4d96624a38f7ac2d8d9a604ecf07c12c77e480c60001b604051806040016040528060048152602001632936598960e21b815250620002f060201b62001a801760201c565b620001357fdeba1e292f8ba88238e10ab3c7f88bd4be4fac56cad5194b6ecceaf653468af160001b85620002f060201b62001a801760201c565b6200016f7f2f0a68ab07768e01943a599e73362a0e17a63a72e94dd2e384d2c1d4db93275660001b84620002f060201b62001a801760201c565b6040805160208101839052620001c2917fe0261fa95db2eb3b5439bd033cda66d56b96f92f243a8228fd87550ed7bdfdb39101604051602081830303815290604052620002f060201b62001a801760201c565b50506002805493151560ff19909416939093179092555050600780546001600160a01b03808a166001600160a01b03199283161790925560098054898416908316179055600a805492881692909116821790556040805163313ce56760e01b8152905191955063313ce56794506004808201945060209350908290030181865afa15801562000255573d6000803e3d6000fd5b505050506040513d601f19601f820116820180604052508101906200027b9190620004a8565b600960146101000a81548160ff021916908360ff160217905550505050505062000664565b600080546001600160a01b038381166001600160a01b0319831681178455604051919092169283917f8be0079c531659141344cd1fd0a4f28419497f9722a3daafe3b4186f6b6457e09190a35050565b60008281526001602052604090206200030a828262000563565b50817fece574603820d07bc9b91f2a932baadf4628aabcb8afba49776529c14a6104b2826040516200033d91906200062f565b60405180910390a25050565b80516001600160a01b03811681146200036157600080fd5b919050565b634e487b7160e01b600052604160045260246000fd5b60005b83811015620003995781810151838201526020016200037f565b50506000910152565b600080600080600060a08688031215620003bb57600080fd5b620003c68662000349565b60208701519095506001600160401b0380821115620003e457600080fd5b818801915088601f830112620003f957600080fd5b8151818111156200040e576200040e62000366565b604051601f8201601f19908116603f0116810190838211818310171562000439576200043962000366565b816040528281528b60208487010111156200045357600080fd5b620004668360208301602088016200037c565b80985050505050506200047c6040870162000349565b92506200048c6060870162000349565b91506200049c6080870162000349565b90509295509295909350565b600060208284031215620004bb57600080fd5b815160ff81168114620004cd57600080fd5b9392505050565b600181811c90821680620004e957607f821691505b6020821081036200050a57634e487b7160e01b600052602260045260246000fd5b50919050565b601f8211156200055e57600081815260208120601f850160051c81016020861015620005395750805b601f850160051c820191505b818110156200055a5782815560010162000545565b5050505b505050565b81516001600160401b038111156200057f576200057f62000366565b6200059781620005908454620004d4565b8462000510565b602080601f831160018114620005cf5760008415620005b65750858301515b600019600386901b1c1916600185901b1785556200055a565b600085815260208120601f198616915b828110156200060057888601518255948401946001909101908401620005df565b50858210156200061f5787850151600019600388901b60f8161c191681555b5050505050600190811b01905550565b6020815260008251806020840152620006508160408501602087016200037c565b601f01601f19169190910160400192915050565b6141d780620006746000396000f3fe6080604052600436106102025760003560e01c80636963d4381161011d57806397902421116100b0578063d72fc29a1161007f578063f2fde38b11610064578063f2fde38b1461078c578063fcae4484146107ac578063fe90cab2146107c15761028f565b8063d72fc29a1461073f578063dedff9c61461076c5761028f565b806397902421146106d6578063b0e21e8a146106e9578063b49506fd146106ff578063b92ae87c1461071f5761028f565b806378381670116100ec578063783816701461066257806379eaaf61146106825780637f23690c146106985780638da5cb5b146106ab5761028f565b80636963d438146105bd57806370a08231146105ea578063715018a61461062d578063760d9bba146106425761028f565b80633013ce291161019557806354f6127f1161016457806354f6127f146104e65780635745ae281461051357806365aeaa951461057057806366d003ac146105905761028f565b80633013ce291461044057806330d0dc371461046d578063313ce5671461048d5780633b97e856146104b45761028f565b806318160ddd116101d157806318160ddd146103c157806318d4ef14146103e05780632bc1da82146104005780632d7667c9146104205761028f565b806301ffc9a7146102e9578063039af9eb1461031e5780630676c1b71461034d5780630f574ba71461039f5761028f565b3661028f573460000361025d576040517fe5099ee30000000000000000000000000000000000000000000000000000000081526004016102549060208082526004908201526000604082015260600190565b60405180910390fd5b6040517f388f5adc00000000000000000000000000000000000000000000000000000000815260040160405180910390fd5b600036606060048210156102d35782826040517fe5099ee3000000000000000000000000000000000000000000000000000000008152600401610254929190613131565b6102dd83836107e1565b80519350602001915050f35b3480156102f557600080fd5b5061030961030436600461317e565b610958565b60405190151581526020015b60405180910390f35b34801561032a57600080fd5b5061033e6103393660046131c0565b6109bd565b60405161031593929190613247565b34801561035957600080fd5b5060095461037a9073ffffffffffffffffffffffffffffffffffffffff1681565b60405173ffffffffffffffffffffffffffffffffffffffff9091168152602001610315565b3480156103ab57600080fd5b506103bf6103ba3660046131c0565b610a6b565b005b3480156103cd57600080fd5b506003545b604051908152602001610315565b3480156103ec57600080fd5b506103bf6103fb3660046133ae565b610c66565b34801561040c57600080fd5b506103bf61041b366004613482565b610e38565b34801561042c57600080fd5b506103bf61043b366004613626565b610eee565b34801561044c57600080fd5b50600a5461037a9073ffffffffffffffffffffffffffffffffffffffff1681565b34801561047957600080fd5b506103bf6104883660046136f8565b610ff6565b34801561049957600080fd5b506104a26110de565b60405160ff9091168152602001610315565b3480156104c057600080fd5b506009546104a29074010000000000000000000000000000000000000000900460ff1681565b3480156104f257600080fd5b506105066105013660046131c0565b6110f7565b6040516103159190613767565b34801561051f57600080fd5b5061055361052e36600461377a565b600d6020526000908152604090208054600182015460029092015460ff909116919083565b604080519315158452602084019290925290820152606001610315565b34801561057c57600080fd5b506103d261058b366004613795565b611102565b34801561059c57600080fd5b5060075461037a9073ffffffffffffffffffffffffffffffffffffffff1681565b3480156105c957600080fd5b506105dd6105d83660046137c8565b61119c565b6040516103159190613892565b3480156105f657600080fd5b506103d261060536600461377a565b73ffffffffffffffffffffffffffffffffffffffff1660009081526004602052604090205490565b34801561063957600080fd5b506103bf6112ec565b34801561064e57600080fd5b506103bf61065d3660046138a5565b611300565b34801561066e57600080fd5b506103bf61067d366004613911565b611335565b34801561068e57600080fd5b506103d2600c5481565b6103bf6106a6366004613961565b611459565b3480156106b757600080fd5b5060005473ffffffffffffffffffffffffffffffffffffffff1661037a565b6103bf6106e43660046139a8565b6114a3565b3480156106f557600080fd5b506103d260085481565b34801561070b57600080fd5b506103bf61071a366004613482565b6114ed565b34801561072b57600080fd5b5061030961073a36600461377a565b61152d565b34801561074b57600080fd5b5061075f61075a36600461377a565b61158b565b6040516103159190613a53565b34801561077857600080fd5b506105dd610787366004613a66565b6115bc565b34801561079857600080fd5b506103bf6107a736600461377a565b611667565b3480156107b857600080fd5b506103bf61171e565b3480156107cd57600080fd5b506103bf6107dc366004613a9b565b6118c8565b606060006108126000357fffffffff0000000000000000000000000000000000000000000000000000000016611ad5565b50905073ffffffffffffffffffffffffffffffffffffffff8116610888576040517fbb370b2b0000000000000000000000000000000000000000000000000000000081527fffffffff00000000000000000000000000000000000000000000000000000000600035166004820152602401610254565b6000808273ffffffffffffffffffffffffffffffffffffffff1634878733346040516020016108ba9493929190613af4565b604080517fffffffffffffffffffffffffffffffffffffffffffffffffffffffffffffffe0818403018152908290526108f291613b37565b60006040518083038185875af1925050503d806000811461092f576040519150601f19603f3d011682016040523d82523d6000602084013e610934565b606091505b50915091508115610949579250610952915050565b80518060208301fd5b92915050565b60007fffffffff0000000000000000000000000000000000000000000000000000000082167fc52d60080000000000000000000000000000000000000000000000000000000014806109ae57506109ae82611b97565b80610952575061095282611bed565b600b602052600090815260409020805481906109d890613b53565b80601f0160208091040260200160405190810160405280929190818152602001828054610a0490613b53565b8015610a515780601f10610a2657610100808354040283529160200191610a51565b820191906000526020600020905b815481529060010190602001808311610a3457829003601f168201915b50505050600183015460029093015491929160ff16905083565b6000818152600b602052604090206002015460ff16610ab6576040517f402b7a2600000000000000000000000000000000000000000000000000000000815260040160405180910390fd5b336000908152600d602052604090205460ff168015610ae65750336000908152600d602052604090206001015442105b15610b4d576040517f08c379a000000000000000000000000000000000000000000000000000000000815260206004820152601260248201527f416c7265616479207375627363726962656400000000000000000000000000006044820152606401610254565b6000610b593383611c51565b905080610b92576040517f15fed33d00000000000000000000000000000000000000000000000000000000815260040160405180910390fd5b610bae33600180604051806020016040528060008152506120dc565b6000610bbd4262278d00613bcf565b6040805160608101825260018082526020808301858152838501898152336000818152600d8552879020955186547fffffffffffffffffffffffffffffffffffffffffffffffffffffffffffffff0016901515178655915193850193909355915160029093019290925582518781529182018490529293507ff94991dcbea6e8ac439cbc93bd9c62a4d39f04e0ad656df9a703f13552c2787f91015b60405180910390a2505050565b60005b8151811015610e34576000828281518110610c8657610c86613be2565b602002602001015190506000600d60008373ffffffffffffffffffffffffffffffffffffffff1673ffffffffffffffffffffffffffffffffffffffff168152602001908152602001600020905042816001015411610d7457610d2e8273ffffffffffffffffffffffffffffffffffffffff166000908152600d6020526040902080547fffffffffffffffffffffffffffffffffffffffffffffffffffffffffffffff00169055565b60405173ffffffffffffffffffffffffffffffffffffffff8316907fae563681ccc696fae58fe830f401bc9c043a43ddb9f7c2830b32c3c70d9966e790600090a2610e1f565b6000610d84838360020154611c51565b905080610e1d57610ddb8373ffffffffffffffffffffffffffffffffffffffff166000908152600d6020526040902080547fffffffffffffffffffffffffffffffffffffffffffffffffffffffffffffff00169055565b60405173ffffffffffffffffffffffffffffffffffffffff8416907fae563681ccc696fae58fe830f401bc9c043a43ddb9f7c2830b32c3c70d9966e790600090a25b505b50508080610e2c90613c11565b915050610c69565b5050565b6000610e448433611102565b905080600003610e98576040517fcba6e97700000000000000000000000000000000000000000000000000000000815273ffffffffffffffffffffffffffffffffffffffff85166004820152602401610254565b6000610ea48483613bcf565b9050610eb433868360018761218b565b6000338285604051602001610ecb93929190613c49565b6040516020818303038152906040529050610ee686826123b2565b505050505050565b8451845181141580610f01575083518114155b80610f0d575082518114155b80610f19575081518114155b15610f50576040517f263eee8d00000000000000000000000000000000000000000000000000000000815260040160405180910390fd5b60005b81811015610fed57610fe5878281518110610f7057610f70613be2565b6020026020010151878381518110610f8a57610f8a613be2565b6020026020010151878481518110610fa457610fa4613be2565b6020026020010151878581518110610fbe57610fbe613be2565b6020026020010151878681518110610fd857610fd8613be2565b6020026020010151611300565b600101610f53565b50505050505050565b3373ffffffffffffffffffffffffffffffffffffffff84161480159061103257503373ffffffffffffffffffffffffffffffffffffffff851614155b1561108f576040517f1a525b3200000000000000000000000000000000000000000000000000000000815233600482015273ffffffffffffffffffffffffffffffffffffffff808516602483015285166044820152606401610254565b61109d83856000858561218b565b81156110d8576000836000836040516020016110bb93929190613c87565b60405160208183030381529060405290506110d685826123b2565b505b50505050565b60025460009060ff166110f15750601290565b50600090565b6060610952826123dd565b60008273ffffffffffffffffffffffffffffffffffffffff168273ffffffffffffffffffffffffffffffffffffffff1603611163575073ffffffffffffffffffffffffffffffffffffffff8116600090815260046020526040902054610952565b5073ffffffffffffffffffffffffffffffffffffffff808216600090815260066020908152604080832093861683529290522054610952565b60608167ffffffffffffffff8111156111b7576111b7613271565b6040519080825280602002602001820160405280156111ea57816020015b60608152602001906001900390816111d55790505b50905060005b828110156112e5576000803086868581811061120e5761120e613be2565b90506020028101906112209190613cbf565b60405161122e929190613d2b565b600060405180830381855af49150503d8060008114611269576040519150601f19603f3d011682016040523d82523d6000602084013e61126e565b606091505b5091509150816112bd578051156112885780518082602001fd5b6040517fb774c28400000000000000000000000000000000000000000000000000000000815260048101849052602401610254565b808484815181106112d0576112d0613be2565b602090810291909101015250506001016111f0565b5092915050565b6112f461247f565b6112fe6000611a0b565b565b3373ffffffffffffffffffffffffffffffffffffffff86161461132857611328338685612500565b6110d685858585856125ca565b3373ffffffffffffffffffffffffffffffffffffffff84161480159061137157503373ffffffffffffffffffffffffffffffffffffffff851614155b156113ce576040517f98ce294500000000000000000000000000000000000000000000000000000000815233600482015273ffffffffffffffffffffffffffffffffffffffff808516602483015285166044820152606401610254565b60006113da8585611102565b905082811015611416576040517f0ef76c3500000000000000000000000000000000000000000000000000000000815260040160405180910390fd5b82810361142785878360018761218b565b600085828560405160200161143e93929190613c49565b6040516020818303038152906040529050610fed87826123b2565b61146161247f565b3415611499576040517ff36ba73700000000000000000000000000000000000000000000000000000000815260040160405180910390fd5b610e3482826126a0565b6114ab61247f565b34156114e3576040517ff36ba73700000000000000000000000000000000000000000000000000000000815260040160405180910390fd5b610e3482826127ab565b6114fb33848460018561218b565b600033838360405160200161151293929190613c49565b60405160208183030381529060405290506110d884826123b2565b73ffffffffffffffffffffffffffffffffffffffff81166000908152600d602052604081205460ff16801561095257505073ffffffffffffffffffffffffffffffffffffffff166000908152600d6020526040902060010154421090565b73ffffffffffffffffffffffffffffffffffffffff8116600090815260056020526040902060609061095290612876565b6060815167ffffffffffffffff8111156115d8576115d8613271565b60405190808252806020026020018201604052801561160b57816020015b60608152602001906001900390816115f65790505b50905060005b82518110156116615761163c83828151811061162f5761162f613be2565b60200260200101516123dd565b82828151811061164e5761164e613be2565b6020908102919091010152600101611611565b50919050565b61166f61247f565b73ffffffffffffffffffffffffffffffffffffffff8116611712576040517f08c379a000000000000000000000000000000000000000000000000000000000815260206004820152602660248201527f4f776e61626c653a206e6577206f776e657220697320746865207a65726f206160448201527f64647265737300000000000000000000000000000000000000000000000000006064820152608401610254565b61171b81611a0b565b50565b336000908152600d602052604090205460ff16611797576040517f08c379a000000000000000000000000000000000000000000000000000000000815260206004820152600e60248201527f4e6f7420737562736372696265640000000000000000000000000000000000006044820152606401610254565b600a546040517f65aeaa9500000000000000000000000000000000000000000000000000000000815230600482015233602482015260009173ffffffffffffffffffffffffffffffffffffffff16906365aeaa9590604401602060405180830381865afa15801561180c573d6000803e3d6000fd5b505050506040513d601f19601f820116820180604052508101906118309190613d3b565b9050801561186a576040517fe953bbb800000000000000000000000000000000000000000000000000000000815260040160405180910390fd5b336000818152600d602052604080822080547fffffffffffffffffffffffffffffffffffffffffffffffffffffffffffffff00169055517fae563681ccc696fae58fe830f401bc9c043a43ddb9f7c2830b32c3c70d9966e79190a250565b6118d061247f565b815160000361190b576040517f7e15dcc700000000000000000000000000000000000000000000000000000000815260040160405180910390fd5b80600003611945576040517f02f64b7900000000000000000000000000000000000000000000000000000000815260040160405180910390fd5b600c80546000918261195683613c11565b909155506040805160608101825285815260208082018690526001828401526000848152600b909152919091208151929350909181906119969082613d9a565b5060208201516001820155604091820151600290910180547fffffffffffffffffffffffffffffffffffffffffffffffffffffffffffffff00169115159190911790555181907f0cd7898308a5fad9421ce03e32f30d9f2a6814fbae5caee3f6de4d482a5aed9990610c599086908690613eb4565b6000805473ffffffffffffffffffffffffffffffffffffffff8381167fffffffffffffffffffffffff0000000000000000000000000000000000000000831681178455604051919092169283917f8be0079c531659141344cd1fd0a4f28419497f9722a3daafe3b4186f6b6457e09190a35050565b6000828152600160205260409020611a988282613d9a565b50817fece574603820d07bc9b91f2a932baadf4628aabcb8afba49776529c14a6104b282604051611ac99190613767565b60405180910390a25050565b60008080611b257fcee78b4094da86011096000000000000000000000000000000000000000000007fffffffff000000000000000000000000000000000000000000000000000000008616612883565b90506000611b32826123dd565b90508051601414158015611b465750805115155b15611b7f57806040517f42bfe79f0000000000000000000000000000000000000000000000000000000081526004016102549190613767565b611b8881613ed6565b60601c95600195509350505050565b60007fffffffff0000000000000000000000000000000000000000000000000000000082167fa918fa6b000000000000000000000000000000000000000000000000000000001480610952575061095282612907565b600080611c197f01ffc9a700000000000000000000000000000000000000000000000000000000611ad5565b50905073ffffffffffffffffffffffffffffffffffffffff8116611c405750600092915050565b611c4a818461299e565b9392505050565b73ffffffffffffffffffffffffffffffffffffffff82166000908152600d60205260408120805460ff168015611c8a5750428160010154115b15611cc1576040517f5fd8a13200000000000000000000000000000000000000000000000000000000815260040160405180910390fd5b6000838152600b60205260408120600181015490916064611ce3836002613f26565b611ced9190613f3d565b90506000611cfb8284613f78565b60408051600280825260608201835292935060009290916020830190803683370190505090508881600081518110611d3557611d35613be2565b602002602001019073ffffffffffffffffffffffffffffffffffffffff16908173ffffffffffffffffffffffffffffffffffffffff16815250508881600181518110611d8357611d83613be2565b73ffffffffffffffffffffffffffffffffffffffff9290921660209283029190910182015260408051600280825260608201835260009391929091830190803683375050600754825192935073ffffffffffffffffffffffffffffffffffffffff1691839150600090611df857611df8613be2565b73ffffffffffffffffffffffffffffffffffffffff9283166020918202929092010152600954825191169082906001908110611e3657611e36613be2565b73ffffffffffffffffffffffffffffffffffffffff9290921660209283029190910182015260408051600280825260608201835260009391929091830190803683370190505090508381600081518110611e9257611e92613be2565b6020026020010181815250508481600181518110611eb257611eb2613be2565b602090810291909101015260408051600280825260608201909252600091816020016020820280368337019050509050600181600081518110611ef757611ef7613be2565b602002602001019015159081151581525050600181600181518110611f1e57611f1e613be2565b9115156020928302919091019091015260408051600280825260608201909252600091816020015b6060815260200190600190039081611f465790505090506040518060200160405280600081525081600081518110611f8057611f80613be2565b60200260200101819052506040518060200160405280600081525081600181518110611fae57611fae613be2565b6020908102919091010152600a546040517f2d7667c900000000000000000000000000000000000000000000000000000000815273ffffffffffffffffffffffffffffffffffffffff90911690632d7667c9906120179088908890889088908890600401613f8b565b600060405180830381600087803b15801561203157600080fd5b505af1925050508015612042575060015b612078576040517f15fed33d00000000000000000000000000000000000000000000000000000000815260040160405180910390fd5b604080518781526020810189905273ffffffffffffffffffffffffffffffffffffffff8f16917f07d56d06d59e708b4db4f68fd102036f1f8441c3f1ce450e350c21fed38d0287910160405180910390a260019a5050505050505050505050610952565b73ffffffffffffffffffffffffffffffffffffffff8416612129576040517fd2d5ec3000000000000000000000000000000000000000000000000000000000815260040160405180910390fd5b612137600085858585612a6d565b612145600085858585612b17565b6121536000858585856110d6565b600033600086868560405160200161216f959493929190614041565b60405160208183030381529060405290506110d6858483612cce565b73ffffffffffffffffffffffffffffffffffffffff84166121d8576040517f6355e76600000000000000000000000000000000000000000000000000000000815260040160405180910390fd5b8473ffffffffffffffffffffffffffffffffffffffff168473ffffffffffffffffffffffffffffffffffffffff160361223d576040517fdab7504700000000000000000000000000000000000000000000000000000000815260040160405180910390fd5b73ffffffffffffffffffffffffffffffffffffffff808616600090815260066020908152604080832093881683529290522083905582156123135773ffffffffffffffffffffffffffffffffffffffff851660009081526005602052604090206122a79085612e8c565b50828573ffffffffffffffffffffffffffffffffffffffff168573ffffffffffffffffffffffffffffffffffffffff167ff772a43bfdf4729b196e3fb54a818b91a2ca6c49d10b2e16278752f9f515c25d846040516123069190613767565b60405180910390a46110d6565b73ffffffffffffffffffffffffffffffffffffffff851660009081526005602052604090206123429085612eae565b508115158573ffffffffffffffffffffffffffffffffffffffff168573ffffffffffffffffffffffffffffffffffffffff167f0ebf5762d8855cbe012d2ca42fb33a81175e17c8a8751f8859931ba453bd4167846040516123a39190613767565b60405180910390a45050505050565b610e34827f386072cc5a58e61263b434c722725f21031cd06e7c552cfaa06db5de8a320dbc83612ed0565b60008181526001602052604090208054606091906123fa90613b53565b80601f016020809104026020016040519081016040528092919081815260200182805461242690613b53565b80156124735780601f1061244857610100808354040283529160200191612473565b820191906000526020600020905b81548152906001019060200180831161245657829003601f168201915b50505050509050919050565b60005473ffffffffffffffffffffffffffffffffffffffff1633146112fe576040517f08c379a000000000000000000000000000000000000000000000000000000000815260206004820181905260248201527f4f776e61626c653a2063616c6c6572206973206e6f7420746865206f776e65726044820152606401610254565b73ffffffffffffffffffffffffffffffffffffffff80831660009081526006602090815260408083209387168352929052205480158061253f57508082115b156125a4576040517ff3a6b69100000000000000000000000000000000000000000000000000000000815273ffffffffffffffffffffffffffffffffffffffff8085166004830152602482018390528516604482015260648101839052608401610254565b6110d883856125b38585613f78565b60006040518060200160405280600081525061218b565b73ffffffffffffffffffffffffffffffffffffffff85161580612601575073ffffffffffffffffffffffffffffffffffffffff8416155b15612638576040517fd2d5ec3000000000000000000000000000000000000000000000000000000000815260040160405180910390fd5b6126458585858585612a6d565b6126528585858585612b17565b61265f85858585856110d6565b6000338686868560405160200161267a959493929190614041565b60405160208183030381529060405290506126958682612f69565b610ee6858483612cce565b7f2145e1d6d074577dc71ef54c3807742b41b053a9352ae6b491331509acb9750f82016126f9576040517f85c169bd00000000000000000000000000000000000000000000000000000000815260040160405180910390fd5b7fd0f59754f88971fe6bc5a6618cc9d5f1e859c58d16b22d1c7b2d3e2b246cd8aa8201612752576040517f76755b3800000000000000000000000000000000000000000000000000000000815260040160405180910390fd5b7f1fd9e056a24d14c4abc642fcc325992a946906d0dbc57dd70278aaf12842024d8201611a80576040517f4ef6d7fb00000000000000000000000000000000000000000000000000000000815260040160405180910390fd5b80518251146127e6576040517f3bcc897900000000000000000000000000000000000000000000000000000000815260040160405180910390fd5b8151600003612821576040517f97da5f9500000000000000000000000000000000000000000000000000000000815260040160405180910390fd5b60005b82518110156128715761286983828151811061284257612842613be2565b602002602001015183838151811061285c5761285c613be2565b60200260200101516126a0565b600101612824565b505050565b60606000611c4a83612f94565b604080517fffffffffffffffffffff00000000000000000000000000000000000000000000841660208201526000602a82018190527fffffffffffffffffffffffffffffffffffffffff0000000000000000000000008416602c830152918291016040516020818303038152906040529050806128ff90614088565b949350505050565b60007fffffffff0000000000000000000000000000000000000000000000000000000082167f629aa69400000000000000000000000000000000000000000000000000000000148061095257507f01ffc9a7000000000000000000000000000000000000000000000000000000007fffffffff00000000000000000000000000000000000000000000000000000000831614610952565b604080517fffffffff000000000000000000000000000000000000000000000000000000008316602480830191909152825180830390910181526044909101909152602080820180517bffffffffffffffffffffffffffffffffffffffffffffffffffffffff167f01ffc9a700000000000000000000000000000000000000000000000000000000178152825160009392849283928392918391908a617530fa92503d91506000519050828015612a56575060208210155b8015612a625750600081115b979650505050505050565b73ffffffffffffffffffffffffffffffffffffffff85161580612aa4575073ffffffffffffffffffffffffffffffffffffffff8416155b612b0a576040517f08c379a000000000000000000000000000000000000000000000000000000000815260206004820152601960248201527f5472616e736665727320617265206e6f7420616c6c6f776564000000000000006044820152606401610254565b6110d685858585856110d6565b73ffffffffffffffffffffffffffffffffffffffff8516612b4f578260036000828254612b449190613bcf565b90915550612c019050565b73ffffffffffffffffffffffffffffffffffffffff851660009081526004602052604090205483811015612bd5576040517f08d479490000000000000000000000000000000000000000000000000000000081526004810182905273ffffffffffffffffffffffffffffffffffffffff8716602482015260448101859052606401610254565b73ffffffffffffffffffffffffffffffffffffffff861660009081526004602052604090209084900390555b73ffffffffffffffffffffffffffffffffffffffff8416612c2a57600380548490039055612c56565b73ffffffffffffffffffffffffffffffffffffffff841660009081526004602052604090208054840190555b8373ffffffffffffffffffffffffffffffffffffffff168573ffffffffffffffffffffffffffffffffffffffff163373ffffffffffffffffffffffffffffffffffffffff167f3997e418d2cef0b3b0e907b1e39605c3f7d32dbd061e82ea5b4a770d46a160a68686866040516123a3939291906140ca565b612cf8837f6bb56a140000000000000000000000000000000000000000000000000000000061299e565b15612dd6576040517f6bb56a1400000000000000000000000000000000000000000000000000000000815273ffffffffffffffffffffffffffffffffffffffff841690636bb56a1490612d71907f20804611b3e2ea21c480dc465142210acf4a2485947541770ec1fb87dee4a55c9085906004016140eb565b6000604051808303816000875af1158015612d90573d6000803e3d6000fd5b505050506040513d6000823e601f3d9081017fffffffffffffffffffffffffffffffffffffffffffffffffffffffffffffffe01682016040526110d89190810190614104565b816128715773ffffffffffffffffffffffffffffffffffffffff83163b15612e42576040517fa608fbb600000000000000000000000000000000000000000000000000000000815273ffffffffffffffffffffffffffffffffffffffff84166004820152602401610254565b6040517f26c247f400000000000000000000000000000000000000000000000000000000815273ffffffffffffffffffffffffffffffffffffffff84166004820152602401610254565b6000611c4a8373ffffffffffffffffffffffffffffffffffffffff8416612fef565b6000611c4a8373ffffffffffffffffffffffffffffffffffffffff841661303e565b612f1073ffffffffffffffffffffffffffffffffffffffff84167f6bb56a140000000000000000000000000000000000000000000000000000000061299e565b15612871576040517f6bb56a1400000000000000000000000000000000000000000000000000000000815273ffffffffffffffffffffffffffffffffffffffff841690636bb56a1490612d7190859085906004016140eb565b610e34827f429ac7a06903dbc9c13dfcb3c9d11df8194581fa047c96d7a4171fc7402958ea83612ed0565b60608160000180548060200260200160405190810160405280929190818152602001828054801561247357602002820191906000526020600020905b815481526020019060010190808311612fd05750505050509050919050565b600081815260018301602052604081205461303657508154600181810184556000848152602080822090930184905584548482528286019093526040902091909155610952565b506000610952565b60008181526001830160205260408120548015613127576000613062600183613f78565b855490915060009061307690600190613f78565b90508181146130db57600086600001828154811061309657613096613be2565b90600052602060002001549050808760000184815481106130b9576130b9613be2565b6000918252602080832090910192909255918252600188019052604090208390555b85548690806130ec576130ec614172565b600190038181906000526020600020016000905590558560010160008681526020019081526020016000206000905560019350505050610952565b6000915050610952565b60208152816020820152818360408301376000818301604090810191909152601f9092017fffffffffffffffffffffffffffffffffffffffffffffffffffffffffffffffe0160101919050565b60006020828403121561319057600080fd5b81357fffffffff0000000000000000000000000000000000000000000000000000000081168114611c4a57600080fd5b6000602082840312156131d257600080fd5b5035919050565b60005b838110156131f45781810151838201526020016131dc565b50506000910152565b600081518084526132158160208601602086016131d9565b601f017fffffffffffffffffffffffffffffffffffffffffffffffffffffffffffffffe0169290920160200192915050565b60608152600061325a60608301866131fd565b602083019490945250901515604090910152919050565b7f4e487b7100000000000000000000000000000000000000000000000000000000600052604160045260246000fd5b604051601f82017fffffffffffffffffffffffffffffffffffffffffffffffffffffffffffffffe016810167ffffffffffffffff811182821017156132e7576132e7613271565b604052919050565b600067ffffffffffffffff82111561330957613309613271565b5060051b60200190565b803573ffffffffffffffffffffffffffffffffffffffff8116811461333757600080fd5b919050565b600082601f83011261334d57600080fd5b8135602061336261335d836132ef565b6132a0565b82815260059290921b8401810191818101908684111561338157600080fd5b8286015b848110156133a35761339681613313565b8352918301918301613385565b509695505050505050565b6000602082840312156133c057600080fd5b813567ffffffffffffffff8111156133d757600080fd5b6128ff8482850161333c565b600067ffffffffffffffff8211156133fd576133fd613271565b50601f017fffffffffffffffffffffffffffffffffffffffffffffffffffffffffffffffe01660200190565b600061343761335d846133e3565b905082815283838301111561344b57600080fd5b828260208301376000602084830101529392505050565b600082601f83011261347357600080fd5b611c4a83833560208501613429565b60008060006060848603121561349757600080fd5b6134a084613313565b925060208401359150604084013567ffffffffffffffff8111156134c357600080fd5b6134cf86828701613462565b9150509250925092565b600082601f8301126134ea57600080fd5b813560206134fa61335d836132ef565b82815260059290921b8401810191818101908684111561351957600080fd5b8286015b848110156133a3578035835291830191830161351d565b8035801515811461333757600080fd5b600082601f83011261355557600080fd5b8135602061356561335d836132ef565b82815260059290921b8401810191818101908684111561358457600080fd5b8286015b848110156133a35761359981613534565b8352918301918301613588565b600082601f8301126135b757600080fd5b813560206135c761335d836132ef565b82815260059290921b840181019181810190868411156135e657600080fd5b8286015b848110156133a357803567ffffffffffffffff81111561360a5760008081fd5b6136188986838b0101613462565b8452509183019183016135ea565b600080600080600060a0868803121561363e57600080fd5b853567ffffffffffffffff8082111561365657600080fd5b61366289838a0161333c565b9650602088013591508082111561367857600080fd5b61368489838a0161333c565b9550604088013591508082111561369a57600080fd5b6136a689838a016134d9565b945060608801359150808211156136bc57600080fd5b6136c889838a01613544565b935060808801359150808211156136de57600080fd5b506136eb888289016135a6565b9150509295509295909350565b6000806000806080858703121561370e57600080fd5b61371785613313565b935061372560208601613313565b925061373360408601613534565b9150606085013567ffffffffffffffff81111561374f57600080fd5b61375b87828801613462565b91505092959194509250565b602081526000611c4a60208301846131fd565b60006020828403121561378c57600080fd5b611c4a82613313565b600080604083850312156137a857600080fd5b6137b183613313565b91506137bf60208401613313565b90509250929050565b600080602083850312156137db57600080fd5b823567ffffffffffffffff808211156137f357600080fd5b818501915085601f83011261380757600080fd5b81358181111561381657600080fd5b8660208260051b850101111561382b57600080fd5b60209290920196919550909350505050565b600081518084526020808501808196508360051b8101915082860160005b858110156138855782840389526138738483516131fd565b9885019893509084019060010161385b565b5091979650505050505050565b602081526000611c4a602083018461383d565b600080600080600060a086880312156138bd57600080fd5b6138c686613313565b94506138d460208701613313565b9350604086013592506138e960608701613534565b9150608086013567ffffffffffffffff81111561390557600080fd5b6136eb88828901613462565b6000806000806080858703121561392757600080fd5b61393085613313565b935061393e60208601613313565b925060408501359150606085013567ffffffffffffffff81111561374f57600080fd5b6000806040838503121561397457600080fd5b82359150602083013567ffffffffffffffff81111561399257600080fd5b61399e85828601613462565b9150509250929050565b600080604083850312156139bb57600080fd5b823567ffffffffffffffff808211156139d357600080fd5b6139df868387016134d9565b935060208501359150808211156139f557600080fd5b5061399e858286016135a6565b600081518084526020808501945080840160005b83811015613a4857815173ffffffffffffffffffffffffffffffffffffffff1687529582019590820190600101613a16565b509495945050505050565b602081526000611c4a6020830184613a02565b600060208284031215613a7857600080fd5b813567ffffffffffffffff811115613a8f57600080fd5b6128ff848285016134d9565b60008060408385031215613aae57600080fd5b823567ffffffffffffffff811115613ac557600080fd5b8301601f81018513613ad657600080fd5b613ae585823560208401613429565b95602094909401359450505050565b8385823760609290921b7fffffffffffffffffffffffffffffffffffffffff00000000000000000000000016919092019081526014810191909152603401919050565b60008251613b498184602087016131d9565b9190910192915050565b600181811c90821680613b6757607f821691505b602082108103611661577f4e487b7100000000000000000000000000000000000000000000000000000000600052602260045260246000fd5b7f4e487b7100000000000000000000000000000000000000000000000000000000600052601160045260246000fd5b8082018082111561095257610952613ba0565b7f4e487b7100000000000000000000000000000000000000000000000000000000600052603260045260246000fd5b60007fffffffffffffffffffffffffffffffffffffffffffffffffffffffffffffffff8203613c4257613c42613ba0565b5060010190565b73ffffffffffffffffffffffffffffffffffffffff84168152826020820152606060408201526000613c7e60608301846131fd565b95945050505050565b73ffffffffffffffffffffffffffffffffffffffff8416815260ff83166020820152606060408201526000613c7e60608301846131fd565b60008083357fffffffffffffffffffffffffffffffffffffffffffffffffffffffffffffffe1843603018112613cf457600080fd5b83018035915067ffffffffffffffff821115613d0f57600080fd5b602001915036819003821315613d2457600080fd5b9250929050565b8183823760009101908152919050565b600060208284031215613d4d57600080fd5b5051919050565b601f82111561287157600081815260208120601f850160051c81016020861015613d7b5750805b601f850160051c820191505b81811015610ee657828155600101613d87565b815167ffffffffffffffff811115613db457613db4613271565b613dc881613dc28454613b53565b84613d54565b602080601f831160018114613e1b5760008415613de55750858301515b7fffffffffffffffffffffffffffffffffffffffffffffffffffffffffffffffff600386901b1c1916600185901b178555610ee6565b6000858152602081207fffffffffffffffffffffffffffffffffffffffffffffffffffffffffffffffe08616915b82811015613e6857888601518255948401946001909101908401613e49565b5085821015613ea457878501517fffffffffffffffffffffffffffffffffffffffffffffffffffffffffffffffff600388901b60f8161c191681555b5050505050600190811b01905550565b604081526000613ec760408301856131fd565b90508260208301529392505050565b6000815160208301517fffffffffffffffffffffffffffffffffffffffff00000000000000000000000080821693506014831015613f1e5780818460140360031b1b83161693505b505050919050565b808202811582820484141761095257610952613ba0565b600082613f73577f4e487b7100000000000000000000000000000000000000000000000000000000600052601260045260246000fd5b500490565b8181038181111561095257610952613ba0565b60a081526000613f9e60a0830188613a02565b602083820381850152613fb18289613a02565b8481036040860152875180825282890193509082019060005b81811015613fe657845183529383019391830191600101613fca565b50508481036060860152865180825290820192508187019060005b8181101561401f578251151585529383019391830191600101614001565b505050508281036080840152614035818561383d565b98975050505050505050565b600073ffffffffffffffffffffffffffffffffffffffff8088168352808716602084015280861660408401525083606083015260a06080830152612a6260a08301846131fd565b80516020808301519190811015611661577fffffffffffffffffffffffffffffffffffffffffffffffffffffffffffffffff60209190910360031b1b16919050565b8381528215156020820152606060408201526000613c7e60608301846131fd565b8281526040602082015260006128ff60408301846131fd565b60006020828403121561411657600080fd5b815167ffffffffffffffff81111561412d57600080fd5b8201601f8101841361413e57600080fd5b805161414c61335d826133e3565b81815285602083850101111561416157600080fd5b613c7e8260208301602086016131d9565b7f4e487b7100000000000000000000000000000000000000000000000000000000600052603160045260246000fdfea2646970667358221220a5ed3c00ab70218b4e758b4769411cb74b743416ec41d6cf95845163739b0c7e64736f6c63430008110033a2646970667358221220e6d2127eab47b22274d0740b48934c2a7067cfca5b2d38181fd49788abee771c64736f6c63430008110033",
  "linkReferences": {},
  "deployedLinkReferences": {}
}