{
  "_format": "hh-sol-artifact-1",
  "contractName": "MyVotingToken",
  "sourceName": "contracts/lsp7/Mocks/MyVotingToken.sol",
  "abi": [
    {
      "inputs": [],
      "stateMutability": "nonpayable",
      "type": "constructor"
    },
    {
      "inputs": [],
      "name": "ERC725Y_DataKeysValuesEmptyArray",
      "type": "error"
    },
    {
      "inputs": [],
      "name": "ERC725Y_DataKeysValuesLengthMismatch",
      "type": "error"
    },
    {
      "inputs": [],
      "name": "ERC725Y_MsgValueDisallowed",
      "type": "error"
    },
    {
      "inputs": [
        {
          "internalType": "bytes",
          "name": "storedData",
          "type": "bytes"
        }
      ],
      "name": "InvalidExtensionAddress",
      "type": "error"
    },
    {
      "inputs": [
        {
          "internalType": "bytes",
          "name": "data",
          "type": "bytes"
        }
      ],
      "name": "InvalidFunctionSelector",
      "type": "error"
    },
    {
      "inputs": [],
      "name": "InvalidShortString",
      "type": "error"
    },
    {
      "inputs": [],
      "name": "LSP4TokenNameNotEditable",
      "type": "error"
    },
    {
      "inputs": [],
      "name": "LSP4TokenSymbolNotEditable",
      "type": "error"
    },
    {
      "inputs": [],
      "name": "LSP4TokenTypeNotEditable",
      "type": "error"
    },
    {
      "inputs": [
        {
          "internalType": "address",
          "name": "tokenOwner",
          "type": "address"
        },
        {
          "internalType": "uint256",
          "name": "authorizedAmount",
          "type": "uint256"
        },
        {
          "internalType": "address",
          "name": "operator",
          "type": "address"
        },
        {
          "internalType": "uint256",
          "name": "amount",
          "type": "uint256"
        }
      ],
      "name": "LSP7AmountExceedsAuthorizedAmount",
      "type": "error"
    },
    {
      "inputs": [
        {
          "internalType": "uint256",
          "name": "balance",
          "type": "uint256"
        },
        {
          "internalType": "address",
          "name": "tokenOwner",
          "type": "address"
        },
        {
          "internalType": "uint256",
          "name": "amount",
          "type": "uint256"
        }
      ],
      "name": "LSP7AmountExceedsBalance",
      "type": "error"
    },
    {
      "inputs": [
        {
          "internalType": "uint256",
          "name": "callIndex",
          "type": "uint256"
        }
      ],
      "name": "LSP7BatchCallFailed",
      "type": "error"
    },
    {
      "inputs": [],
      "name": "LSP7CannotSendWithAddressZero",
      "type": "error"
    },
    {
      "inputs": [],
      "name": "LSP7CannotUseAddressZeroAsOperator",
      "type": "error"
    },
    {
      "inputs": [
        {
          "internalType": "address",
          "name": "caller",
          "type": "address"
        },
        {
          "internalType": "address",
          "name": "tokenOwner",
          "type": "address"
        },
        {
          "internalType": "address",
          "name": "operator",
          "type": "address"
        }
      ],
      "name": "LSP7DecreaseAllowanceNotAuthorized",
      "type": "error"
    },
    {
      "inputs": [],
      "name": "LSP7DecreasedAllowanceBelowZero",
      "type": "error"
    },
    {
      "inputs": [],
      "name": "LSP7InvalidTransferBatch",
      "type": "error"
    },
    {
      "inputs": [
        {
          "internalType": "address",
          "name": "tokenReceiver",
          "type": "address"
        }
      ],
      "name": "LSP7NotifyTokenReceiverContractMissingLSP1Interface",
      "type": "error"
    },
    {
      "inputs": [
        {
          "internalType": "address",
          "name": "tokenReceiver",
          "type": "address"
        }
      ],
      "name": "LSP7NotifyTokenReceiverIsEOA",
      "type": "error"
    },
    {
      "inputs": [
        {
          "internalType": "address",
          "name": "caller",
          "type": "address"
        },
        {
          "internalType": "address",
          "name": "tokenOwner",
          "type": "address"
        },
        {
          "internalType": "address",
          "name": "operator",
          "type": "address"
        }
      ],
      "name": "LSP7RevokeOperatorNotAuthorized",
      "type": "error"
    },
    {
      "inputs": [],
      "name": "LSP7TokenContractCannotHoldValue",
      "type": "error"
    },
    {
      "inputs": [],
      "name": "LSP7TokenOwnerCannotBeOperator",
      "type": "error"
    },
    {
      "inputs": [
        {
          "internalType": "bytes4",
          "name": "functionSelector",
          "type": "bytes4"
        }
      ],
      "name": "NoExtensionFoundForFunctionSelector",
      "type": "error"
    },
    {
      "inputs": [
        {
          "internalType": "address",
          "name": "operator",
          "type": "address"
        }
      ],
      "name": "OperatorAllowanceCannotBeIncreasedFromZero",
      "type": "error"
    },
    {
      "inputs": [],
      "name": "OwnableCannotSetZeroAddressAsOwner",
      "type": "error"
    },
    {
      "inputs": [
        {
          "internalType": "string",
          "name": "str",
          "type": "string"
        }
      ],
      "name": "StringTooLong",
      "type": "error"
    },
    {
      "anonymous": false,
      "inputs": [
        {
          "indexed": true,
          "internalType": "bytes32",
          "name": "dataKey",
          "type": "bytes32"
        },
        {
          "indexed": false,
          "internalType": "bytes",
          "name": "dataValue",
          "type": "bytes"
        }
      ],
      "name": "DataChanged",
      "type": "event"
    },
    {
      "anonymous": false,
      "inputs": [
        {
          "indexed": true,
          "internalType": "address",
          "name": "delegator",
          "type": "address"
        },
        {
          "indexed": true,
          "internalType": "address",
          "name": "fromDelegate",
          "type": "address"
        },
        {
          "indexed": true,
          "internalType": "address",
          "name": "toDelegate",
          "type": "address"
        }
      ],
      "name": "DelegateChanged",
      "type": "event"
    },
    {
      "anonymous": false,
      "inputs": [
        {
          "indexed": true,
          "internalType": "address",
          "name": "delegate",
          "type": "address"
        },
        {
          "indexed": false,
          "internalType": "uint256",
          "name": "previousBalance",
          "type": "uint256"
        },
        {
          "indexed": false,
          "internalType": "uint256",
          "name": "newBalance",
          "type": "uint256"
        }
      ],
      "name": "DelegateVotesChanged",
      "type": "event"
    },
    {
      "anonymous": false,
      "inputs": [],
      "name": "EIP712DomainChanged",
      "type": "event"
    },
    {
      "anonymous": false,
      "inputs": [
        {
          "indexed": true,
          "internalType": "address",
          "name": "operator",
          "type": "address"
        },
        {
          "indexed": true,
          "internalType": "address",
          "name": "tokenOwner",
          "type": "address"
        },
        {
          "indexed": true,
          "internalType": "uint256",
          "name": "amount",
          "type": "uint256"
        },
        {
          "indexed": false,
          "internalType": "bytes",
          "name": "operatorNotificationData",
          "type": "bytes"
        }
      ],
      "name": "OperatorAuthorizationChanged",
      "type": "event"
    },
    {
      "anonymous": false,
      "inputs": [
        {
          "indexed": true,
          "internalType": "address",
          "name": "operator",
          "type": "address"
        },
        {
          "indexed": true,
          "internalType": "address",
          "name": "tokenOwner",
          "type": "address"
        },
        {
          "indexed": true,
          "internalType": "bool",
          "name": "notified",
          "type": "bool"
        },
        {
          "indexed": false,
          "internalType": "bytes",
          "name": "operatorNotificationData",
          "type": "bytes"
        }
      ],
      "name": "OperatorRevoked",
      "type": "event"
    },
    {
      "anonymous": false,
      "inputs": [
        {
          "indexed": true,
          "internalType": "address",
          "name": "previousOwner",
          "type": "address"
        },
        {
          "indexed": true,
          "internalType": "address",
          "name": "newOwner",
          "type": "address"
        }
      ],
      "name": "OwnershipTransferred",
      "type": "event"
    },
    {
      "anonymous": false,
      "inputs": [
        {
          "indexed": true,
          "internalType": "address",
          "name": "operator",
          "type": "address"
        },
        {
          "indexed": true,
          "internalType": "address",
          "name": "from",
          "type": "address"
        },
        {
          "indexed": true,
          "internalType": "address",
          "name": "to",
          "type": "address"
        },
        {
          "indexed": false,
          "internalType": "uint256",
          "name": "amount",
          "type": "uint256"
        },
        {
          "indexed": false,
          "internalType": "bool",
          "name": "force",
          "type": "bool"
        },
        {
          "indexed": false,
          "internalType": "bytes",
          "name": "data",
          "type": "bytes"
        }
      ],
      "name": "Transfer",
      "type": "event"
    },
    {
      "stateMutability": "payable",
      "type": "fallback"
    },
    {
      "inputs": [],
      "name": "CLOCK_MODE",
      "outputs": [
        {
          "internalType": "string",
          "name": "",
          "type": "string"
        }
      ],
      "stateMutability": "view",
      "type": "function"
    },
    {
      "inputs": [],
      "name": "DOMAIN_SEPARATOR",
      "outputs": [
        {
          "internalType": "bytes32",
          "name": "",
          "type": "bytes32"
        }
      ],
      "stateMutability": "view",
      "type": "function"
    },
    {
      "inputs": [
        {
          "internalType": "address",
          "name": "operator",
          "type": "address"
        },
        {
          "internalType": "uint256",
          "name": "amount",
          "type": "uint256"
        },
        {
          "internalType": "bytes",
          "name": "operatorNotificationData",
          "type": "bytes"
        }
      ],
      "name": "authorizeOperator",
      "outputs": [],
      "stateMutability": "nonpayable",
      "type": "function"
    },
    {
      "inputs": [
        {
          "internalType": "address",
          "name": "operator",
          "type": "address"
        },
        {
          "internalType": "address",
          "name": "tokenOwner",
          "type": "address"
        }
      ],
      "name": "authorizedAmountFor",
      "outputs": [
        {
          "internalType": "uint256",
          "name": "",
          "type": "uint256"
        }
      ],
      "stateMutability": "view",
      "type": "function"
    },
    {
      "inputs": [
        {
          "internalType": "address",
          "name": "tokenOwner",
          "type": "address"
        }
      ],
      "name": "balanceOf",
      "outputs": [
        {
          "internalType": "uint256",
          "name": "",
          "type": "uint256"
        }
      ],
      "stateMutability": "view",
      "type": "function"
    },
    {
      "inputs": [
        {
          "internalType": "bytes[]",
          "name": "data",
          "type": "bytes[]"
        }
      ],
      "name": "batchCalls",
      "outputs": [
        {
          "internalType": "bytes[]",
          "name": "results",
          "type": "bytes[]"
        }
      ],
      "stateMutability": "nonpayable",
      "type": "function"
    },
    {
      "inputs": [
        {
          "internalType": "address",
          "name": "account",
          "type": "address"
        },
        {
          "internalType": "uint32",
          "name": "pos",
          "type": "uint32"
        }
      ],
      "name": "checkpoints",
      "outputs": [
        {
          "components": [
            {
              "internalType": "uint32",
              "name": "fromBlock",
              "type": "uint32"
            },
            {
              "internalType": "uint224",
              "name": "votes",
              "type": "uint224"
            }
          ],
          "internalType": "struct LSP7Votes.Checkpoint",
          "name": "",
          "type": "tuple"
        }
      ],
      "stateMutability": "view",
      "type": "function"
    },
    {
      "inputs": [],
      "name": "clock",
      "outputs": [
        {
          "internalType": "uint48",
          "name": "",
          "type": "uint48"
        }
      ],
      "stateMutability": "view",
      "type": "function"
    },
    {
      "inputs": [],
      "name": "decimals",
      "outputs": [
        {
          "internalType": "uint8",
          "name": "",
          "type": "uint8"
        }
      ],
      "stateMutability": "view",
      "type": "function"
    },
    {
      "inputs": [
        {
          "internalType": "address",
          "name": "operator",
          "type": "address"
        },
        {
          "internalType": "address",
          "name": "tokenOwner",
          "type": "address"
        },
        {
          "internalType": "uint256",
          "name": "subtractedAmount",
          "type": "uint256"
        },
        {
          "internalType": "bytes",
          "name": "operatorNotificationData",
          "type": "bytes"
        }
      ],
      "name": "decreaseAllowance",
      "outputs": [],
      "stateMutability": "nonpayable",
      "type": "function"
    },
    {
      "inputs": [
        {
          "internalType": "address",
          "name": "delegatee",
          "type": "address"
        }
      ],
      "name": "delegate",
      "outputs": [],
      "stateMutability": "nonpayable",
      "type": "function"
    },
    {
      "inputs": [
        {
          "internalType": "address",
          "name": "delegatee",
          "type": "address"
        },
        {
          "internalType": "uint256",
          "name": "nonce",
          "type": "uint256"
        },
        {
          "internalType": "uint256",
          "name": "expiry",
          "type": "uint256"
        },
        {
          "internalType": "uint8",
          "name": "v",
          "type": "uint8"
        },
        {
          "internalType": "bytes32",
          "name": "r",
          "type": "bytes32"
        },
        {
          "internalType": "bytes32",
          "name": "s",
          "type": "bytes32"
        }
      ],
      "name": "delegateBySig",
      "outputs": [],
      "stateMutability": "nonpayable",
      "type": "function"
    },
    {
      "inputs": [
        {
          "internalType": "address",
          "name": "account",
          "type": "address"
        }
      ],
      "name": "delegates",
      "outputs": [
        {
          "internalType": "address",
          "name": "",
          "type": "address"
        }
      ],
      "stateMutability": "view",
      "type": "function"
    },
    {
      "inputs": [],
      "name": "eip712Domain",
      "outputs": [
        {
          "internalType": "bytes1",
          "name": "fields",
          "type": "bytes1"
        },
        {
          "internalType": "string",
          "name": "name",
          "type": "string"
        },
        {
          "internalType": "string",
          "name": "version",
          "type": "string"
        },
        {
          "internalType": "uint256",
          "name": "chainId",
          "type": "uint256"
        },
        {
          "internalType": "address",
          "name": "verifyingContract",
          "type": "address"
        },
        {
          "internalType": "bytes32",
          "name": "salt",
          "type": "bytes32"
        },
        {
          "internalType": "uint256[]",
          "name": "extensions",
          "type": "uint256[]"
        }
      ],
      "stateMutability": "view",
      "type": "function"
    },
    {
      "inputs": [
        {
          "internalType": "bytes32",
          "name": "dataKey",
          "type": "bytes32"
        }
      ],
      "name": "getData",
      "outputs": [
        {
          "internalType": "bytes",
          "name": "dataValue",
          "type": "bytes"
        }
      ],
      "stateMutability": "view",
      "type": "function"
    },
    {
      "inputs": [
        {
          "internalType": "bytes32[]",
          "name": "dataKeys",
          "type": "bytes32[]"
        }
      ],
      "name": "getDataBatch",
      "outputs": [
        {
          "internalType": "bytes[]",
          "name": "dataValues",
          "type": "bytes[]"
        }
      ],
      "stateMutability": "view",
      "type": "function"
    },
    {
      "inputs": [
        {
          "internalType": "address",
          "name": "tokenOwner",
          "type": "address"
        }
      ],
      "name": "getOperatorsOf",
      "outputs": [
        {
          "internalType": "address[]",
          "name": "",
          "type": "address[]"
        }
      ],
      "stateMutability": "view",
      "type": "function"
    },
    {
      "inputs": [
        {
          "internalType": "uint256",
          "name": "timepoint",
          "type": "uint256"
        }
      ],
      "name": "getPastTotalSupply",
      "outputs": [
        {
          "internalType": "uint256",
          "name": "",
          "type": "uint256"
        }
      ],
      "stateMutability": "view",
      "type": "function"
    },
    {
      "inputs": [
        {
          "internalType": "address",
          "name": "account",
          "type": "address"
        },
        {
          "internalType": "uint256",
          "name": "timepoint",
          "type": "uint256"
        }
      ],
      "name": "getPastVotes",
      "outputs": [
        {
          "internalType": "uint256",
          "name": "",
          "type": "uint256"
        }
      ],
      "stateMutability": "view",
      "type": "function"
    },
    {
      "inputs": [
        {
          "internalType": "address",
          "name": "account",
          "type": "address"
        }
      ],
      "name": "getVotes",
      "outputs": [
        {
          "internalType": "uint256",
          "name": "",
          "type": "uint256"
        }
      ],
      "stateMutability": "view",
      "type": "function"
    },
    {
      "inputs": [
        {
          "internalType": "address",
          "name": "operator",
          "type": "address"
        },
        {
          "internalType": "uint256",
          "name": "addedAmount",
          "type": "uint256"
        },
        {
          "internalType": "bytes",
          "name": "operatorNotificationData",
          "type": "bytes"
        }
      ],
      "name": "increaseAllowance",
      "outputs": [],
      "stateMutability": "nonpayable",
      "type": "function"
    },
    {
      "inputs": [
        {
          "internalType": "address",
          "name": "rec",
          "type": "address"
        },
        {
          "internalType": "uint256",
          "name": "amount",
          "type": "uint256"
        }
      ],
      "name": "mint",
      "outputs": [],
      "stateMutability": "nonpayable",
      "type": "function"
    },
    {
      "inputs": [
        {
          "internalType": "address",
          "name": "owner",
          "type": "address"
        }
      ],
      "name": "nonces",
      "outputs": [
        {
          "internalType": "uint256",
          "name": "",
          "type": "uint256"
        }
      ],
      "stateMutability": "view",
      "type": "function"
    },
    {
      "inputs": [
        {
          "internalType": "address",
          "name": "account",
          "type": "address"
        }
      ],
      "name": "numCheckpoints",
      "outputs": [
        {
          "internalType": "uint32",
          "name": "",
          "type": "uint32"
        }
      ],
      "stateMutability": "view",
      "type": "function"
    },
    {
      "inputs": [],
      "name": "owner",
      "outputs": [
        {
          "internalType": "address",
          "name": "",
          "type": "address"
        }
      ],
      "stateMutability": "view",
      "type": "function"
    },
    {
      "inputs": [],
      "name": "renounceOwnership",
      "outputs": [],
      "stateMutability": "nonpayable",
      "type": "function"
    },
    {
      "inputs": [
        {
          "internalType": "address",
          "name": "operator",
          "type": "address"
        },
        {
          "internalType": "address",
          "name": "tokenOwner",
          "type": "address"
        },
        {
          "internalType": "bool",
          "name": "notify",
          "type": "bool"
        },
        {
          "internalType": "bytes",
          "name": "operatorNotificationData",
          "type": "bytes"
        }
      ],
      "name": "revokeOperator",
      "outputs": [],
      "stateMutability": "nonpayable",
      "type": "function"
    },
    {
      "inputs": [
        {
          "internalType": "bytes32",
          "name": "dataKey",
          "type": "bytes32"
        },
        {
          "internalType": "bytes",
          "name": "dataValue",
          "type": "bytes"
        }
      ],
      "name": "setData",
      "outputs": [],
      "stateMutability": "payable",
      "type": "function"
    },
    {
      "inputs": [
        {
          "internalType": "bytes32[]",
          "name": "dataKeys",
          "type": "bytes32[]"
        },
        {
          "internalType": "bytes[]",
          "name": "dataValues",
          "type": "bytes[]"
        }
      ],
      "name": "setDataBatch",
      "outputs": [],
      "stateMutability": "payable",
      "type": "function"
    },
    {
      "inputs": [
        {
          "internalType": "bytes4",
          "name": "interfaceId",
          "type": "bytes4"
        }
      ],
      "name": "supportsInterface",
      "outputs": [
        {
          "internalType": "bool",
          "name": "",
          "type": "bool"
        }
      ],
      "stateMutability": "view",
      "type": "function"
    },
    {
      "inputs": [],
      "name": "totalSupply",
      "outputs": [
        {
          "internalType": "uint256",
          "name": "",
          "type": "uint256"
        }
      ],
      "stateMutability": "view",
      "type": "function"
    },
    {
      "inputs": [
        {
          "internalType": "address",
          "name": "from",
          "type": "address"
        },
        {
          "internalType": "address",
          "name": "to",
          "type": "address"
        },
        {
          "internalType": "uint256",
          "name": "amount",
          "type": "uint256"
        },
        {
          "internalType": "bool",
          "name": "force",
          "type": "bool"
        },
        {
          "internalType": "bytes",
          "name": "data",
          "type": "bytes"
        }
      ],
      "name": "transfer",
      "outputs": [],
      "stateMutability": "nonpayable",
      "type": "function"
    },
    {
      "inputs": [
        {
          "internalType": "address[]",
          "name": "from",
          "type": "address[]"
        },
        {
          "internalType": "address[]",
          "name": "to",
          "type": "address[]"
        },
        {
          "internalType": "uint256[]",
          "name": "amount",
          "type": "uint256[]"
        },
        {
          "internalType": "bool[]",
          "name": "force",
          "type": "bool[]"
        },
        {
          "internalType": "bytes[]",
          "name": "data",
          "type": "bytes[]"
        }
      ],
      "name": "transferBatch",
      "outputs": [],
      "stateMutability": "nonpayable",
      "type": "function"
    },
    {
      "inputs": [
        {
          "internalType": "address",
          "name": "newOwner",
          "type": "address"
        }
      ],
      "name": "transferOwnership",
      "outputs": [],
      "stateMutability": "nonpayable",
      "type": "function"
    },
    {
      "stateMutability": "payable",
      "type": "receive"
    }
  ],
  "bytecode": "0x6101606040523480156200001257600080fd5b506040518060400160405280600d81526020016c26bcab37ba34b733aa37b5b2b760991b815250604051806040016040528060018152602001603160f81b8152506040518060400160405280600d81526020016c26bcab37ba34b733aa37b5b2b760991b8152506040518060400160405280600681526020016526acab2a25a760d11b815250336000808484848481620000bb620000b56200030f60201b60201c565b62000313565b6001600160a01b038116620000e3576040516306b620db60e21b815260040160405180910390fd5b620000f9816200031360201b620018ad1760201c565b50620001507feafec4d89fa9619884b60000a4d96624a38f7ac2d8d9a604ecf07c12c77e480c60001b604051806040016040528060048152602001632936598960e21b8152506200036360201b620019221760201c565b6200018a7fdeba1e292f8ba88238e10ab3c7f88bd4be4fac56cad5194b6ecceaf653468af160001b856200036360201b620019221760201c565b620001c47f2f0a68ab07768e01943a599e73362a0e17a63a72e94dd2e384d2c1d4db93275660001b846200036360201b620019221760201c565b604080516020810183905262000217917fe0261fa95db2eb3b5439bd033cda66d56b96f92f243a8228fd87550ed7bdfdb391016040516020818303038152906040526200036360201b620019221760201c565b5050505080600260006101000a81548160ff021916908315150217905550505050505062000255600783620003bc60201b620019771790919060201c565b6101205262000272816008620003bc602090811b6200197717901c565b61014052815160208084019190912060e052815190820120610100524660a0526200030060e05161010051604080517f8b73c3c69bb8fe3d512ecc4cf759cc79239f7b179b0ffacaa9a75d522b39400f60208201529081019290925260608201524660808201523060a082015260009060c00160405160208183030381529060405280519060200120905090565b60805250503060c05262000655565b3390565b600080546001600160a01b038381166001600160a01b0319831681178455604051919092169283917f8be0079c531659141344cd1fd0a4f28419497f9722a3daafe3b4186f6b6457e09190a35050565b60008281526001602052604090206200037d828262000500565b50817fece574603820d07bc9b91f2a932baadf4628aabcb8afba49776529c14a6104b282604051620003b0919062000614565b60405180910390a25050565b6000602083511015620003dc57620003d4836200040c565b905062000406565b82620003f3836200045860201b620019a81760201c565b9062000400908262000500565b5060ff90505b92915050565b600080829050601f8151111562000443578260405163305a27a960e01b81526004016200043a919062000614565b60405180910390fd5b8051620004508262000630565b179392505050565b90565b634e487b7160e01b600052604160045260246000fd5b600181811c908216806200048657607f821691505b602082108103620004a757634e487b7160e01b600052602260045260246000fd5b50919050565b601f821115620004fb57600081815260208120601f850160051c81016020861015620004d65750805b601f850160051c820191505b81811015620004f757828155600101620004e2565b5050505b505050565b81516001600160401b038111156200051c576200051c6200045b565b62000534816200052d845462000471565b84620004ad565b602080601f8311600181146200056c5760008415620005535750858301515b600019600386901b1c1916600185901b178555620004f7565b600085815260208120601f198616915b828110156200059d578886015182559484019460019091019084016200057c565b5085821015620005bc5787850151600019600388901b60f8161c191681555b5050505050600190811b01905550565b6000815180845260005b81811015620005f457602081850181015186830182015201620005d6565b506000602082860101526020601f19601f83011685010191505092915050565b602081526000620006296020830184620005cc565b9392505050565b80516020808301519190811015620004a75760001960209190910360031b1b16919050565b60805160a05160c05160e051610100516101205161014051614d20620006b060003960006112a30152600061127801526000611e5901526000611e3101526000611d8c01526000611db601526000611de00152614d206000f3fe60806040526004361061021d5760003560e01c8063715018a61161011d57806391ddadf4116100b0578063c3cda5201161007f578063dedff9c611610064578063dedff9c61461078f578063f1127ed8146107af578063f2fde38b1461080e576102aa565b8063c3cda52014610742578063d72fc29a14610762576102aa565b806391ddadf4146106c357806397902421146106ef5780639ab24eb014610702578063b49506fd14610722576102aa565b80637f23690c116100ec5780637f23690c1461063d57806384b0196e146106505780638da5cb5b146106785780638e539e8c146106a3576102aa565b8063715018a6146105c8578063760d9bba146105dd57806378381670146105fd5780637ecebe001461061d576102aa565b806340c10f19116101b05780635c19a95c1161017f5780636963d438116101645780636963d438146105235780636fcfff451461055057806370a0823114610585576102aa565b80635c19a95c146104e357806365aeaa9514610503576102aa565b806340c10f19146104165780634bf5d7e91461043657806354f6127f14610458578063587cde1e14610478576102aa565b806330d0dc37116101ec57806330d0dc371461039a578063313ce567146103ba5780633644e515146103e15780633a46b1a8146103f6576102aa565b806301ffc9a71461030457806318160ddd146103395780632bc1da82146103585780632d7667c91461037a576102aa565b366102aa5734600003610278576040517fe5099ee300000000000000000000000000000000000000000000000000000000815260040161026f9060208082526004908201526000604082015260600190565b60405180910390fd5b6040517f388f5adc00000000000000000000000000000000000000000000000000000000815260040160405180910390fd5b600036606060048210156102ee5782826040517fe5099ee300000000000000000000000000000000000000000000000000000000815260040161026f929190613c85565b6102f8838361082e565b80519350602001915050f35b34801561031057600080fd5b5061032461031f366004613cd2565b6109a5565b60405190151581526020015b60405180910390f35b34801561034557600080fd5b506003545b604051908152602001610330565b34801561036457600080fd5b50610378610373366004613e57565b610a0a565b005b34801561038657600080fd5b5061037861039536600461408c565b610ac0565b3480156103a657600080fd5b506103786103b536600461415e565b610bc8565b3480156103c657600080fd5b506103cf610cb0565b60405160ff9091168152602001610330565b3480156103ed57600080fd5b5061034a610ccb565b34801561040257600080fd5b5061034a6104113660046141cd565b610cd5565b34801561042257600080fd5b506103786104313660046141cd565b610d85565b34801561044257600080fd5b5061044b610da5565b6040516103309190614265565b34801561046457600080fd5b5061044b610473366004614278565b610e57565b34801561048457600080fd5b506104be610493366004614291565b73ffffffffffffffffffffffffffffffffffffffff9081166000908152600a60205260409020541690565b60405173ffffffffffffffffffffffffffffffffffffffff9091168152602001610330565b3480156104ef57600080fd5b506103786104fe366004614291565b610e62565b34801561050f57600080fd5b5061034a61051e3660046142ac565b610e6f565b34801561052f57600080fd5b5061054361053e3660046142df565b610f09565b6040516103309190614354565b34801561055c57600080fd5b5061057061056b366004614291565b611059565b60405163ffffffff9091168152602001610330565b34801561059157600080fd5b5061034a6105a0366004614291565b73ffffffffffffffffffffffffffffffffffffffff1660009081526004602052604090205490565b3480156105d457600080fd5b50610378611088565b3480156105e957600080fd5b506103786105f83660046143d4565b61109c565b34801561060957600080fd5b50610378610618366004614440565b6110d1565b34801561062957600080fd5b5061034a610638366004614291565b6111f5565b61037861064b366004614490565b611220565b34801561065c57600080fd5b5061066561126a565b60405161033097969594939291906144d7565b34801561068457600080fd5b5060005473ffffffffffffffffffffffffffffffffffffffff166104be565b3480156106af57600080fd5b5061034a6106be366004614278565b61130f565b3480156106cf57600080fd5b506106d8611394565b60405165ffffffffffff9091168152602001610330565b6103786106fd366004614596565b61139f565b34801561070e57600080fd5b5061034a61071d366004614291565b6113e9565b34801561072e57600080fd5b5061037861073d366004613e57565b6114cd565b34801561074e57600080fd5b5061037861075d3660046145f0565b61150d565b34801561076e57600080fd5b5061078261077d366004614291565b61167b565b6040516103309190614650565b34801561079b57600080fd5b506105436107aa3660046146aa565b6116ac565b3480156107bb57600080fd5b506107cf6107ca3660046146df565b611757565b60408051825163ffffffff1681526020928301517bffffffffffffffffffffffffffffffffffffffffffffffffffffffff169281019290925201610330565b34801561081a57600080fd5b50610378610829366004614291565b6117fd565b6060600061085f6000357fffffffff00000000000000000000000000000000000000000000000000000000166119ab565b50905073ffffffffffffffffffffffffffffffffffffffff81166108d5576040517fbb370b2b0000000000000000000000000000000000000000000000000000000081527fffffffff0000000000000000000000000000000000000000000000000000000060003516600482015260240161026f565b6000808273ffffffffffffffffffffffffffffffffffffffff163487873334604051602001610907949392919061471f565b604080517fffffffffffffffffffffffffffffffffffffffffffffffffffffffffffffffe08184030181529082905261093f91614762565b60006040518083038185875af1925050503d806000811461097c576040519150601f19603f3d011682016040523d82523d6000602084013e610981565b606091505b5091509150811561099657925061099f915050565b80518060208301fd5b92915050565b60007fffffffff0000000000000000000000000000000000000000000000000000000082167fc52d60080000000000000000000000000000000000000000000000000000000014806109fb57506109fb82611a6d565b8061099f575061099f82611ac3565b6000610a168433610e6f565b905080600003610a6a576040517fcba6e97700000000000000000000000000000000000000000000000000000000815273ffffffffffffffffffffffffffffffffffffffff8516600482015260240161026f565b6000610a7684836147ad565b9050610a86338683600187611b20565b6000338285604051602001610a9d939291906147c0565b6040516020818303038152906040529050610ab88682611d47565b505050505050565b8451845181141580610ad3575083518114155b80610adf575082518114155b80610aeb575081518114155b15610b22576040517f263eee8d00000000000000000000000000000000000000000000000000000000815260040160405180910390fd5b60005b81811015610bbf57610bb7878281518110610b4257610b426147fe565b6020026020010151878381518110610b5c57610b5c6147fe565b6020026020010151878481518110610b7657610b766147fe565b6020026020010151878581518110610b9057610b906147fe565b6020026020010151878681518110610baa57610baa6147fe565b602002602001015161109c565b600101610b25565b50505050505050565b3373ffffffffffffffffffffffffffffffffffffffff841614801590610c0457503373ffffffffffffffffffffffffffffffffffffffff851614155b15610c61576040517f1a525b3200000000000000000000000000000000000000000000000000000000815233600482015273ffffffffffffffffffffffffffffffffffffffff80851660248301528516604482015260640161026f565b610c6f838560008585611b20565b8115610caa57600083600083604051602001610c8d9392919061482d565b6040516020818303038152906040529050610ca88582611d47565b505b50505050565b60025460009060ff16610cc35750601290565b60005b905090565b6000610cc6611d72565b6000610cdf611394565b65ffffffffffff168210610d4f576040517f08c379a000000000000000000000000000000000000000000000000000000000815260206004820152601860248201527f4c535037566f7465733a20667574757265206c6f6f6b75700000000000000000604482015260640161026f565b73ffffffffffffffffffffffffffffffffffffffff83166000908152600b60205260409020610d7e9083611eaa565b9392505050565b610da18282600160405180602001604052806000815250611fdb565b5050565b606043610db0611394565b65ffffffffffff1614610e1f576040517f08c379a000000000000000000000000000000000000000000000000000000000815260206004820152601c60248201527f4c535037566f7465733a2062726f6b656e20636c6f636b206d6f646500000000604482015260640161026f565b5060408051808201909152601d81527f6d6f64653d626c6f636b6e756d6265722666726f6d3d64656661756c74000000602082015290565b606061099f8261208a565b610e6c338261212c565b50565b60008273ffffffffffffffffffffffffffffffffffffffff168273ffffffffffffffffffffffffffffffffffffffff1603610ed0575073ffffffffffffffffffffffffffffffffffffffff811660009081526004602052604090205461099f565b5073ffffffffffffffffffffffffffffffffffffffff80821660009081526006602090815260408083209386168352929052205461099f565b60608167ffffffffffffffff811115610f2457610f24613d3d565b604051908082528060200260200182016040528015610f5757816020015b6060815260200190600190039081610f425790505b50905060005b828110156110525760008030868685818110610f7b57610f7b6147fe565b9050602002810190610f8d9190614865565b604051610f9b9291906148d1565b600060405180830381855af49150503d8060008114610fd6576040519150601f19603f3d011682016040523d82523d6000602084013e610fdb565b606091505b50915091508161102a57805115610ff55780518082602001fd5b6040517fb774c2840000000000000000000000000000000000000000000000000000000081526004810184905260240161026f565b8084848151811061103d5761103d6147fe565b60209081029190910101525050600101610f5d565b5092915050565b73ffffffffffffffffffffffffffffffffffffffff81166000908152600b602052604081205461099f906122e7565b611090612381565b61109a60006118ad565b565b3373ffffffffffffffffffffffffffffffffffffffff8616146110c4576110c4338685612402565b610ca885858585856124cc565b3373ffffffffffffffffffffffffffffffffffffffff84161480159061110d57503373ffffffffffffffffffffffffffffffffffffffff851614155b1561116a576040517f98ce294500000000000000000000000000000000000000000000000000000000815233600482015273ffffffffffffffffffffffffffffffffffffffff80851660248301528516604482015260640161026f565b60006111768585610e6f565b9050828110156111b2576040517f0ef76c3500000000000000000000000000000000000000000000000000000000815260040160405180910390fd5b8281036111c3858783600187611b20565b60008582856040516020016111da939291906147c0565b6040516020818303038152906040529050610bbf8782611d47565b73ffffffffffffffffffffffffffffffffffffffff811660009081526009602052604081205461099f565b611228612381565b3415611260576040517ff36ba73700000000000000000000000000000000000000000000000000000000815260040160405180910390fd5b610da182826125a2565b60006060808280808361129e7f000000000000000000000000000000000000000000000000000000000000000060076126ad565b6112c97f000000000000000000000000000000000000000000000000000000000000000060086126ad565b604080516000808252602082019092527f0f000000000000000000000000000000000000000000000000000000000000009b939a50919850469750309650945092509050565b6000611319611394565b65ffffffffffff168210611389576040517f08c379a000000000000000000000000000000000000000000000000000000000815260206004820152601860248201527f4c535037566f7465733a20667574757265206c6f6f6b75700000000000000000604482015260640161026f565b61099f600c83611eaa565b6000610cc643612751565b6113a7612381565b34156113df576040517ff36ba73700000000000000000000000000000000000000000000000000000000815260040160405180910390fd5b610da182826127e9565b73ffffffffffffffffffffffffffffffffffffffff81166000908152600b602052604081205480156114a55773ffffffffffffffffffffffffffffffffffffffff83166000908152600b6020526040902080547fffffffffffffffffffffffffffffffffffffffffffffffffffffffffffffffff830190811061146e5761146e6147fe565b60009182526020909120015464010000000090047bffffffffffffffffffffffffffffffffffffffffffffffffffffffff166114a8565b60005b7bffffffffffffffffffffffffffffffffffffffffffffffffffffffff169392505050565b6114db338484600185611b20565b60003383836040516020016114f2939291906147c0565b6040516020818303038152906040529050610caa8482611d47565b83421115611577576040517f08c379a000000000000000000000000000000000000000000000000000000000815260206004820152601c60248201527f4c535037566f7465733a207369676e6174757265206578706972656400000000604482015260640161026f565b604080517fe48329057bfd03d55e49b547132e39cffd9c1820ad7b9d4c5307691425d15adf602082015273ffffffffffffffffffffffffffffffffffffffff88169181019190915260608101869052608081018590526000906115fe906115f69060a001604051602081830303815290604052805190602001206128b4565b8585856128fc565b905061160981612924565b8614611671576040517f08c379a000000000000000000000000000000000000000000000000000000000815260206004820152601860248201527f4c535037566f7465733a20696e76616c6964206e6f6e63650000000000000000604482015260640161026f565b610bbf818861212c565b73ffffffffffffffffffffffffffffffffffffffff8116600090815260056020526040902060609061099f90612957565b6060815167ffffffffffffffff8111156116c8576116c8613d3d565b6040519080825280602002602001820160405280156116fb57816020015b60608152602001906001900390816116e65790505b50905060005b82518110156117515761172c83828151811061171f5761171f6147fe565b602002602001015161208a565b82828151811061173e5761173e6147fe565b6020908102919091010152600101611701565b50919050565b604080518082019091526000808252602082015273ffffffffffffffffffffffffffffffffffffffff83166000908152600b60205260409020805463ffffffff84169081106117a8576117a86147fe565b60009182526020918290206040805180820190915291015463ffffffff8116825264010000000090047bffffffffffffffffffffffffffffffffffffffffffffffffffffffff16918101919091529392505050565b611805612381565b73ffffffffffffffffffffffffffffffffffffffff81166118a8576040517f08c379a000000000000000000000000000000000000000000000000000000000815260206004820152602660248201527f4f776e61626c653a206e6577206f776e657220697320746865207a65726f206160448201527f6464726573730000000000000000000000000000000000000000000000000000606482015260840161026f565b610e6c815b6000805473ffffffffffffffffffffffffffffffffffffffff8381167fffffffffffffffffffffffff0000000000000000000000000000000000000000831681178455604051919092169283917f8be0079c531659141344cd1fd0a4f28419497f9722a3daafe3b4186f6b6457e09190a35050565b600082815260016020526040902061193a8282614974565b50817fece574603820d07bc9b91f2a932baadf4628aabcb8afba49776529c14a6104b28260405161196b9190614265565b60405180910390a25050565b60006020835110156119935761198c83612964565b905061099f565b8161199e8482614974565b5060ff905061099f565b90565b600080806119fb7fcee78b4094da86011096000000000000000000000000000000000000000000007fffffffff0000000000000000000000000000000000000000000000000000000086166129bb565b90506000611a088261208a565b90508051601414158015611a1c5750805115155b15611a5557806040517f42bfe79f00000000000000000000000000000000000000000000000000000000815260040161026f9190614265565b611a5e81614a8e565b60601c95600195509350505050565b60007fffffffff0000000000000000000000000000000000000000000000000000000082167fa918fa6b00000000000000000000000000000000000000000000000000000000148061099f575061099f82612a3f565b600080611aef7f01ffc9a7000000000000000000000000000000000000000000000000000000006119ab565b50905073ffffffffffffffffffffffffffffffffffffffff8116611b165750600092915050565b610d7e8184612ad6565b73ffffffffffffffffffffffffffffffffffffffff8416611b6d576040517f6355e76600000000000000000000000000000000000000000000000000000000815260040160405180910390fd5b8473ffffffffffffffffffffffffffffffffffffffff168473ffffffffffffffffffffffffffffffffffffffff1603611bd2576040517fdab7504700000000000000000000000000000000000000000000000000000000815260040160405180910390fd5b73ffffffffffffffffffffffffffffffffffffffff80861660009081526006602090815260408083209388168352929052208390558215611ca85773ffffffffffffffffffffffffffffffffffffffff85166000908152600560205260409020611c3c9085612ba5565b50828573ffffffffffffffffffffffffffffffffffffffff168573ffffffffffffffffffffffffffffffffffffffff167ff772a43bfdf4729b196e3fb54a818b91a2ca6c49d10b2e16278752f9f515c25d84604051611c9b9190614265565b60405180910390a4610ca8565b73ffffffffffffffffffffffffffffffffffffffff85166000908152600560205260409020611cd79085612bc7565b508115158573ffffffffffffffffffffffffffffffffffffffff168573ffffffffffffffffffffffffffffffffffffffff167f0ebf5762d8855cbe012d2ca42fb33a81175e17c8a8751f8859931ba453bd416784604051611d389190614265565b60405180910390a45050505050565b610da1827f386072cc5a58e61263b434c722725f21031cd06e7c552cfaa06db5de8a320dbc83612be9565b60003073ffffffffffffffffffffffffffffffffffffffff7f000000000000000000000000000000000000000000000000000000000000000016148015611dd857507f000000000000000000000000000000000000000000000000000000000000000046145b15611e0257507f000000000000000000000000000000000000000000000000000000000000000090565b610cc6604080517f8b73c3c69bb8fe3d512ecc4cf759cc79239f7b179b0ffacaa9a75d522b39400f60208201527f0000000000000000000000000000000000000000000000000000000000000000918101919091527f000000000000000000000000000000000000000000000000000000000000000060608201524660808201523060a082015260009060c00160405160208183030381529060405280519060200120905090565b815460009081816005811115611f04576000611ec584612ce7565b611ecf9085614ade565b600088815260209020909150869082015463ffffffff161115611ef457809150611f02565b611eff8160016147ad565b92505b505b80821015611f51576000611f188383612dcf565b600088815260209020909150869082015463ffffffff161115611f3d57809150611f4b565b611f488160016147ad565b92505b50611f04565b8015611fb05760008681526020902081017fffffffffffffffffffffffffffffffffffffffffffffffffffffffffffffffff015464010000000090047bffffffffffffffffffffffffffffffffffffffffffffffffffffffff16611fb3565b60005b7bffffffffffffffffffffffffffffffffffffffffffffffffffffffff169695505050505050565b73ffffffffffffffffffffffffffffffffffffffff8416612028576040517fd2d5ec3000000000000000000000000000000000000000000000000000000000815260040160405180910390fd5b612036600085858585610ca8565b612044600085858585612dea565b612052600085858585610ca8565b600033600086868560405160200161206e959493929190614af1565b6040516020818303038152906040529050610ca8858483612eda565b60008181526001602052604090208054606091906120a7906148e1565b80601f01602080910402602001604051908101604052809291908181526020018280546120d3906148e1565b80156121205780601f106120f557610100808354040283529160200191612120565b820191906000526020600020905b81548152906001019060200180831161210357829003601f168201915b50505050509050919050565b73ffffffffffffffffffffffffffffffffffffffff8281166000818152600a6020818152604080842080546004845282862054949093528787167fffffffffffffffffffffffff00000000000000000000000000000000000000008416811790915590519190951694919391928592917f3134e8a2e6d97e929a7e54011ea5485d7d196dd5f0ba4d4ef95803e8e3fc257f9190a46121cb828483613033565b73ffffffffffffffffffffffffffffffffffffffff841615612253576040805133602082015273ffffffffffffffffffffffffffffffffffffffff8516818301526060808201849052825180830390910181526080909101909152612251857f6117a486162c4ba8e38d646ef52b1e0e1be6bef05a980c041e232eba8c95e16f83612be9565b505b73ffffffffffffffffffffffffffffffffffffffff8316158015906122785750600081115b15610caa576040805133602082015273ffffffffffffffffffffffffffffffffffffffff8616818301526060808201849052825180830390910181526080909101909152610ca8847f72cad372b29cde295ff0839b7b194597766b88f5fad4f7d6aef013e0c55dc49283612be9565b600063ffffffff82111561237d576040517f08c379a000000000000000000000000000000000000000000000000000000000815260206004820152602660248201527f53616665436173743a2076616c756520646f65736e27742066697420696e203360448201527f3220626974730000000000000000000000000000000000000000000000000000606482015260840161026f565b5090565b60005473ffffffffffffffffffffffffffffffffffffffff16331461109a576040517f08c379a000000000000000000000000000000000000000000000000000000000815260206004820181905260248201527f4f776e61626c653a2063616c6c6572206973206e6f7420746865206f776e6572604482015260640161026f565b73ffffffffffffffffffffffffffffffffffffffff80831660009081526006602090815260408083209387168352929052205480158061244157508082115b156124a6576040517ff3a6b69100000000000000000000000000000000000000000000000000000000815273ffffffffffffffffffffffffffffffffffffffff808516600483015260248201839052851660448201526064810183905260840161026f565b610caa83856124b58585614ade565b600060405180602001604052806000815250611b20565b73ffffffffffffffffffffffffffffffffffffffff85161580612503575073ffffffffffffffffffffffffffffffffffffffff8416155b1561253a576040517fd2d5ec3000000000000000000000000000000000000000000000000000000000815260040160405180910390fd5b6125478585858585610ca8565b6125548585858585612dea565b6125618585858585610ca8565b6000338686868560405160200161257c959493929190614af1565b604051602081830303815290604052905061259786826131d8565b610ab8858483612eda565b7f2145e1d6d074577dc71ef54c3807742b41b053a9352ae6b491331509acb9750f82016125fb576040517f85c169bd00000000000000000000000000000000000000000000000000000000815260040160405180910390fd5b7fd0f59754f88971fe6bc5a6618cc9d5f1e859c58d16b22d1c7b2d3e2b246cd8aa8201612654576040517f76755b3800000000000000000000000000000000000000000000000000000000815260040160405180910390fd5b7f1fd9e056a24d14c4abc642fcc325992a946906d0dbc57dd70278aaf12842024d8201611922576040517f4ef6d7fb00000000000000000000000000000000000000000000000000000000815260040160405180910390fd5b606060ff83146126c05761198c83613203565b8180546126cc906148e1565b80601f01602080910402602001604051908101604052809291908181526020018280546126f8906148e1565b80156127455780601f1061271a57610100808354040283529160200191612745565b820191906000526020600020905b81548152906001019060200180831161272857829003601f168201915b5050505050905061099f565b600065ffffffffffff82111561237d576040517f08c379a000000000000000000000000000000000000000000000000000000000815260206004820152602660248201527f53616665436173743a2076616c756520646f65736e27742066697420696e203460448201527f3820626974730000000000000000000000000000000000000000000000000000606482015260840161026f565b8051825114612824576040517f3bcc897900000000000000000000000000000000000000000000000000000000815260040160405180910390fd5b815160000361285f576040517f97da5f9500000000000000000000000000000000000000000000000000000000815260040160405180910390fd5b60005b82518110156128af576128a7838281518110612880576128806147fe565b602002602001015183838151811061289a5761289a6147fe565b60200260200101516125a2565b600101612862565b505050565b600061099f6128c1611d72565b836040517f19010000000000000000000000000000000000000000000000000000000000008152600281019290925260228201526042902090565b600080600061290d87878787613242565b9150915061291a81613331565b5095945050505050565b73ffffffffffffffffffffffffffffffffffffffff81166000908152600960205260409020805460018101825590611751565b60606000610d7e836134e4565b600080829050601f815111156129a857826040517f305a27a900000000000000000000000000000000000000000000000000000000815260040161026f9190614265565b80516129b382614b38565b179392505050565b604080517fffffffffffffffffffff00000000000000000000000000000000000000000000841660208201526000602a82018190527fffffffffffffffffffffffffffffffffffffffff0000000000000000000000008416602c83015291829101604051602081830303815290604052905080612a3790614b38565b949350505050565b60007fffffffff0000000000000000000000000000000000000000000000000000000082167f629aa69400000000000000000000000000000000000000000000000000000000148061099f57507f01ffc9a7000000000000000000000000000000000000000000000000000000007fffffffff0000000000000000000000000000000000000000000000000000000083161461099f565b604080517fffffffff000000000000000000000000000000000000000000000000000000008316602480830191909152825180830390910181526044909101909152602080820180517bffffffffffffffffffffffffffffffffffffffffffffffffffffffff167f01ffc9a700000000000000000000000000000000000000000000000000000000178152825160009392849283928392918391908a617530fa92503d91506000519050828015612b8e575060208210155b8015612b9a5750600081115b979650505050505050565b6000610d7e8373ffffffffffffffffffffffffffffffffffffffff841661353f565b6000610d7e8373ffffffffffffffffffffffffffffffffffffffff841661358e565b612c2973ffffffffffffffffffffffffffffffffffffffff84167f6bb56a1400000000000000000000000000000000000000000000000000000000612ad6565b156128af576040517f6bb56a1400000000000000000000000000000000000000000000000000000000815273ffffffffffffffffffffffffffffffffffffffff841690636bb56a1490612c829085908590600401614b7a565b6000604051808303816000875af1158015612ca1573d6000803e3d6000fd5b505050506040513d6000823e601f3d9081017fffffffffffffffffffffffffffffffffffffffffffffffffffffffffffffffe0168201604052610caa9190810190614b93565b600081600003612cf957506000919050565b60006001612d0684613681565b901c6001901b90506001818481612d1f57612d1f614c01565b048201901c90506001818481612d3757612d37614c01565b048201901c90506001818481612d4f57612d4f614c01565b048201901c90506001818481612d6757612d67614c01565b048201901c90506001818481612d7f57612d7f614c01565b048201901c90506001818481612d9757612d97614c01565b048201901c90506001818481612daf57612daf614c01565b048201901c9050610d7e81828581612dc957612dc9614c01565b04613715565b6000612dde6002848418614c30565b610d7e908484166147ad565b612df7858585858561372b565b73ffffffffffffffffffffffffffffffffffffffff8516612ecf576000612e1d60035490565b90507bffffffffffffffffffffffffffffffffffffffffffffffffffffffff80821115612ecc576040517f08c379a000000000000000000000000000000000000000000000000000000000815260206004820152602f60248201527f4c535037566f7465733a20746f74616c20737570706c79207269736b73206f7660448201527f6572666c6f77696e6720766f7465730000000000000000000000000000000000606482015260840161026f565b50505b610ca88585856138e2565b612f04837f6bb56a1400000000000000000000000000000000000000000000000000000000612ad6565b15612f7d576040517f6bb56a1400000000000000000000000000000000000000000000000000000000815273ffffffffffffffffffffffffffffffffffffffff841690636bb56a1490612c82907f20804611b3e2ea21c480dc465142210acf4a2485947541770ec1fb87dee4a55c908590600401614b7a565b816128af5773ffffffffffffffffffffffffffffffffffffffff83163b15612fe9576040517fa608fbb600000000000000000000000000000000000000000000000000000000815273ffffffffffffffffffffffffffffffffffffffff8416600482015260240161026f565b6040517f26c247f400000000000000000000000000000000000000000000000000000000815273ffffffffffffffffffffffffffffffffffffffff8416600482015260240161026f565b8173ffffffffffffffffffffffffffffffffffffffff168373ffffffffffffffffffffffffffffffffffffffff161415801561306f5750600081115b156128af5773ffffffffffffffffffffffffffffffffffffffff8316156131245773ffffffffffffffffffffffffffffffffffffffff83166000908152600b6020526040812081906130c49061397985613985565b915091508473ffffffffffffffffffffffffffffffffffffffff167fdec2bacdd2f05b59de34da9b523dff8be42e5e38e818c82fdb0bae774387a7248383604051613119929190918252602082015260400190565b60405180910390a250505b73ffffffffffffffffffffffffffffffffffffffff8216156128af5773ffffffffffffffffffffffffffffffffffffffff82166000908152600b60205260408120819061317490613b8a85613985565b915091508373ffffffffffffffffffffffffffffffffffffffff167fdec2bacdd2f05b59de34da9b523dff8be42e5e38e818c82fdb0bae774387a72483836040516131c9929190918252602082015260400190565b60405180910390a25050505050565b610da1827f429ac7a06903dbc9c13dfcb3c9d11df8194581fa047c96d7a4171fc7402958ea83612be9565b6060600061321083613b96565b604080516020808252818301909252919250600091906020820181803683375050509182525060208101929092525090565b6000807f7fffffffffffffffffffffffffffffff5d576e7357a4501ddfe92f46681b20a08311156132795750600090506003613328565b6040805160008082526020820180845289905260ff881692820192909252606081018690526080810185905260019060a0016020604051602081039080840390855afa1580156132cd573d6000803e3d6000fd5b50506040517fffffffffffffffffffffffffffffffffffffffffffffffffffffffffffffffe0015191505073ffffffffffffffffffffffffffffffffffffffff811661332157600060019250925050613328565b9150600090505b94509492505050565b600081600481111561334557613345614c6b565b0361334d5750565b600181600481111561336157613361614c6b565b036133c8576040517f08c379a000000000000000000000000000000000000000000000000000000000815260206004820152601860248201527f45434453413a20696e76616c6964207369676e61747572650000000000000000604482015260640161026f565b60028160048111156133dc576133dc614c6b565b03613443576040517f08c379a000000000000000000000000000000000000000000000000000000000815260206004820152601f60248201527f45434453413a20696e76616c6964207369676e6174757265206c656e67746800604482015260640161026f565b600381600481111561345757613457614c6b565b03610e6c576040517f08c379a000000000000000000000000000000000000000000000000000000000815260206004820152602260248201527f45434453413a20696e76616c6964207369676e6174757265202773272076616c60448201527f7565000000000000000000000000000000000000000000000000000000000000606482015260840161026f565b60608160000180548060200260200160405190810160405280929190818152602001828054801561212057602002820191906000526020600020905b8154815260200190600101908083116135205750505050509050919050565b60008181526001830160205260408120546135865750815460018181018455600084815260208082209093018490558454848252828601909352604090209190915561099f565b50600061099f565b600081815260018301602052604081205480156136775760006135b2600183614ade565b85549091506000906135c690600190614ade565b905081811461362b5760008660000182815481106135e6576135e66147fe565b9060005260206000200154905080876000018481548110613609576136096147fe565b6000918252602080832090910192909255918252600188019052604090208390555b855486908061363c5761363c614c9a565b60019003818190600052602060002001600090559055856001016000868152602001908152602001600020600090556001935050505061099f565b600091505061099f565b600080608083901c1561369657608092831c92015b604083901c156136a857604092831c92015b602083901c156136ba57602092831c92015b601083901c156136cc57601092831c92015b600883901c156136de57600892831c92015b600483901c156136f057600492831c92015b600283901c1561370257600292831c92015b600183901c1561099f5760010192915050565b60008183106137245781610d7e565b5090919050565b73ffffffffffffffffffffffffffffffffffffffff851661376357826003600082825461375891906147ad565b909155506138159050565b73ffffffffffffffffffffffffffffffffffffffff8516600090815260046020526040902054838110156137e9576040517f08d479490000000000000000000000000000000000000000000000000000000081526004810182905273ffffffffffffffffffffffffffffffffffffffff871660248201526044810185905260640161026f565b73ffffffffffffffffffffffffffffffffffffffff861660009081526004602052604090209084900390555b73ffffffffffffffffffffffffffffffffffffffff841661383e5760038054849003905561386a565b73ffffffffffffffffffffffffffffffffffffffff841660009081526004602052604090208054840190555b8373ffffffffffffffffffffffffffffffffffffffff168573ffffffffffffffffffffffffffffffffffffffff163373ffffffffffffffffffffffffffffffffffffffff167f3997e418d2cef0b3b0e907b1e39605c3f7d32dbd061e82ea5b4a770d46a160a6868686604051611d3893929190614cc9565b73ffffffffffffffffffffffffffffffffffffffff831661390e5761390b600c613b8a83613985565b50505b73ffffffffffffffffffffffffffffffffffffffff821661393a57613937600c61397983613985565b50505b73ffffffffffffffffffffffffffffffffffffffff8381166000908152600a60205260408082205485841683529120546128af92918216911683613033565b6000610d7e8284614ade565b82546000908190818115613a055760008781526020902082017fffffffffffffffffffffffffffffffffffffffffffffffffffffffffffffffff0160408051808201909152905463ffffffff8116825264010000000090047bffffffffffffffffffffffffffffffffffffffffffffffffffffffff166020820152613a1a565b60408051808201909152600080825260208201525b905080602001517bffffffffffffffffffffffffffffffffffffffffffffffffffffffff169350613a4f84868863ffffffff16565b9250600082118015613a795750613a64611394565b65ffffffffffff16816000015163ffffffff16145b15613af157613a8783613bd7565b60008881526020902083017fffffffffffffffffffffffffffffffffffffffffffffffffffffffffffffffff0180547bffffffffffffffffffffffffffffffffffffffffffffffffffffffff929092166401000000000263ffffffff909216919091179055613b80565b866040518060400160405280613b15613b08611394565b65ffffffffffff166122e7565b63ffffffff168152602001613b2986613bd7565b7bffffffffffffffffffffffffffffffffffffffffffffffffffffffff90811690915282546001810184556000938452602093849020835194909301519091166401000000000263ffffffff909316929092179101555b5050935093915050565b6000610d7e82846147ad565b600060ff8216601f81111561099f576040517fb3512b0c00000000000000000000000000000000000000000000000000000000815260040160405180910390fd5b60007bffffffffffffffffffffffffffffffffffffffffffffffffffffffff82111561237d576040517f08c379a000000000000000000000000000000000000000000000000000000000815260206004820152602760248201527f53616665436173743a2076616c756520646f65736e27742066697420696e203260448201527f3234206269747300000000000000000000000000000000000000000000000000606482015260840161026f565b60208152816020820152818360408301376000818301604090810191909152601f9092017fffffffffffffffffffffffffffffffffffffffffffffffffffffffffffffffe0160101919050565b600060208284031215613ce457600080fd5b81357fffffffff0000000000000000000000000000000000000000000000000000000081168114610d7e57600080fd5b803573ffffffffffffffffffffffffffffffffffffffff81168114613d3857600080fd5b919050565b7f4e487b7100000000000000000000000000000000000000000000000000000000600052604160045260246000fd5b604051601f82017fffffffffffffffffffffffffffffffffffffffffffffffffffffffffffffffe016810167ffffffffffffffff81118282101715613db357613db3613d3d565b604052919050565b600067ffffffffffffffff821115613dd557613dd5613d3d565b50601f017fffffffffffffffffffffffffffffffffffffffffffffffffffffffffffffffe01660200190565b600082601f830112613e1257600080fd5b8135613e25613e2082613dbb565b613d6c565b818152846020838601011115613e3a57600080fd5b816020850160208301376000918101602001919091529392505050565b600080600060608486031215613e6c57600080fd5b613e7584613d14565b925060208401359150604084013567ffffffffffffffff811115613e9857600080fd5b613ea486828701613e01565b9150509250925092565b600067ffffffffffffffff821115613ec857613ec8613d3d565b5060051b60200190565b600082601f830112613ee357600080fd5b81356020613ef3613e2083613eae565b82815260059290921b84018101918181019086841115613f1257600080fd5b8286015b84811015613f3457613f2781613d14565b8352918301918301613f16565b509695505050505050565b600082601f830112613f5057600080fd5b81356020613f60613e2083613eae565b82815260059290921b84018101918181019086841115613f7f57600080fd5b8286015b84811015613f345780358352918301918301613f83565b80358015158114613d3857600080fd5b600082601f830112613fbb57600080fd5b81356020613fcb613e2083613eae565b82815260059290921b84018101918181019086841115613fea57600080fd5b8286015b84811015613f3457613fff81613f9a565b8352918301918301613fee565b600082601f83011261401d57600080fd5b8135602061402d613e2083613eae565b82815260059290921b8401810191818101908684111561404c57600080fd5b8286015b84811015613f3457803567ffffffffffffffff8111156140705760008081fd5b61407e8986838b0101613e01565b845250918301918301614050565b600080600080600060a086880312156140a457600080fd5b853567ffffffffffffffff808211156140bc57600080fd5b6140c889838a01613ed2565b965060208801359150808211156140de57600080fd5b6140ea89838a01613ed2565b9550604088013591508082111561410057600080fd5b61410c89838a01613f3f565b9450606088013591508082111561412257600080fd5b61412e89838a01613faa565b9350608088013591508082111561414457600080fd5b506141518882890161400c565b9150509295509295909350565b6000806000806080858703121561417457600080fd5b61417d85613d14565b935061418b60208601613d14565b925061419960408601613f9a565b9150606085013567ffffffffffffffff8111156141b557600080fd5b6141c187828801613e01565b91505092959194509250565b600080604083850312156141e057600080fd5b6141e983613d14565b946020939093013593505050565b60005b838110156142125781810151838201526020016141fa565b50506000910152565b600081518084526142338160208601602086016141f7565b601f017fffffffffffffffffffffffffffffffffffffffffffffffffffffffffffffffe0169290920160200192915050565b602081526000610d7e602083018461421b565b60006020828403121561428a57600080fd5b5035919050565b6000602082840312156142a357600080fd5b610d7e82613d14565b600080604083850312156142bf57600080fd5b6142c883613d14565b91506142d660208401613d14565b90509250929050565b600080602083850312156142f257600080fd5b823567ffffffffffffffff8082111561430a57600080fd5b818501915085601f83011261431e57600080fd5b81358181111561432d57600080fd5b8660208260051b850101111561434257600080fd5b60209290920196919550909350505050565b6000602080830181845280855180835260408601915060408160051b870101925083870160005b828110156143c7577fffffffffffffffffffffffffffffffffffffffffffffffffffffffffffffffc08886030184526143b585835161421b565b9450928501929085019060010161437b565b5092979650505050505050565b600080600080600060a086880312156143ec57600080fd5b6143f586613d14565b945061440360208701613d14565b93506040860135925061441860608701613f9a565b9150608086013567ffffffffffffffff81111561443457600080fd5b61415188828901613e01565b6000806000806080858703121561445657600080fd5b61445f85613d14565b935061446d60208601613d14565b925060408501359150606085013567ffffffffffffffff8111156141b557600080fd5b600080604083850312156144a357600080fd5b82359150602083013567ffffffffffffffff8111156144c157600080fd5b6144cd85828601613e01565b9150509250929050565b7fff00000000000000000000000000000000000000000000000000000000000000881681526000602060e08184015261451360e084018a61421b565b8381036040850152614525818a61421b565b6060850189905273ffffffffffffffffffffffffffffffffffffffff8816608086015260a0850187905284810360c0860152855180825283870192509083019060005b8181101561458457835183529284019291840191600101614568565b50909c9b505050505050505050505050565b600080604083850312156145a957600080fd5b823567ffffffffffffffff808211156145c157600080fd5b6145cd86838701613f3f565b935060208501359150808211156145e357600080fd5b506144cd8582860161400c565b60008060008060008060c0878903121561460957600080fd5b61461287613d14565b95506020870135945060408701359350606087013560ff8116811461463657600080fd5b9598949750929560808101359460a0909101359350915050565b6020808252825182820181905260009190848201906040850190845b8181101561469e57835173ffffffffffffffffffffffffffffffffffffffff168352928401929184019160010161466c565b50909695505050505050565b6000602082840312156146bc57600080fd5b813567ffffffffffffffff8111156146d357600080fd5b612a3784828501613f3f565b600080604083850312156146f257600080fd5b6146fb83613d14565b9150602083013563ffffffff8116811461471457600080fd5b809150509250929050565b8385823760609290921b7fffffffffffffffffffffffffffffffffffffffff00000000000000000000000016919092019081526014810191909152603401919050565b600082516147748184602087016141f7565b9190910192915050565b7f4e487b7100000000000000000000000000000000000000000000000000000000600052601160045260246000fd5b8082018082111561099f5761099f61477e565b73ffffffffffffffffffffffffffffffffffffffff841681528260208201526060604082015260006147f5606083018461421b565b95945050505050565b7f4e487b7100000000000000000000000000000000000000000000000000000000600052603260045260246000fd5b73ffffffffffffffffffffffffffffffffffffffff8416815260ff831660208201526060604082015260006147f5606083018461421b565b60008083357fffffffffffffffffffffffffffffffffffffffffffffffffffffffffffffffe184360301811261489a57600080fd5b83018035915067ffffffffffffffff8211156148b557600080fd5b6020019150368190038213156148ca57600080fd5b9250929050565b8183823760009101908152919050565b600181811c908216806148f557607f821691505b602082108103611751577f4e487b7100000000000000000000000000000000000000000000000000000000600052602260045260246000fd5b601f8211156128af57600081815260208120601f850160051c810160208610156149555750805b601f850160051c820191505b81811015610ab857828155600101614961565b815167ffffffffffffffff81111561498e5761498e613d3d565b6149a28161499c84546148e1565b8461492e565b602080601f8311600181146149f557600084156149bf5750858301515b7fffffffffffffffffffffffffffffffffffffffffffffffffffffffffffffffff600386901b1c1916600185901b178555610ab8565b6000858152602081207fffffffffffffffffffffffffffffffffffffffffffffffffffffffffffffffe08616915b82811015614a4257888601518255948401946001909101908401614a23565b5085821015614a7e57878501517fffffffffffffffffffffffffffffffffffffffffffffffffffffffffffffffff600388901b60f8161c191681555b5050505050600190811b01905550565b6000815160208301517fffffffffffffffffffffffffffffffffffffffff00000000000000000000000080821693506014831015614ad65780818460140360031b1b83161693505b505050919050565b8181038181111561099f5761099f61477e565b600073ffffffffffffffffffffffffffffffffffffffff8088168352808716602084015280861660408401525083606083015260a06080830152612b9a60a083018461421b565b80516020808301519190811015611751577fffffffffffffffffffffffffffffffffffffffffffffffffffffffffffffffff60209190910360031b1b16919050565b828152604060208201526000612a37604083018461421b565b600060208284031215614ba557600080fd5b815167ffffffffffffffff811115614bbc57600080fd5b8201601f81018413614bcd57600080fd5b8051614bdb613e2082613dbb565b818152856020838501011115614bf057600080fd5b6147f58260208301602086016141f7565b7f4e487b7100000000000000000000000000000000000000000000000000000000600052601260045260246000fd5b600082614c66577f4e487b7100000000000000000000000000000000000000000000000000000000600052601260045260246000fd5b500490565b7f4e487b7100000000000000000000000000000000000000000000000000000000600052602160045260246000fd5b7f4e487b7100000000000000000000000000000000000000000000000000000000600052603160045260246000fd5b83815282151560208201526060604082015260006147f5606083018461421b56fea264697066735822122013123d8c69ce31f01c99151333587c432988f75788290ac8dd44732d240355e564736f6c63430008110033",
  "linkReferences": {},
  "deployedLinkReferences": {}
}