{
  "_format": "hh-sol-artifact-1",
  "contractName": "ERC725Y",
  "sourceName": "@erc725/smart-contracts-v8/contracts/ERC725Y.sol",
  "abi": [
    {
      "inputs": [
        {
          "internalType": "address",
          "name": "initialOwner",
          "type": "address"
        }
      ],
      "stateMutability": "payable",
      "type": "constructor"
    },
    {
      "inputs": [],
      "name": "ERC725Y_DataKeysValuesEmptyArray",
      "type": "error"
    },
    {
      "inputs": [],
      "name": "ERC725Y_DataKeysValuesLengthMismatch",
      "type": "error"
    },
    {
      "inputs": [],
      "name": "ERC725Y_MsgValueDisallowed",
      "type": "error"
    },
    {
      "inputs": [],
      "name": "OwnableCannotSetZeroAddressAsOwner",
      "type": "error"
    },
    {
      "anonymous": false,
      "inputs": [
        {
          "indexed": true,
          "internalType": "bytes32",
          "name": "dataKey",
          "type": "bytes32"
        },
        {
          "indexed": false,
          "internalType": "bytes",
          "name": "dataValue",
          "type": "bytes"
        }
      ],
      "name": "DataChanged",
      "type": "event"
    },
    {
      "anonymous": false,
      "inputs": [
        {
          "indexed": true,
          "internalType": "address",
          "name": "previousOwner",
          "type": "address"
        },
        {
          "indexed": true,
          "internalType": "address",
          "name": "newOwner",
          "type": "address"
        }
      ],
      "name": "OwnershipTransferred",
      "type": "event"
    },
    {
      "inputs": [
        {
          "internalType": "bytes32",
          "name": "dataKey",
          "type": "bytes32"
        }
      ],
      "name": "getData",
      "outputs": [
        {
          "internalType": "bytes",
          "name": "dataValue",
          "type": "bytes"
        }
      ],
      "stateMutability": "view",
      "type": "function"
    },
    {
      "inputs": [
        {
          "internalType": "bytes32[]",
          "name": "dataKeys",
          "type": "bytes32[]"
        }
      ],
      "name": "getDataBatch",
      "outputs": [
        {
          "internalType": "bytes[]",
          "name": "dataValues",
          "type": "bytes[]"
        }
      ],
      "stateMutability": "view",
      "type": "function"
    },
    {
      "inputs": [],
      "name": "owner",
      "outputs": [
        {
          "internalType": "address",
          "name": "",
          "type": "address"
        }
      ],
      "stateMutability": "view",
      "type": "function"
    },
    {
      "inputs": [],
      "name": "renounceOwnership",
      "outputs": [],
      "stateMutability": "nonpayable",
      "type": "function"
    },
    {
      "inputs": [
        {
          "internalType": "bytes32",
          "name": "dataKey",
          "type": "bytes32"
        },
        {
          "internalType": "bytes",
          "name": "dataValue",
          "type": "bytes"
        }
      ],
      "name": "setData",
      "outputs": [],
      "stateMutability": "payable",
      "type": "function"
    },
    {
      "inputs": [
        {
          "internalType": "bytes32[]",
          "name": "dataKeys",
          "type": "bytes32[]"
        },
        {
          "internalType": "bytes[]",
          "name": "dataValues",
          "type": "bytes[]"
        }
      ],
      "name": "setDataBatch",
      "outputs": [],
      "stateMutability": "payable",
      "type": "function"
    },
    {
      "inputs": [
        {
          "internalType": "bytes4",
          "name": "interfaceId",
          "type": "bytes4"
        }
      ],
      "name": "supportsInterface",
      "outputs": [
        {
          "internalType": "bool",
          "name": "",
          "type": "bool"
        }
      ],
      "stateMutability": "view",
      "type": "function"
    },
    {
      "inputs": [
        {
          "internalType": "address",
          "name": "newOwner",
          "type": "address"
        }
      ],
      "name": "transferOwnership",
      "outputs": [],
      "stateMutability": "nonpayable",
      "type": "function"
    }
  ],
  "bytecode": "0x6080604052604051610ea7380380610ea7833981016040819052610022916100bb565b61002b3361006b565b6001600160a01b038116610052576040516306b620db60e21b815260040160405180910390fd5b6100658161006b60201b6104581760201c565b506100eb565b600080546001600160a01b038381166001600160a01b0319831681178455604051919092169283917f8be0079c531659141344cd1fd0a4f28419497f9722a3daafe3b4186f6b6457e09190a35050565b6000602082840312156100cd57600080fd5b81516001600160a01b03811681146100e457600080fd5b9392505050565b610dad806100fa6000396000f3fe60806040526004361061007b5760003560e01c80638da5cb5b1161004e5780638da5cb5b1461010c5780639790242114610141578063dedff9c614610154578063f2fde38b1461018157600080fd5b806301ffc9a71461008057806354f6127f146100b5578063715018a6146100e25780637f23690c146100f9575b600080fd5b34801561008c57600080fd5b506100a061009b366004610710565b6101a1565b60405190151581526020015b60405180910390f35b3480156100c157600080fd5b506100d56100d0366004610759565b61023a565b6040516100ac91906107d6565b3480156100ee57600080fd5b506100f7610245565b005b6100f76101073660046108f5565b610259565b34801561011857600080fd5b5060005460405173ffffffffffffffffffffffffffffffffffffffff90911681526020016100ac565b6100f761014f3660046109cb565b6102a7565b34801561016057600080fd5b5061017461016f366004610aa0565b6102f1565b6040516100ac9190610add565b34801561018d57600080fd5b506100f761019c366004610b5d565b61039c565b60007fffffffff0000000000000000000000000000000000000000000000000000000082167f629aa69400000000000000000000000000000000000000000000000000000000148061023457507f01ffc9a7000000000000000000000000000000000000000000000000000000007fffffffff000000000000000000000000000000000000000000000000000000008316145b92915050565b6060610234826104cd565b61024d61056f565b6102576000610458565b565b61026161056f565b3415610299576040517ff36ba73700000000000000000000000000000000000000000000000000000000815260040160405180910390fd5b6102a382826105f0565b5050565b6102af61056f565b34156102e7576040517ff36ba73700000000000000000000000000000000000000000000000000000000815260040160405180910390fd5b6102a38282610645565b6060815167ffffffffffffffff81111561030d5761030d6107e9565b60405190808252806020026020018201604052801561034057816020015b606081526020019060019003908161032b5790505b50905060005b82518110156103965761037183828151811061036457610364610b93565b60200260200101516104cd565b82828151811061038357610383610b93565b6020908102919091010152600101610346565b50919050565b6103a461056f565b73ffffffffffffffffffffffffffffffffffffffff811661044c576040517f08c379a000000000000000000000000000000000000000000000000000000000815260206004820152602660248201527f4f776e61626c653a206e6577206f776e657220697320746865207a65726f206160448201527f646472657373000000000000000000000000000000000000000000000000000060648201526084015b60405180910390fd5b61045581610458565b50565b6000805473ffffffffffffffffffffffffffffffffffffffff8381167fffffffffffffffffffffffff0000000000000000000000000000000000000000831681178455604051919092169283917f8be0079c531659141344cd1fd0a4f28419497f9722a3daafe3b4186f6b6457e09190a35050565b60008181526001602052604090208054606091906104ea90610bc2565b80601f016020809104026020016040519081016040528092919081815260200182805461051690610bc2565b80156105635780601f1061053857610100808354040283529160200191610563565b820191906000526020600020905b81548152906001019060200180831161054657829003601f168201915b50505050509050919050565b60005473ffffffffffffffffffffffffffffffffffffffff163314610257576040517f08c379a000000000000000000000000000000000000000000000000000000000815260206004820181905260248201527f4f776e61626c653a2063616c6c6572206973206e6f7420746865206f776e65726044820152606401610443565b60008281526001602052604090206106088282610c5d565b50817fece574603820d07bc9b91f2a932baadf4628aabcb8afba49776529c14a6104b28260405161063991906107d6565b60405180910390a25050565b8051825114610680576040517f3bcc897900000000000000000000000000000000000000000000000000000000815260040160405180910390fd5b81516000036106bb576040517f97da5f9500000000000000000000000000000000000000000000000000000000815260040160405180910390fd5b60005b825181101561070b576107038382815181106106dc576106dc610b93565b60200260200101518383815181106106f6576106f6610b93565b60200260200101516105f0565b6001016106be565b505050565b60006020828403121561072257600080fd5b81357fffffffff000000000000000000000000000000000000000000000000000000008116811461075257600080fd5b9392505050565b60006020828403121561076b57600080fd5b5035919050565b6000815180845260005b818110156107985760208185018101518683018201520161077c565b5060006020828601015260207fffffffffffffffffffffffffffffffffffffffffffffffffffffffffffffffe0601f83011685010191505092915050565b6020815260006107526020830184610772565b7f4e487b7100000000000000000000000000000000000000000000000000000000600052604160045260246000fd5b604051601f82017fffffffffffffffffffffffffffffffffffffffffffffffffffffffffffffffe016810167ffffffffffffffff8111828210171561085f5761085f6107e9565b604052919050565b600082601f83011261087857600080fd5b813567ffffffffffffffff811115610892576108926107e9565b6108c360207fffffffffffffffffffffffffffffffffffffffffffffffffffffffffffffffe0601f84011601610818565b8181528460208386010111156108d857600080fd5b816020850160208301376000918101602001919091529392505050565b6000806040838503121561090857600080fd5b82359150602083013567ffffffffffffffff81111561092657600080fd5b61093285828601610867565b9150509250929050565b600067ffffffffffffffff821115610956576109566107e9565b5060051b60200190565b600082601f83011261097157600080fd5b813560206109866109818361093c565b610818565b82815260059290921b840181019181810190868411156109a557600080fd5b8286015b848110156109c057803583529183019183016109a9565b509695505050505050565b600080604083850312156109de57600080fd5b823567ffffffffffffffff808211156109f657600080fd5b610a0286838701610960565b9350602091508185013581811115610a1957600080fd5b8501601f81018713610a2a57600080fd5b8035610a386109818261093c565b81815260059190911b82018401908481019089831115610a5757600080fd5b8584015b83811015610a8f57803586811115610a735760008081fd5b610a818c8983890101610867565b845250918601918601610a5b565b508096505050505050509250929050565b600060208284031215610ab257600080fd5b813567ffffffffffffffff811115610ac957600080fd5b610ad584828501610960565b949350505050565b6000602080830181845280855180835260408601915060408160051b870101925083870160005b82811015610b50577fffffffffffffffffffffffffffffffffffffffffffffffffffffffffffffffc0888603018452610b3e858351610772565b94509285019290850190600101610b04565b5092979650505050505050565b600060208284031215610b6f57600080fd5b813573ffffffffffffffffffffffffffffffffffffffff8116811461075257600080fd5b7f4e487b7100000000000000000000000000000000000000000000000000000000600052603260045260246000fd5b600181811c90821680610bd657607f821691505b602082108103610396577f4e487b7100000000000000000000000000000000000000000000000000000000600052602260045260246000fd5b601f82111561070b57600081815260208120601f850160051c81016020861015610c365750805b601f850160051c820191505b81811015610c5557828155600101610c42565b505050505050565b815167ffffffffffffffff811115610c7757610c776107e9565b610c8b81610c858454610bc2565b84610c0f565b602080601f831160018114610cde5760008415610ca85750858301515b7fffffffffffffffffffffffffffffffffffffffffffffffffffffffffffffffff600386901b1c1916600185901b178555610c55565b6000858152602081207fffffffffffffffffffffffffffffffffffffffffffffffffffffffffffffffe08616915b82811015610d2b57888601518255948401946001909101908401610d0c565b5085821015610d6757878501517fffffffffffffffffffffffffffffffffffffffffffffffffffffffffffffffff600388901b60f8161c191681555b5050505050600190811b0190555056fea2646970667358221220abe5ba02f2b0a18e66bbf5d7f3cff6572f389ee35d41603abf06f7aae98e3e5664736f6c63430008110033",
  "linkReferences": {},
  "deployedLinkReferences": {}
}